:020000040800F2
:100000000848002045010008E33C0008E52D0008F1
:10001000E13C00080D0D0008ED860008000000001E
:100020000000000000000000000000001D7000083B
:100030004D150008000000008540000839750008D3
:100040005F0100085F0100085F0100085F01000810
:100050005F0100085F010008D5150008551600086B
:100060005F0100085F010008811600085F010008B9
:10007000710F00085F010008E10F00085F01000830
:100080005F010008391000085F0100085F010008E7
:100090005F0100085F0100085F010008D516000835
:1000A0005F0100085F0100085F0100085F010008B0
:1000B0001D7800085F0100085F0100085F0100086B
:1000C0005F0100085F0100085F0100085F01000890
:1000D0005F01000861800008D98000085181000894
:1000E000F51500085F0100085F0100085F010008C6
:1000F0005F0100085F0100085F0100085F01000860
:100100005F0100085F010008257900085F01000811
:100110007D7E0008817F00085F0100085F01000804
:100120005F0100085F0100085F01000891100008EE
:10013000DFF80CD000F01AFC00480047B1C10008FD
:10014000084800200648804706480047FEE7FEE7CB
:10015000FEE7FEE7FEE7FEE7FEE7FEE7FEE7FEE777
:100160003D7500083101000840EA01039B0703D0F8
:1001700009E008C9121F08C0042AFAD203E011F8E6
:10018000013B00F8013B521EF9D27047D2B201E0A8
:1001900000F8012B491EFBD270470022F6E710B58C
:1001A00013460A4604461946FFF7F0FF204610BDE5
:1001B00030B505462A460B4612F8010B13F8014BE1
:1001C00008B1A042F8D01CB1002802D06D1CF1E7A4
:1001D000284630BD421C10F8011B0029FBD1801AB3
:1001E0007047F0B480EA0102D40F4200B2EB410F35
:1001F00002D20246084611464A0042D0C30DDDB283
:10020000C1F3C752AD1A202D35DAC1F3160141F4FE
:10021000000204B15242C5F1200602FA06F12A4159
:100220001044B3EBD05F23D0C4B1012DA0EBC35079
:1002300009DCF0BC4FF0004202EAC352DBB200F529
:10024000000000F020BA400000F1807000EBC350C5
:10025000A0F1807040EAD170490009E0490841EA04
:10026000C071A0EBC35000F50000400800EBC35084
:10027000F0BC00F0FFB96142012202EB4101001B1A
:10028000F6E7F0BC704781F00041AAE780F000403B
:10029000A7E780EA010210B502F00043400022D037
:1002A0004A001FD0010E01EB1261C0F35600C2F3E9
:1002B000560240F4000042F40002A0FB02200004B9
:1002C0007F39140400D0401C50EA124001D4400091
:1002D000491EC2B20C0604EBD010401C4008802A14
:1002E00002D003E0002010BD20F00100002900DA58
:1002F0000020184310BD30B480EA010202F000452E
:1003000030F0004221F0004013D090B1C30DD40D65
:10031000C2F31601C0F31600E41A41F4000140F4E0
:1003200000027D34914201D3641C00E04900002C9E
:1003300002DA30BC002070474FF4000000239142E5
:1003400001D3891A034340084FEA4101F7D151B163
:10035000914202D14FF0004105E002D24FF001017D
:1003600001E06FF0010103EBC450284430BC00F001
:1003700081B92DE9FE4F81EA030404F0004421F025
:10038000004100944FF0000B23F0004350EA0104B9
:100390005ED052EA03045BD0C3F30A54C1F30A559A
:1003A0002C44A4F2F3340194A0FB0254C1F31301D2
:1003B00041F48011C3F3130343F4801301FB02449F
:1003C00000FB034E840A970A44EA815447EA8357A4
:1003D000A4FB076802958D0A05FB07854FEA932C5D
:1003E00004FB0C542705029D4FEA065847EA1637CE
:1003F000B5EB08056EEB070C870E920E47EA8117E6
:1004000042EA8312A7FB0201B6EB0B0164EB000486
:100410002B0D43EA0C335E1844EB1C50DA46514670
:10042000E7FB0201C5F313044FEA0B3343EA14530D
:100430004FEA0432019C43EA0603A4F10C0402943F
:10044000009CCDE900B400F05BF903B0BDE8F08F8B
:1004500000200146F9E72DE9F04D81EA030404F09C
:10046000004B21F0004514464FF0000A23F00041F4
:1004700050EA050220D054EA01021DD0C5F30A5704
:100480000246C5F31303C1F31300C1F30A5640F447
:10049000801543F48013A7EB0608101BD64608F21C
:1004A000FD3873EB050002D308F1010801E0921852
:1004B0005B41B8F1000F03DA00200146BDE8F08D82
:1004C00000204FF48011064684460EE0171B73EBA4
:1004D000050705D3121B63EB050306434CEA010C29
:1004E00049084FEA300092185B4150EA0107EDD10C
:1004F00052EA030012D082EA040083EA05010843AD
:1005000005D0101BAB4106D20122002306E00022D9
:100510004FF0004302E06FF0010253101AEB0600A7
:100520004CEB085110EB0A0041EB0B01BDE8F04D1C
:1005300000F0D7B8C10F80EAE0700844CA079623DC
:10054000002100F0A0B896230022114600F09BB8CD
:100550000EB540F2334102910021CDE900110A4667
:100560000B4600F0CDF803B000BD00F0004220F0D3
:100570000040C10DC0F3160040F400007F2901DAED
:1005800000207047962903DCC1F19601C84001E0C4
:1005900096398840002AF4D04042704720F000404D
:1005A000C10DC0F3160040F400007F2901DA0020DD
:1005B0007047962903DCC1F19601C840704796390F
:1005C00088407047C1F30A5210B5C1F3130140F2DD
:1005D000FF3341F480119A4201DA002010BD40F24D
:1005E00033439A42A2F2334203DC524200F032F823
:1005F00010BD904010BD00F0004230F000400AD025
:10060000C10D01F56071C0F3160042EA0151C20844
:1006100040071143704700200146704701F0004336
:1006200030B421F0004150EA010206D00A0DA2F5D3
:100630006072C1F31301002A02DC30BC0020704755
:10064000440F44EAC104C100E01830BC00EBC250C2
:1006500000F010B8202A04DB203A21FA02F0002131
:10066000704721FA02F3D040C2F1200291400843C2
:10067000194670470029A8BF7047401C490008BFB1
:1006800020F00100704710B4B0FA80FC00FA0CF0C2
:1006900050EA010404BF10BC704749B1CCF12004FA
:1006A00021FA04F411FA0CF118BF01212143084387
:1006B000A3EB0C01CB1D4FEA00614FEA102042BFB3
:1006C000002010BC704700EBC35010440029A4BFA9
:1006D00010BC7047401C490008BF20F0010010BC4E
:1006E000704710B5141E73F1000408DA401C41F184
:1006F000000192185B411A4301D120F0010010BDA6
:100700002DE9F04D92469B4611B1B1FA81F202E01B
:10071000B0FA80F22032904600F03AF904460F46D3
:1007200040EA0A0041EA0B0153465A46084313D0F7
:10073000114653EA010019D0C8F140025046FFF7B4
:1007400089FF05460E4650465946424600F020F9BC
:10075000084305D0012004E020463946BDE8F08D6D
:100760000020054346EAE0762C4337430A986305A8
:10077000E40AA0EB08000022FD0A44EA47540A30CC
:1007800002D500200146E9E7010510196941DDE9BC
:10079000084500196941BDE8F04DA2E72DE9FE4F7B
:1007A000804681EA0300C00F0C46009021F0004112
:1007B00023F00045B8EB0200A94105D2404621468E
:1007C00090461C460B46024623F00040104347D09B
:1007D000270DC7F30A00C3F30A510290401A019093
:1007E00040286BDAC3F3130040F4801B0098924654
:1007F00020B10023D2EB030A63EB0B0B019859469F
:10080000C0F14002504600F0C3F806460D4650467F
:100810005946019A00F0CBF810EB08006141002422
:1008200087EA115284EAE7731A4340D0009A62B310
:10083000019A012A4FEA075215DC001B61EB020105
:100840004FF0004202EA0752CDE90042001C41F598
:10085000801132462B46FFF753FF03B0BDE8F08FFF
:1008600040462146F9E7001B61EB0201001C41F5FF
:10087000801300185B412018A2F5001747EB030115
:1008800040EAD570B6196D4111E06D084FEA3606A1
:1008900045EAC0754FEA0752001B61EB0201001CDC
:1008A00041F5801149084FEA3000001951413246A4
:1008B0002B4603B0BDE8F04FFFF713BF00980122AD
:1008C00040000023D0EB020263EBE0730098214666
:1008D0004FEAE074B8EB000061EB0401E9E783F054
:1008E00000435BE781F0004158E770B521F0004319
:1008F00003430CD0C1F30A550024D5EB040564EB87
:100900000403D617AD1AB34102DB0020014670BDC7
:10091000201841EB025170BD0EB5C10F80EAE070A6
:100920000844CA07002140F233438DE80E000A460E
:100930000B46FFF7E5FE03B000BD000030B5041E16
:1009400071F1000404DB4FF00044404264EB01010C
:10095000141E73F1000405DB1C464FF000435242A5
:1009600063EB0403994208BF904230BD064C074D2B
:1009700006E0E06840F0010394E80700984710346F
:10098000AC42F6D3FFF7D8FB30E9000850E9000885
:10099000202A04DB203A00FA02F10020704791403F
:1009A000C2F1200320FA03F3194390407047202A34
:1009B00006DBCB17203A41FA02F043EAE07306E087
:1009C00041FA02F3D040C2F1200291400843194697
:1009D00070472DE9F04D00231A461B1A8A4103DBAC
:1009E00000200146BDE8F08DC1F30A52C1F31301A6
:1009F00041F480154FF0000BD10702D100186D4172
:100A0000521E0027044640F2FF11384601EB620AED
:100A10003E468046024600204FF48011FFF71AFE42
:100A2000C2197141BB1846EB0100B4EB030C75EB26
:100A3000000C04D3E41A65EB000517460E46241992
:100A400008F101006D4180463428E3DDF91946EBD9
:100A50000600091BA84103D24FF0FF32134601E004
:100A6000002213461BEB070046EB0A51BDE8F04D90
:100A7000FFF737BE70B58C1810F8015B15F007034F
:100A800001D110F8013B2A1106D110F8012B03E027
:100A900010F8016B01F8016B5B1EF9D12B0705D42F
:100AA0000023521E0DD401F8013BFAE710F8013B78
:100AB000CB1A921C03E013F8015B01F8015B521E94
:100AC000F9D5A142D8D3002070BD000070B590B018
:100AD0000121084603F080FE0121480203F0A6FE32
:100AE000294E304600F024FB2848059028480690FF
:100AF0000024079402250895099480210A91480052
:100B00000B9080000C9020200D9000020E900F940E
:100B100005A9304600F0A8FB009401208DF80400E0
:100B20008DF805004FF46020029003948DF810506A
:100B3000164C69464C3C204600F052F8072301222F
:100B40000B21204600F070F8072302220C212046DA
:100B500000F06AF80121204600F028F80121204623
:100B600000F018F8204600F099F8204600F031F81F
:100B70000028FAD1204600F0A2F8204600F022F822
:100B80000028FAD110B070BD080002404C2401408A
:100B900040000020002904D0816841F001018160FB
:100BA0007047816821F0010181607047002904D0FD
:100BB000816841F4807181607047816821F480719F
:100BC00081607047014600208968490700D50120EF
:100BD0007047014600208968090700D50120704749
:100BE00010B542680E4B1A400C790B6842EA042299
:100BF0001343436082680B4B1A40D1E902432343FD
:100C00004C7942EA440213438360C26A22F47002C0
:100C1000097C491EC9B242EA0151C16210BD0000FF
:100C2000FFFEF0FFFDF7F1FF70B5072609290AD98D
:100C3000C568A1F10A0404EB4404A640B543A340EF
:100C40001D43C56007E0056901EB4104A640B543BB
:100C5000A3401D4305611F23072A09D2446B521E7E
:100C600002EB820293409C4391400C43446370BD6D
:100C70000D2A09D2046BD21F02EB820293409C43DF
:100C800091400C43046370BDC46A0D3A02EB8202CA
:100C900093409C4391400C43C46270BD816841F015
:100CA000080181607047002904D0816841F4A001E7
:100CB00081607047816821F4A0018160704781687C
:100CC00041F004018160704770B505460C46284626
:100CD00001F08AFB08B1848070BD0C200BF074FA1F
:100CE00078B1056084800021C1808160064A116965
:100CF00011B9106170BD11468A68002AFBD1886065
:100D000070BD002070BD000044000020FEE7000020
:100D10002DE9F05F83460024DFF8B4A0DAF8000084
:100D200020F00F00CAF80000DAF8000040F00800D8
:100D3000CAF800000025274E4FF4FA79A046012793
:100D40006006040EC6F88C71484600F008FC0121CC
:100D5000504601F065FF08B144F00104C6F88C81EB
:100D6000484600F0FCFB6D1CEDB2082DE8D3DAF824
:100D7000000020F00F00CAF80000DAF8000040F090
:100D80000300CAF80000144DBBF1000F02D0C5F8F3
:100D9000808101E0C5F88071484600F0E0FBC6F8AC
:100DA0008C71484600F0DBFBC6F88C81C5F8807179
:100DB000DAF8000020F00F00CAF80000DAF80000AE
:100DC00040F00800CAF800002046BDE8F09F00008F
:100DD0000008014000002242000021422DE9F05F9E
:100DE0000546DFF8B0B0DBF8000020F00F00CBF8CC
:100DF0000000DBF8000040F00300CBF80000002406
:100E0000DFF89480254EA14601274FF4FA7A280690
:100E100002D5C8F8807101E0C8F88091504600F012
:100E20009EFBC6F88C71504600F099FBC6F88C9179
:100E30006806050E504600F092FB641CE4B2082CD4
:100E4000E5D3C8F88071DBF8000020F00F00CBF884
:100E50000000DBF8000040F00800CBF8000050462E
:100E600000F07DFBC6F88C71504600F078FB012144
:100E7000584601F0D5FE08B1002400E00124504698
:100E800000F06DFBC6F88C91504600F068FB2046E0
:100E9000BDE8F09F0008014000002142000022420E
:100EA0002DE9F041124C206820F00F0020602068EE
:100EB00040F0030020600F4D012028600E4E30608E
:100EC0004FF4FA78404600F04AFB00272F60404676
:100ED00000F045FB3760404600F041FB206820F001
:100EE0000F002060206840F008002060BDE8F0811D
:100EF00000080140800121428C0122422DE9F04787
:100F0000144C206820F00F002060206840F003009F
:100F10002060114E4FF00008C6F800800F4D0127E9
:100F2000C5F88C714FF4FA79484600F018FB376029
:100F3000484600F014FBC5F88C81484600F00FFBD2
:100F4000206820F00F002060206840F0080020603A
:100F5000BDE8F087000801408001214200002242E4
:100F6000002302E0C2545B1CDBB28B42FAD3704711
:100F700010B5202000F05CF9002827D0144C402147
:100F8000204607F02DF90028F9D0102000F0B6F81F
:100F900020880F49091D088800228021204607F07B
:100FA00015F900210B4800F0B5F80B490022CA7171
:100FB00001228A7140F22551204607F0F3F8BDE87E
:100FC00010404FF48061054801F038BE10BD0000AC
:100FD000004800401C00024018000020001401409E
:100FE00010B54FF4005000F023F900281CD00F4C2E
:100FF0004021204607F0F4F80028F9D04FF4805043
:1010000000F07CF8218820460849091D0988002243
:10101000802107F0DBF80021054800F07BF8054847
:10102000002101710121C17010BD00000038014094
:10103000440002401800002010B54FF0007000F08E
:10104000F7F800281CD00F4C4021204607F0C8F8C4
:101050000028F9D04FF0807000F050F82188204629
:101060000849091D09880022802107F0AFF80021F6
:10107000054800F04FF8054800214170012101703A
:1010800010BD000000440040800002401800002015
:1010900010B5144800F0CCF8002821D0124C4021A3
:1010A000204607F09DF80028F9D0104800F026F8F7
:1010B000218820460C49091D09880022802107F05B
:1010C00085F800210A4800F025F80A4800218172BD
:1010D00001214172BDE810404902074801F0AEBD50
:1010E00010BD000000000210004C00400000011084
:1010F0005804024018000020000C0140C10002D535
:101100000249086070470249486070470404024081
:1011100000000240002904D0016841F00101016093
:10112000704701684FF6FE72114001607047000081
:1011300001684FF6FE7211400160002101604160BC
:101140008160C1603649364A0839904204D1486806
:1011500040F00F0048607047314A1432904204D189
:10116000486840F0F000486070472D4A28329042AD
:1011700004D1486840F4706048607047284A3C32A7
:10118000904204D1486840F4704048607047244A57
:101190005032904204D1486840F470204860704753
:1011A0001F4A6432904204D1486840F4700048609D
:1011B00070471B4A7832904204D1486840F0706012
:1011C00048607047174A111F904204D1086840F0E8
:1011D0000F0008607047134A1432904204D1086827
:1011E00040F0F000086070470E4A2832904204D167
:1011F000086840F47060086070470A4A3C329042C8
:1012000004D1086840F4704008607047054A5032C5
:101210009042FAD1086840F47020086070470000DE
:101220000800024008040240406880B27047000095
:1012300002460020D10002D50449096801E00449B2
:101240000968114200D001207047000000040240EC
:1012500000000240002A03D002680A43026070477F
:1012600002688A430260704730B5026847F6F0733F
:101270009A430C6A8B682343D1E904452C432343EA
:101280008C692343CC6923434C6A23438C6A2343F0
:1012900013430360CA6842600A6882604968C1609B
:1012A00030BD00002DE9F0438BB00121084603F06A
:1012B00093FADFF8A89000214846FFF72BFF484635
:1012C000FFF736FF264F0097264801901020029026
:1012D0004FF48078CDF80C80002404948025059587
:1012E0000694079408944FF4405609960A94694668
:1012F0004846FFF7B9FF6801FFF700FF00214846A5
:10130000FFF708FF012202214846FFF7A3FFDFF89D
:101310004C90002109F114094846FFF7FBFE4846AE
:10132000FFF706FF0097104801900294CDF80C805B
:101330000494059506940794089409960A946946BE
:101340004846FFF791FF6802FFF7D8FE01214846A3
:10135000FFF7E0FE0BB0BDE8F08300004400024060
:10136000043801401D0C00209D0700202DE9F043AA
:101370008BB00121084603F02FFADFF8A890002176
:101380004846FFF7C7FE4846FFF7D2FE264F0097B4
:1013900026480190102002904FF48078CDF80C8000
:1013A00000240494802505950694079408944FF42E
:1013B000405609960A9469464846FFF755FF680467
:1013C000FFF79CFE00214846FFF7A4FE0122022100
:1013D0004846FFF73FFFDFF84C900021A9F11409C0
:1013E0004846FFF797FE4846FFF7A2FE00971048D1
:1013F00001900294CDF80C8004940595069407940E
:10140000089409960A9469464846FFF72DFF680339
:10141000FFF774FE01214846FFF77CFE0BB0BDE8E4
:10142000F083000080000240044400401D0B0020B7
:101430009D06002010B58CB00121084603F0CCF9C0
:10144000154C00212046FFF765FE2046FFF770FE91
:1014500012480190124802901020039080220492BA
:101460000021059106920791089109914FF440508F
:101470000A900B9101A92046FFF7F6FE1020FFF716
:101480003DFE00212046FFF745FE012202212046B5
:10149000FFF7E0FE0CB010BD1C0002400448004005
:1014A0001D0D00202DE9F0418CB0224F01972248FC
:1014B0000290102003908025049500240594069541
:1014C00007940894099446020A960B94DFF86C80FE
:1014D00001A94046FFF7C8FE1948FFF70FFE00219B
:1014E0004046FFF717FE012202214046FFF7B2FEF9
:1014F0000197144802900394049505940695079467
:10150000089409940A960B940C4C01A9283C204697
:10151000FFF7AAFE0C48FFF7F1FD01212046FFF777
:10152000F9FD012202212046FFF794FE0CB0BDE830
:10153000F0810000044C00409D0D00205804024042
:10154000000001101D0900200001001070474FF439
:10155000FA51484300E0401E0028FCD1704700EBE0
:101560008000800000E0401E0028FCD17047002869
:1015700001D0002101607047FEB50446012000F053
:10158000ABF806208DF8080001268DF809600025CB
:101590008DF80A500CB1012100E000218DF80B10EC
:1015A00002A802F019FC012000F096F800210220A8
:1015B00001F0A0FA00968DF804500C208DF805007B
:1015C0000CB1012000E000208DF80600684600F014
:1015D000A1F8FEBD06480549007831F81020521CDC
:1015E00021F81020012000F077B80000C8E90020A1
:1015F000AB00002070473EB50446022000F06CF8B6
:1016000007208DF8080001208DF8090000258DF8CD
:101610000A500CB1012100E000218DF80B1002A846
:1016200002F0DAFB022000F057F80121002001F05F
:1016300061FA022000908DF804500C208DF805000E
:101640000CB1012000E000208DF80600684600F093
:1016500061F83EBD0848074A007832F81010491C6E
:1016600022F810100548417D491C4175022000F008
:1016700033B8000042EA0020AB0000201800002030
:1016800070B54FF48025284605F0EAFE104804F0B6
:10169000D2FF0F4CE178090703D51421284605F045
:1016A000D1FEE178C80605D532214FF4002005F0BF
:1016B000C9FE05E0880603D51421284605F0C2FEC0
:1016C000034804F0B8FFBDE87040102000F004B8F3
:1016D0009406002070470000014908607047000030
:1016E000140401401CB51020FFF7F6FF042102206E
:1016F00001F000FA1020009000208DF804000C206A
:101700008DF8050001208DF80600684600F002F80B
:101710001CBD000030B51B4A83790168002B2AD01C
:1017200013688B431360111D0B680468A3430B609F
:10173000017911440B68046823430B60114C083491
:101740002168036899432160231D19680568A9432E
:1017500019604179102905D011440A6800680243D4
:101760000A6030BD21680268114321601968006871
:101770000143196030BD0079104402688A43026059
:1017800030BD0000000401407047704741F27071A5
:101790004FF4006005F056BE41F288314FF480509E
:1017A00005F050BE41F270714FF4006005F04ABE82
:1017B0007047704741F288314FF4805005F042BEC7
:1017C0002DE9F047054689460B2348A2294648469D
:1017D0000AF030FD484C84F84C0004F1D800407801
:1017E000042807D10C2345A2294648460AF022FDC9
:1017F00084F84C0094F84C0000284BD03E494844F3
:101800009B3150F8012F0A6000694860084609F0D2
:1018100001FD24F86A0F38489F3009F0FBFC608016
:1018200034F86A194FF40073A1F50452374E0227B9
:101830004FF480489A422FD2D31702EB13723E34F2
:10184000C2F30F122286C1F342016186304B03EBD3
:10185000C20358540B44000A58702E4B322003EB3D
:10186000820303EB510318702A4B803303EB82028F
:1018700002EB5101087080213046FEF78EFC357076
:10188000701C2A464946FEF76FFC9621404605F03B
:10189000D9FD2770BDE8F087A1F50C529A42F9D323
:1018A000A1F51451B1F5907FF4D2CA1701EB9271F2
:1018B0003E34C1F38F012186174A02F8110002EB72
:1018C0004102000A5070154A0520505480210F48EB
:1018D000FEF763FC3570701C2A464946FEF744FC4F
:1018E0009621404605F0AEFD2770D3E77B226D655B
:1018F00074686F64223A2200580000207B22636FD4
:101900006D6D616E64223A220000000015190020FE
:1019100012E4002026E6002012E50020A00E0020A0
:1019200070B5254C4FF4804094F82710002904D05E
:10193000BDE87040322105F085BD94F821100429DE
:1019400006D029B1BDE870404FF4FA7105F07ABDB8
:10195000042184F8211094F820204FF4967542B1A8
:10196000042A0DD00020052A22D004F8200F607030
:1019700070BD84F820102946BDE8704005F062BDB6
:101980000C210E480AF000FD0B4894F84F109030DF
:1019900007F016F908490A4890310BF091FA052032
:1019A00084F820002946BDE87040102005F04ABDAB
:1019B00004F8200F607070BD580000202F02002036
:1019C000151100202DE9FC5FFE4E96F82700002837
:1019D00007D0BDE8FC5F4FF4FA614FF4805005F08A
:1019E00031BD96F82100032808D038B1BDE8FC5F6E
:1019F0004FF4FA714FF4805005F024BD032786F8A8
:101A00002170F04896F824400222DFF8B8A30025A0
:101A1000DFF8B4E3D30190F820004FF006094FF04F
:101A200005084FF0040B0AF1D80A41F28831072C5F
:101A300077D2DFE804F076040F445271EF002036CD
:101A4000327132704FF496714FF4805005F0FAFC09
:101A5000BDE8FC9F1946DD48FEF79FFB01208DF88D
:101A600004008DF805504FF41264D84B012201A9EF
:101A700020460AF0B1F901469AF80100042806D17F
:101A8000D24B012201A920460AF001FA0146CF48B3
:101A90000AF07AFC2036CB4896F82F108D3007F0EC
:101AA0008FF8C849CA488D310BF00AFA3771377080
:101AB0004FF496714FF4805005F0C4FCC8E720360F
:101AC00086F804B035707570B5714FF4805005F02C
:101AD000B9FCBDE7641C86F82640DFF8ECC296F836
:101AE00026400CF1410CA4449CF820C0BCF1000F2E
:101AF00008D10EEB040C9CF820C0BCF1000F01D102
:101B0000202CE7D396F826C0BCF1200F59D248B15B
:101B1000022812D0032848D0DFF8ACC20CF1410CE7
:101B200060E00DE186F8202086F824B04FF496712D
:101B30004FF4805005F086FC8AE71946A348FEF76B
:101B40002CFBA44D4FF4045805EBC40108EB041022
:101B50009E4B04220AF040F901469AF8010004283D
:101B60000AD196F82600994B05EBC00108EB00104E
:101B700004220AF08CF9014694480AF005FC9148C9
:101B800096F84F108D3007F01BF88E4990488D3134
:101B90000BF096F986F824B086F820704FF4967111
:101BA0004FF4805005F04EFC52E7203686F804B022
:101BB00035707570641CB4714FF4805005F042FCB0
:101BC00046E7203686F8048086F802803570757006
:101BD000B57196214FF4805005F034FC38E7641C51
:101BE00086F8264096F826401CF804B0BBF1000F9A
:101BF00006D11EF804B0BBF1000F01D1402CEED984
:101C000096F826C0BCF1400F79D830B102280FD029
:101C1000032864D0DFF8C0C17FE086F8202086F872
:101C200024804FF496714FF4805005F00BFC0FE7C1
:101C3000994649466548FEF7B0FA6448009096F820
:101C40002800DFF898B18006030E65480BEB84127C
:101C500000EB041109EB44100AF072F901469AF8FE
:101C60000100042811D15948009096F828005C49D9
:101C70008006030E96F826000BEB801201EB001194
:101C800009EB40100AF0F8F9014650480AF07CFBD5
:101C90004C4896F84F108D3006F092FF49494C4859
:101CA0008D310BF00DF996F8280058B120363572B9
:101CB00086F8048037704FF496714FF4805005F029
:101CC000C1FBC5E601202036307286F804803570ED
:101CD00075704FF49671000305F0B4FBB8E620363A
:101CE00086F80480357075703572641CB4714FF4D9
:101CF00096714FF4805005F0A5FBA9E6FFE720366A
:101D000086F8049035707570B5714FF4805005F009
:101D100099FB9DE6641C86F8264096F826401CF840
:101D20000480B8F1000F01D1492CF3D396F826C0F6
:101D3000BCF1490F6BD240B1022811D003285AD010
:101D40004FF4805005F07EFB82E686F8202086F86E
:101D500024904FF496714FF4805005F073FB77E6B2
:101D600019461A48FEF719FA174D4FF41458923DC8
:101D700005EB440108EB8400144B01220AF02CF817
:101D800001469AF8010004280AD196F826000F4B64
:101D900005EB400108EB800001220AF078F80146CB
:101DA0000A480AF0F1FA074896F84F108D3006F00D
:101DB00007FF044906488D310BF082F886F822901F
:101DC00010E0000058000020A4E500209517002036
:101DD0001511002012E40020A00E0020841B00201A
:101DE00002E0002086F820704FF496714FF4805086
:101DF00005F028FB2CE6203686F8049035707570C7
:101E0000641CB4714FF4805005F01CFB20E60120E7
:101E10002036307135707570B5719621000305F06C
:101E200011FB15E607480021017041700122027183
:101E3000FF22C270417141F288314FF4805005F0A9
:101E400001BB0000780000202DE9F04105460D227D
:101E50001648C379047A467A24E0885CCC281FD1DE
:101E6000881810F8037C9F421AD110F8027CA74210
:101E700016D110F8017CB74212D1114410F8052C8C
:101E800011F8061C062303EB0222114489B20A381A
:101E900009F0B4FE0649022081F83E00BDE8F08159
:101EA000521CD2B2AA42D8D3F8E7000095170020FE
:101EB0005800002070B5224D4FF4804495F827005B
:101EC000002805D02046BDE87040322105F0BABA9E
:101ED00095F82110022907D031B12046BDE87040A5
:101EE0004FF4FA7105F0AEBA022085F8210095F89A
:101EF00020204FF4967642B1042A0FD00020052A04
:101F000019D005F8200F687070BD042085F82000F6
:101F100031462046BDE8704005F094BA09A10A4850
:101F20000AF0CEFF052085F8200031462046BDE8A6
:101F3000704005F087BA05F8200F687070BD00008A
:101F40005800002030323700951800202DE9F05F4E
:101F5000DE4C94F82700002807D0BDE8F05F4FF46E
:101F6000FA614FF4805005F06DBA94F8210003280F
:101F700008D038B1BDE8F05F4FF4FA714FF48050EB
:101F800005F060BA032784F82170D048CF490023B8
:101F900090F824000426CE4DDFF838E391F8202095
:101FA0004FF006084FF005094FF0020A4FF0010B01
:101FB00041F2883C072870D2DFE800F06F0410403F
:101FC00056BFD30084F824A084F820A0BDE8F05FB9
:101FD0004FF496714FF4805005F034BA19202871EF
:101FE0002020287509206875AE75EB752B766B7609
:101FF00085F81AB0EB76B64811210B3000F028FEB8
:102000002877000A6877DD20A877A87D1B30203468
:10201000C1B284F83110AD488D3006F0D1FDAB4926
:10202000AB488D310AF04CFF27712770BDE8F05F97
:102030004FF496714FF4805005F004BA20342671A5
:1020400023706370252028712B752120687510205E
:10205000A875EB75A3716146BDE8F05F000205F05D
:10206000F1B9491C84F826109A4894F8261041309A
:10207000084490F8200030B90EEB010090F82000E1
:1020800008B92029EDD394F8260020283ED22AB1A1
:10209000022A0FD0032A2CD04FE0C3E084F820A0FE
:1020A00084F82460BDE8F05F4FF496714FF48050DF
:1020B00005F0C8B92B7521206875102006F038FD91
:1020C000A87D1B302034C1B284F831107F488D3098
:1020D00006F076FD7D497E488D310AF0F1FE2671CD
:1020E0002770BDE8F05F4FF496714FF4805005F013
:1020F000A9B92034267123706370491CA17161460F
:10210000BDE8F05F4FF4805005F09CB9203484F8AE
:10211000049023706370352028712B7585F815B0F5
:102120002020A875EB75A371BDE8F05F9621C00172
:1021300005F088B9401C84F82600664994F826000A
:102140004131095C21B91EF8001009B94028F1D9C4
:1021500094F8261040293FD82AB1022A0FD0032A2A
:102160002CD05D484FE084F820A084F82490BDE88E
:10217000F05F4FF496714FF4805005F063B92B7502
:1021800085F815B008F0C6FFA87D1B30C1B284F8F1
:1021900051104E488D3006F013FD4C494C488D319E
:1021A0000AF08EFE84F8249084F82070BDE8F05F79
:1021B0004FF496714FF4805005F044B9203484F800
:1021C000049023706370401CA0716146BDE8F05F0D
:1021D0004FF4805005F036B9203484F80480237021
:1021E0006370192028712B7525206875AE75EB7505
:1021F000A3716146BDE8F05F4FF4805005F022B94D
:10220000491C84F8261094F82610465C0EB949291A
:10221000F6D394F82660492E4BD252B1022A14D03C
:10222000032A32D06146BDE8F05F4FF4805005F0DC
:1022300009B984F820A084F82480BDE8F05F4FF449
:1022400096714FF4805005F0FDB82B752520687508
:10225000042006F037FCA87D1B30C1B284F8511071
:102260001A488D3006F0ACFC184919488D310AF037
:1022700027FE84F8248084F82070BDE8F05F4FF4D6
:1022800096714FF4805005F0DDB884F8248084F80E
:10229000203084F82130425C0AB1521E4254491C5D
:1022A00084F82610BDE8F05F96214FF4805005F0C9
:1022B000C9B8203484F804B023706370A371BDE8FA
:1022C000F05F96214FF4805005F0BCB85800002014
:1022D00095170020A4E50020A00E002070B505464B
:1022E0004FF43026304600F06FF8042811D1094C25
:1022F000206940F0020020616561206940F04000E3
:102300002061304600F060F8216941F6FD7211400D
:10231000216170BD0020024004200849CA68D2072C
:1023200001D001207047CA68520701D502207047CA
:10233000C968C906FBD50320704700000020024091
:102340000248016941F080010161704700200240AC
:1023500004490A6822F010020A600A6802430A600F
:102360007047000000200240F0B506460D464FF4CD
:102370000057384600F028F804280CD1064C206994
:1023800040F0010020613580384600F01DF82169D9
:10239000BA1E11402161F0BD00200240034A1168BD
:1023A00001F0380101431160704700000020024035
:1023B0000348024941600349416070472301674572
:1023C00000200240AB89EFCD00B50346FFF7A4FF24
:1023D00002E0FFF7A1FF5B1E012801D1002BF8D11D
:1023E000002B00D1052000BD01460548006903E02F
:1023F00002688A4202D080680028F9D17047000044
:102400004400002010B504461046002304EBC4022B
:1024100002EB0412054C04EB820403E024F81300E1
:102420005B1CDBB28B42F9D310BD0000161A0020F2
:1024300010B50346002003E013F8014B0C54401C78
:102440009042F9DB10BD00002DE9F8438046894633
:10245000154604200090FFF7ABFF4FEAD8274FEA5C
:10246000C727C8F30A00C0F50060854201D80126DD
:1024700005E0281A410504D0022101EBD0260024F2
:1024800009E0012101EBD026F9E707EBC420FFF7B3
:1024900025FF0090641CB442F7D39DF80000042887
:1024A00003D04FF0FF30BDE8F8832A46494608487C
:1024B000FDF75AFEE80701D0681C00E0284682B20A
:1024C0000349404600F006F8FFF73AFF2846EAE7DE
:1024D000FC390020F8B506460D461746042000904A
:1024E000002408E029883046FFF73EFF0090A41C36
:1024F000A4B2B61CAD1CBC4203D29DF80000042857
:10250000F0D03846F8BDFEB5002000900190029052
:1025100000F092FD502000F035FDAC2000F032FDBF
:1025200000F0B2FD6420FFF712F800F085FD5120A5
:1025300000F028FD012000F0C7FCADF800000446C3
:10254000012000F0C1FCADF802000546012000F0BA
:10255000BBFCADF804000646012000F0B5FCADF868
:102560000600002000F0B0FCADF8080000F08CFD83
:10257000C4F34110022802D04FF6FF70FEBD46EAB8
:10258000052080B2FEBDFEB50020009001900290B3
:1025900004F090FB502004F0F1FBAC2004F0EEFBC3
:1025A00004F0B8FB6420FEF7D2FF04F083FB512057
:1025B00004F0E4FB012004F0FFFAADF8000004464B
:1025C000012004F0F9FAADF802000546012004F0FC
:1025D000F3FAADF804000646012004F0EDFAADF878
:1025E0000600002004F0E8FAADF8080004F092FBC1
:1025F000C4F34110022802D04FF6FF70FEBD46EA38
:10260000052080B2FEBDFEB5002000900190029032
:10261000FEF746FC5020FEF7E1FBAC20FEF7DEFBA8
:10262000FEF76CFC6420FEF792FFFEF739FC5120A8
:10263000FEF7D4FB0120FEF76BFBADF8000004466B
:102640000120FEF765FBADF8020005460120FEF70C
:102650005FFBADF8040006460120FEF759FBADF81C
:1026600006000020FEF754FBADF80800FEF746FC1C
:10267000C4F34110022802D04FF6FF70FEBD46EAB7
:10268000052080B2FEBD3EB5002000900190029072
:1026900000F0D2FC502000F075FCAC2000F072FC81
:1026A00000F0F2FC6420FEF752FF00F0C5FC512060
:1026B00000F068FC012000F007FCADF800000446C3
:1026C000012000F001FCADF802000546012000F0F9
:1026D000FBFBADF80400002000F0F6FBADF80600AF
:1026E00000F0D2FC14F0C00F02D04FF6FF703EBDD8
:1026F00045EA042080B23EBDFEB500200090019066
:10270000029004F0D7FA502004F038FBAC2004F01B
:1027100035FB04F0FFFA6420FEF719FF04F0CAFA53
:10272000512004F02BFB012004F046FAADF8000024
:102730000446012004F040FAADF8020005460120ED
:1027400004F03AFAADF804000646002004F034FA2A
:10275000ADF80600074604F0DDFA14F0C00F02D011
:102760004FF6FF70FEBD45EA042080B2024A47EAF8
:10277000062189081180FEBDD60000203EB500204C
:10278000009001900290FEF78BFB5020FEF726FB95
:10279000AC20FEF723FBFEF7B1FB6420FEF7D7FE6B
:1027A000FEF77EFB5120FEF719FB0120FEF7B0FA81
:1027B000ADF8000004460120FEF7AAFAADF80200C9
:1027C00005460120FEF7A4FAADF804000020FEF74C
:1027D0009FFAADF80600FEF791FB14F0C00F02D08F
:1027E0004FF6FF703EBD45EA042080B23EBD0000BA
:1027F0002DE9F84F01217D2002F018F80121082071
:1028000000F0E0F90121B54800F0DCF90120ADF855
:10281000000010258DF8035003248DF8024069460E
:10282000AF4800F07BF90121AD4800F007FA4FF006
:102830004008ADF800808DF803508DF802406946DD
:10284000A74800F06BF90121A64800F0F7F9A802AB
:10285000ADF800008DF803508DF802406946A2489B
:1028600000F05CF9A902A04800F0E8F96802ADF8B0
:1028700000008DF803508DF8024069469A4800F038
:102880004DF96902984800F0D9F9EE02ADF8006000
:102890008DF803508DF802406946934800F03EF9E8
:1028A0003146914800F0CAF94FF40079ADF8009034
:1028B00018278DF803708DF8024069468B4800F0A8
:1028C0002DF94FF4806AADF800A004268DF803605E
:1028D0006946864800F022F92020ADF800008DF806
:1028E00003708DF8024069467F4800F017F9ADF893
:1028F00000808DF8036069467B4800F00FF9ADF861
:1029000000508DF803708DF802406946764800F05B
:1029100005F91021744800F091F90820ADF8000085
:102920008DF803606946704800F0F8F84FF0800BAE
:10293000ADF800B08DF803708DF8024069466A4822
:1029400000F0ECF88021684800F07AF92801ADF831
:1029500000008DF803708DF802406946624800F06F
:10296000DDF8ADF800908DF8036069465E4800F030
:10297000D5F8ADF800A08DF803508DF802406946F7
:10298000594800F0CBF8ADF800A08DF803708DF831
:102990000240DFF85CA16946504600F0BFF8E8014C
:1029A000ADF800008DF803606946504600F0B6F8B7
:1029B000ADF800908DF803508DF802406946494803
:1029C00000F0ACF82802ADF800008DF803708DF827
:1029D00002406946504600F0A1F8ADF800608DF85D
:1029E00003606946404800F099F82801ADF80000FE
:1029F0008DF803508DF8024069463A4800F08EF891
:102A0000ADF800808DF803508DF8024069463548D6
:102A100000F084F84021334800F010F97C20ADF834
:102A2000000048278DF8037069462D4800F076F8BD
:102A3000ADF800508DF803508DF8024069462B48E0
:102A400000F06CF81021294800F0FAF8ADF80050B9
:102A50008DF803706946504600F060F8ADF800B09C
:102A60008DF803508DF8024069461E4800F056F874
:102A70000620ADF8000000208DF80300694650469E
:102A800000F04CF80820ADF800008DF803508DF8E8
:102A900002406946504600F041F80120ADF80000C0
:102AA0008DF803608DF802406946504600F036F814
:102AB000ADF800408DF803608DF8024069460B4880
:102AC00000F02CF8ADF800B08DF803508DF80240FE
:102AD0006946034800F022F8BDE8F88F3000140082
:102AE00000180140000C01400014014000080140A2
:102AF0000010014010B58A07120F0F23934021F0F8
:102B00000304054921448C689C438C608B68904089
:102B100003438B6010BD0000000001402DE9F0412F
:102B20000022CC7804F00F03E40601D58C7823430F
:102B30000C784FF00F0714F0FF0F4FF0010C1CD072
:102B400005680CFA02F40E882640A64211D19600C0
:102B500007FA06F825EA080503FA06F848EA050523
:102B6000CE78282E02D0482E02D002E0446100E048
:102B70000461521C082AE4D305600A88FF2A1ED982
:102B80004568002202F108060CFA06F40E88264079
:102B9000A64210D1960007FA06F825EA080503FABE
:102BA00006F848EA0505CE78282E00D14461CE7893
:102BB000482E00D10461521C082AE3D34560BDE8C9
:102BC000F0810000F0B5154C002801DAE36900E05F
:102BD0006368C0F30346420D120185B2C0F301578A
:102BE0009540032F07D0C2020CD50322B240934375
:102BF00043F0706209E023F07062636823F0706351
:102C0000636002E0AB4343F0706201B12A430028E5
:102C100001DAE261F0BD6260F0BD00000000014039
:102C20000246002092680A4200D001207047024606
:102C30000020D2680A4200D00120704741617047ED
:102C400001617047002A01D00161704741617047FE
:102C5000F0B5134AFF2353709370002302F84939EB
:102C6000104DA5F5807611E010F8013B12F84A7F6F
:102C70007B405383EF5C92F801C087EA0C07177022
:102C8000F35C5370641C02F8014C4A3A92F84940D4
:102C90008C42E9D312F84A0F517840EA0120F0BD86
:102CA000A100002041E70008F0B5B2B000250024E3
:102CB000194F6E4637F810308B4200D20B469342C4
:102CC00000D9134626F81430641CE4B2642CF1D306
:102CD0000021481C0446C0B20BE036F8112036F83B
:102CE00010309A4203D326F8113026F81020401CE9
:102CF000C0B26428F1D3E1B26429EAD3282036F8BF
:102D000010100D44401CC0B23C28F8D31420B5FB71
:102D1000F0F032B080B2F0BD4000002070B5FEF798
:102D2000BFF86220FEF75AF85220FEF757F8FEF778
:102D3000E5F841F28830FEF712FCFEF7B1F86320A7
:102D4000FEF74CF84FF4FA652846FEF708FC012020
:102D5000FDF7DEFF2846FEF702FC0120FDF7D8FF55
:102D600004462846FEF7FBFB0020FDF7D1FF054691
:102D7000FEF7C4F845EA042070BD000070B508F005
:102D800025FB060B00F00F0100F4706041EA101003
:102D90000F2E1DD0FDF7DCFB04460D463046FDF737
:102DA000D7FB02460B4600204FF0804109F0ACFBF8
:102DB000094A0A4BFDF7DDFA22462B46FDF7D9FA00
:102DC0000022074BFDF747FBFDF7FCFB80B270BD0F
:102DD0004FF6FF7070BD00000AD7A3703D0AA73FF1
:102DE00000002440FEE7000070B5144DE87B122877
:102DF00016D1A5F194010878401CC0B208700528CE
:102E000000D9FEE70E48018821F0200101800D4C19
:102E1000012020604FF4FA60FEF7A1FB0020206043
:102E2000E87E0F2808D10949074809780170BDE8F4
:102E30007040012005F0F4BC70BD0000300100209E
:102E4000200C00408C0122421D0C002018E60008D6
:102E500010B5012001F004FE612001F0BBFD002847
:102E6000FAD045F2555000F029F8032000F01AF886
:102E700040F6B83000F01CF800F00CF8BDE8104047
:102E8000AFF3008002494CF6CC4008607047000068
:102E90000030004002494AF6AA200860704700004E
:102EA0000030004001494860704700000030004099
:102EB0000149886070470000003000400149086007
:102EC00070470000003000402DE9F04782460024A2
:102ED000DFF8A890D9F8000020F00F00C9F8000032
:102EE000D9F8000040F00800C9F800000025244E81
:102EF000A04601276006040EC6F88C710520FEF777
:102F00002EFBD6F8000108B144F00104C6F88C810C
:102F10000520FEF724FB6D1CEDB2082DEAD3D9F88D
:102F2000000020F00F00C9F80000D9F8000040F0C0
:102F30000300C9F80000BAF1000F02D0C6F8808182
:102F400001E0C6F880710520FEF709FBC6F88C7118
:102F50000520FEF704FBC6F88C81C6F88071D9F80D
:102F6000000020F00F00C9F80000D9F8000040F080
:102F70000800C9F800002046BDE8F08700100140B5
:102F8000000022422DE9F0470546DFF8A490D9F869
:102F9000000020F00F00C9F80000D9F8000040F050
:102FA0000300C9F800000024224EA046012728068D
:102FB00002D5C6F8807101E0C6F880810520FEF7D1
:102FC000CEFAC6F88C710520FEF7C9FAC6F88C81D6
:102FD0006806050E0520FEF7C2FA641CE4B2082C50
:102FE000E5D3C6F88071D9F8000020F00F00C9F8C9
:102FF0000000D9F8000040F00800C9F800000520E2
:10300000FEF7ADFAC6F88C710520FEF7A8FAD6F8DF
:10301000000108B1002400E001240520FEF79FFA1A
:10302000C6F88C810520FEF79AFA2046BDE8F087A5
:10303000001001400000224270B5114C206820F0C1
:103040000F002060206840F0030020600D4D01203B
:103050002860E8600520FEF782FA00262E60052031
:10306000FEF77DFAEE600520FEF779FA206820F081
:103070000F002060206840F00800206070BD000054
:1030800000100140800122422DE9F041114C2068DE
:1030900020F00F002060206840F0030020600E4DFB
:1030A00000262E600127EF600520FEF758FA2F60FA
:1030B0000520FEF754FAEE600520FEF750FA20686E
:1030C00020F00F002060206840F008002060BDE87C
:1030D000F08100000010014080012242F0B5002480
:1030E00000230EE0CD18CE5C6F7846EA0726AF7855
:1030F000ED783F0447EA05652E4340F82460641CE0
:103100001B1D9342EED3F0BD70B50023002411E0E7
:1031100011F82350055531F823502E0A05196E7009
:1031200051F82360360CAE7051F82360360EEE7005
:103130005B1C241D9442EBD370BD00007CB505469A
:103140000E462888C0F3C500382802D2C0F13804E2
:1031500001E0C0F17804082229466846FFF7D4FF51
:1031600022460849284600F0BFFB08226946284647
:1031700000F0BAFB102205F108013046FFF7C4FF4A
:103180007CBD0000C80500200021016041600549A8
:1031900081600549C1600349C94301610249C943CE
:1031A000416170470123456789ABCDEF2DE9F041BF
:1031B000C0B00446D4F800806568A668E76840227D
:1031C0006846FFF78BFF05EA060027EA050108437A
:1031D000FE4908440099414408444FEA706041198F
:1031E00001EA050026EA01021043F94A1044019A57
:1031F0003A4410444FEA3050431803EA010025EAEC
:1032000003021043F34A1044029A324410444FEA36
:10321000F030184400EA030221EA00063243EE4E81
:103220003244039E35442A444FEAB222024402EA61
:10323000000523EA02063543E84E3544049E314436
:1032400029444FEA7161114401EA020520EA0106AE
:103250003543E34E3544059E33442B444FEA335304
:103260005D1805EA010322EA05063343DD4E3344C7
:10327000069E304418444FEAF030431903EA050033
:1032800021EA03063043D84E3044079E32441044AE
:103290004FEAB020C21802EA030025EA02063043D2
:1032A000D24E3044089E314408444FEA7060811881
:1032B00001EA020023EA01063043CD4E3044099E64
:1032C000354428444FEA3050084400EA010522EA18
:1032D000000635430A9EA5F524454F3D33442B4453
:1032E0004FEAF3331D1805EA000321EA05063343CC
:1032F000C04E33440B9E32441A444FEAB2222A4451
:1033000002EA050320EA02063343BB4E33440C9E17
:10331000314419444FEA71618B1803EA020125EA2E
:1033200003063143B54E31440D9E304408444FEA04
:103330003050C11801EA030022EA01063043B04EC2
:1033400030440E9E354428444FEAF030084400EAE9
:10335000010523EA00063543AA4E35440F9E324448
:103360002A444FEAB222151805EA010220EA0106B2
:103370003243A54E3244019E33441A444FEAF2626E
:103380002A4402EA000325EA000633439F4E3344F1
:10339000069E314419444FEAF1518B1803EA0501A6
:1033A00022EA050631439A4E31440B9E30440844CC
:1033B0004FEAB040C11801EA020023EA0206304396
:1033C000944E3044009E354428444FEA303008443F
:1033D00000EA030521EA030635438F4E3544059E76
:1033E00032442A444FEAF262024402EA010520EA2A
:1033F00001063543894E35440A9E33442B444FEA37
:10340000F353134403EA000522EA00063543844ED1
:1034100035440F9E314429444FEAB141194401EA31
:10342000020523EA020635437E4E3544049E3044AD
:1034300028444FEA3030084400EA030521EA030635
:103440003543794E3544099E32442A444FEAF262AC
:10345000024402EA010520EA01063543734E354471
:103460000E9E33442B444FEAF353134403EA000502
:1034700022EA000635436E4E3544039E314429440A
:103480004FEAB141194401EA020523EA0206354335
:10349000684E3544089E304428444FEA3030084492
:1034A00000EA030521EA03063543634E35440D9EC9
:1034B00032442A444FEAF262024402EA010520EA59
:1034C000010635435D4E3544029E33442B444FEA9A
:1034D000F353134403EA000522EA00063543584E2D
:1034E0003544079E314429444FEAB141194401EA69
:1034F000020523EA02063543524E35440C9E304401
:1035000028444FEA30300844059D4F4E154480EA68
:1035100001025A4032442A444FEA32720244089D62
:103520004A4E1D4482EA00034B4033442B444FEA89
:10353000735313440B9D464E0D4483EA02014140F0
:10354000314429444FEA314119440E9D414E05440E
:1035500081EA03005040304428444FEA7020084478
:10356000019D3D4E154480EA01025A4032442A44EE
:103570004FEA32720244049D384E1D4482EA000331
:103580004B4033442B444FEA73531344079D344E4E
:103590000D4483EA02014140314429444FEA31415C
:1035A000CD180A992F4E014485EA0300504030445B
:1035B00008444FEA702028440D992B4E0A4480EAB3
:1035C000050159403144114450E0000078A46AD705
:1035D00056B7C7E8DB702024EECEBDC1AF0F7CF537
:1035E0002AC68747134630A8019546FDD8988069BA
:1035F000AFF7448BBED75C892211906B937198FD15
:103600008E4379A62108B44962251EF640B340C016
:10361000515A5E26AAC7B6E95D102FD6531444024C
:1036200081E6A1D8C8FBD3E7E6CDE121D60737C3B1
:10363000870DD5F4ED145A4505E9E3A9F8A3EFFC8D
:10364000D9026F678A4C2A8D4239FAFF81F6718759
:1036500022619D6D0C38E5FD44EABEA4A9CFDE4B86
:10366000604BBBF670BCBFBEC67E9B284FEA317173
:103670000144009A854E134481EA00026A403244B4
:103680001A444FEA72525318039A814E154483EA42
:103690000102424032442A444FEA32421A44069D13
:1036A0007C4E054482EA03004840304428444FEAF7
:1036B00070201044099D784E0D4480EA0201594063
:1036C000314429444FEA317101440C9D734E1D442D
:1036D00081EA0003534033442B444FEA73535D188F
:1036E0000F9B6F4E134485EA0102424032441A4454
:1036F0004FEA32422A44029B6A4E034482EA0500A2
:103700004840304418444FEA702083180098664EB1
:10371000014463EA05005040304408444FEAB06079
:1037200018440799614E0D4460EA02015940314442
:1037300029444FEAB1510D180E995D4E0A4465EACD
:1037400003014140314411444FEA71412944059A33
:10375000584E134461EA00026A4032441A444FEA68
:10376000F2220A440C9B544E034462EA050048408E
:10377000304418444FEAB0601044039B4F4E1D4440
:1037800060EA0103534033442B444FEAB3531D18FE
:103790000A9B4B4E0B4465EA0201414031441944F7
:1037A0004FEA71414B190199464E0A4463EA000100
:1037B0006940314411444FEAF121CA180899424E38
:1037C000014462EA05005840304408444FEAB060C2
:1037D00081180F983D4E054461EA03005040304483
:1037E00028444FEAB05045180698394E034465EA1C
:1037F00002004840304418444FEA704028440D9B72
:10380000344E134460EA01026A4032441A444FEADB
:10381000F2220244049B304E0B4462EA050141400F
:10382000314419444FEAB16111440B9B2B4E1D44A6
:1038300061EA0003534033442B444FEAB3530B4433
:10384000029D274E054463EA020048403044284464
:103850004FEA70401844099D224E154460EA010267
:103860005A4032442A444FEAF2220244256829444D
:103870002160616811446160A1680844A060E0684B
:103880001844E06040B0BDE8F0810000FA27A1EAEA
:103890008530EFD4051D880439D0D4D9E599DBE60D
:1038A000F87CA21F6556ACC4442229F497FF2A4332
:1038B000A72394AB39A093FCC3595B6592CC0C8FC2
:1038C0007DF4EFFFD15D84854F7EA86FE0E62CFE8E
:1038D000144301A3A111084E827E53F735F23ABD7D
:1038E000BBD2D72A91D386EB2DE9F047054688460F
:1038F000164600242968C1F3C500C0F1400701EB5A
:10390000C6012960B1EBC60F02D26968491C696023
:10391000696801EB56716960BE421AD328441830B9
:103920003A464146FCF720FC05F1080005F1180174
:103930008146FFF73BFC3C4605E008EB04014846A6
:10394000FFF734FC3C4604F140000746B042F4D98E
:103950000020321B284408EB0401BDE8F047183072
:10396000FCF702BC10B504460020CA1701EB5263F5
:1039700023F07F02891ACAB2D911002901DD42F071
:103980008002034600F10100E254EEDC10BD0000AD
:10399000401C802801DA401C7047B0F5804F01DAE6
:1039A000801C70470349884201DAC01C7047001D23
:1039B00070470000FFFF1F002DE9FE4305460F463C
:1039C00014460295002601960096204600F092F8D3
:1039D0008046FFF7DDFFB84202DDB01EBDE8FE8382
:1039E0008DF80460019820F0F000103001909DF8EF
:1039F000041002A80AF0D8FD41460298FFF7B2FF72
:103A0000029908440290207A042813D035A102A814
:103A10000AF0B6FD032102A80AF0C6FD8DF8006089
:103A2000A17E009861F341000090E17E59B140F021
:103A300004000AE02DA102A80AF0A2FD042102A8B8
:103A40000AF0B2FDEAE720F004000090410708D533
:103A500094F83D1061F3C40094F83C1061F34510F4
:103A60000090206C08B9A06C18B1009840F080005C
:103A70000090E06C08B9606D18B1009840F040000B
:103A800000909DF8001002A80AF08EFD218B02A87C
:103A90000AF090FDD4E9042302A8E1680AF099FD38
:103AA000E07E58B1D4E90A2302A8616A0AF091FDC8
:103AB000D4E90D2302A8216B0AF08BFD009E30068D
:103AC00005D5D4E9112302A8216C0AF082FD700605
:103AD00004D54C3402A80ECC0AF07BFD0298401BA2
:103AE0007CE700004D514973647000004D515454FF
:103AF0000000000070B504460025207A032802D09B
:103B0000042802D002E00C2500E00A25D4E90412C2
:103B1000E06800F0DAF80544AD1CE07E68B1D4E955
:103B20000A12606A00F0D1F8D4E90D120646206B43
:103B300000F0CBF8304405442D1D206C08B9A16C71
:103B400029B1D4E9111200F0C0F80544AD1CE06CB5
:103B500008B9616D29B1D4E9141200F0B6F8054432
:103B6000AD1C284670BD2DE9FE4F0546DDE90C9AD7
:103B7000129E0F4690461C460295002001900EA909
:103B800000960EC9204600F032F88346FFF700FF8A
:103B9000B84203DD6FF00100BDE8FE8F302068F30E
:103BA000C30064F3420069F3000001909DF8041023
:103BB00002A80AF0F9FC59460298FFF7D3FE0299D1
:103BC000084402900EA902A80EC90AF002FD002CBA
:103BD00003DD514602A80AF0EDFC32461199029825
:103BE000FCF7C2FA029830440290401BD4E77FB53C
:103BF0000546089C01A807C800F067F82044801C0F
:103C0000002D00DD801C04B070BD2DE9FF4F83B096
:103C10000646DDE91189109F8A46934602960025E3
:103C2000019500244146384600F039F80090FFF72E
:103C3000AFFE504503DDA01E07B0BDE8F08F8DF844
:103C40000450019820F0F00080306BF3C30020F0A6
:103C50000600801C01909DF8041002A80AF0A4FC44
:103C600000990298FFF77EFE02990844029002A88C
:103C700006990AF09FFC0DE004EB440008EB800578
:103C800002A80ECD0AF0A5FC19F8241002A80AF02B
:103C90008BFC641CBC42EFDB0298801BCCE72DE957
:103CA000F04106460F460225002409E004EB4400DB
:103CB00007EB800307CB00F008F80544ED1C641CFB
:103CC000B442F3DB2846BDE8F08117B40098002821
:103CD00003D000981EBCFCF77DBA01981EBC70474B
:103CE000FEE7704738B54FF4A06000F0A7F8252034
:103CF0008DF8000001248DF801408DF802408DF808
:103D00000340684600F068F826208DF800008DF822
:103D100001408DF802408DF80340684600F05CF8E1
:103D200027208DF800008DF801408DF802408DF8B5
:103D30000340684600F050F834208DF8000002255A
:103D40008DF801508DF802408DF80340684600F070
:103D500043F835208DF800008DF801408DF80240C1
:103D60008DF80340684600F037F80A208DF800000F
:103D700003208DF801008DF802408DF8034068465D
:103D800000F02AF811208DF800008DF801408DF820
:103D900002508DF80340684600F01EF81C208DF894
:103DA00000008DF801408DF802408DF80340684610
:103DB00000F012F832208DF8000000208DF801008C
:103DC0008DF802008DF80340684600F005F80021E8
:103DD000E00600F03DF838BD70B50F23C27801262B
:103DE0000178002A1ED0144A126802F4E062C2F57B
:103DF000E062120AC2F10404D3404578A5408278FB
:103E00001A402A43120101F1E02181F800240078D0
:103E100000F01F018E404009800000F1E020C0F852
:103E2000006170BD01F01F0086404809800000F16C
:103E3000E020C0F8806170BD0CED00E0024908434D
:103E400002490860704700000000FA050CED00E030
:103E5000024A1140014302480160704780FFFF1F82
:103E600008ED00E004480168044A01F4E0611143F0
:103E70000160BFF3408FFEE70CED00E00400FA059F
:103E800030B43348324A4FF47A71037852784FF4A1
:103E90000060062B58D2DFE803F0030C233A51549C
:103EA00022B92B4B0022D83B83F8252030BC03F0ED
:103EB000C9BA012A08D0022A09D0032A0AD0042A42
:103EC0000BD030BC03F0BEBA30BC06F061BB30BCD6
:103ED00006F05EBB30BC06F05BBB30BC06F058BBE6
:103EE000012A08D0022A09D0032A0AD0042A0BD0BA
:103EF00030BC03F0A7BA30BC07F01EBC30BC07F0E2
:103F00001BBC30BC07F018BC30BC07F007BC012A52
:103F100008D0022A09D0032A0AD0042A0BD030BCC8
:103F200003F090BA30BCFDF77DBF30BCFDF72EBC6E
:103F300030BCFDF72BBC30BCFDF734BC30BC03F00B
:103F400081BA30BC03F07EBA30BC03F07BBA00000B
:103F5000300100202DE9FC4700200090019002F084
:103F6000A9FE002002F00AFFAA2002F007FF0020AD
:103F700002F004FF802002F001FF02F0CBFE1E20C1
:103F8000FDF7E5FA02F096FE012002F0F7FE0120AF
:103F900002F012FE012002F00FFE0546012002F0A1
:103FA0000BFE0646012002F007FE0746012002F044
:103FB00003FE0446012002F0FFFD8046002002F0CF
:103FC000FBFD814602F0A6FE280400EB06203844E3
:103FD000C0F30F20210401EB0821034A4944090AD8
:103FE0001180BDE8FC870000D60000202DE9FC47C9
:103FF000002000900190FFF71FF80020FEF7C2FF9D
:10400000AA20FEF7BFFF0020FEF7BCFF8020FEF7CE
:10401000B9FFFFF739F81E20FDF799FAFFF70CF802
:104020000120FEF7AFFF0120FEF74EFF0120FEF753
:104030004BFF05460120FEF747FF06460120FEF72D
:1040400043FF07460120FEF73FFF04460120FEF72D
:104050003BFF80460020FEF737FF8146FFF714F84C
:10406000280400EB06203844C0F30F20210401EBA4
:104070000821034A4944090A1180BDE8FC87000071
:1040800050040020704700002DE9F04F97B004461F
:10409000DFF81C84DFF81CA4E0074FF00007A8F14C
:1040A000D8064FF001057CD07B2000F093FC00285F
:1040B00078D04FF00009DFF800B410220BEB0910A4
:1040C000FE49FCF751F809F1010909F0FF09B9F1BE
:1040D0001F0FF2D94FF02009F8490BEB09101022FD
:1040E0001031FCF741F809F1010909F0FF09B9F1B4
:1040F0003F0FF1D91022F149F148FCF735F8F048AB
:104100004FF480711030FCF748F82021ED48FCF79F
:1041100044F84121EC48FCF740F8EB484121413894
:10412000FCF73BF8E84880214130FCF736F8E648D8
:104130008021C130FCF731F84021E448FCF72DF82C
:10414000E24840214030FCF728F8DF489221D3387C
:10415000FCF723F8DD4810218030FCF71EF84FF4FF
:104160009671DB48FCF719F87A21DA48FCF715F864
:10417000D8487A217A30FCF710F8D6487A21F43002
:10418000FCF70BF8C821D448FCF707F8CF48B42156
:104190009030FCF702F80020CE4942F2DE6264392A
:1041A00001E084E11FE021F81020401CC0B2642827
:1041B000F6D30020C84A42F2DF5142F82010401CDA
:1041C000C0B2C828F9D3C1480A2240218038FBF781
:1041D000DDFFBE48032240214038FBF7D7FFB64839
:1041E000801E0770477000F03DFB09F013FB07F0DD
:1041F00037FD96F8320038B102F032FA40F6B831A5
:104200004FF4003003F01EF94FF400715046FEF7F2
:1042100015FD4FF480715046FEF710FDAA4998F83D
:104220000B00413981F84000032086F8230086F80E
:1042300020708021A948FEF703FDA948076098F87F
:10424000010004283BD101A8FEF79EFF9B484021B6
:104250002030FBF7A2FF964998F89B209C3101F58E
:104260001170FBF781FF954998F89B0020310844B5
:1042700098F8BC20A1F22321FBF776FF8F4820306D
:10428000FBF7A8FF8D490246203101A8FFF72CFB60
:10429000944901A8FEF752FF4FF00009DFF844B23D
:1042A0009048103000EB49011BF8090004F076FC3F
:1042B00009F1010909F0FF09B9F10F0FF0D940F632
:1042C000B83949464FF4005003F0BCF849464FF462
:1042D000006003F0B7F898F80B0000287ED098F83B
:1042E0000C00811F012903D90A2801D01C2816D1EE
:1042F0007D490A6822F00F020A600A6842F008024B
:104300000A60CD6007280AD17848056077481438DC
:10431000016841F0010101600120FDF72DF998F8D5
:104320000F00062808D0072806D00A2804D00C2839
:1043300002D0002101BB01E00121FBE717281BD0BF
:104340000021DFF8ACB1DFF8A8910BF10C0B01B341
:10435000D9F8001021F0F001C9F80010D9F80010C8
:1043600041F08001C9F800100221CBF800100728A5
:1043700004D0172802D00CE00121E2E75B4801607D
:104380005A481438016841F0020101600120FDF72C
:1043900032F998F81800811F012901D90A2818D18B
:1043A000D9F8001021F00F01C9F80010D9F8001059
:1043B00041F00801C9F80010CBF80050072808D1D7
:1043C0000221480703F026FB02210122480703F0DF
:1043D0008DFC98F80C0007280CD000E060E098F8FD
:1043E0000F00072806D098F81800072802D00020F0
:1043F000D0B901E00120FBE798F80F00172813D08F
:10440000002060B10121880703F004FB012211465E
:10441000900703F06BFC0121880703F0FEFA98F87F
:104420000F00122802D027E00120EAE7D9F80000A7
:1044300020F0F000C9F80000D9F8000040F080003A
:10444000C9F80000CBF80070DFF8A89004214846B6
:1044500003F0E0FA0121484603F0DCFA012211469C
:10446000484603F043FC01220421484603F03EFC89
:104470000121484603F0D1FA09F098F840F6C4113A
:104480004FF4001002F0DEFF40F628214FF48000C8
:1044900002F0D8FF41F288314FF4000002F0D2FF61
:1044A00077704FF6E8514FF4004002F0CBFF23E065
:1044B00030010020000C014002E00020F003002049
:1044C00002E40020F50E0020E5E50020A6E700202C
:1044D000161A00204EE90020BCEA00200018014016
:1044E0008C012242D1380020001001401404014008
:1044F00000080140000C0040DFF87C920121484692
:10450000FEF795FBC0F10100C2B201214846FEF75B
:1045100099FB200606D5994805709A489849007875
:1045200000F0FAFCA00604D5974996F8410000F087
:1045300085FC600610D595480178491ECAB2944999
:1045400001F8012B057086F841208F48FBF70CFE1F
:104550000321202002F076FF200401D506F03AFE68
:10456000A00401D502F0AEFDE00301D508F0DCFDAA
:10457000200517D596F82500401CC0B286F8250006
:10458000462803D985F31388FFF76CFC86F83B7047
:104590004FF4804002F064FF4FF4805002F060FF5F
:1045A000FFF76EFCE0040ED596F83C000A2800D315
:1045B000FEE798F80010022903D811B1401C86F8D4
:1045C0003C0008F0EDFC20070ED506F83C7F714852
:1045D0000570B77071487049007800F06FFBB078D3
:1045E0003C3EA0B186F83F70200207D5FEF7FCFBE9
:1045F00040F6B8314FF4000002F024FFA0072AD59E
:1046000098F80000DFF89891032809D011E096F897
:104610003F00401CC0B286F83F001428E4D9FEE7F2
:104620006048057086F840705F4999F8000000F016
:104630007BFA98F81B000F2804D15B4999F8000019
:1046400000F0F0FA98F81B001F2804D1564999F899
:10465000000000F081FA600401D509F06BF9E00672
:1046600001D507F047FB96F83200E8B34F4F6003DF
:1046700018D5002239784E48FCF772FC002141F22F
:104680000D2002F0FBF9012141F20E2002F0F6F9B3
:1046900003200090002201900823114696F829007B
:1046A00002F00BFA200306D5414801F0E5FF38700F
:1046B0003F4901F0CFFEA0034FF4802710D54021E1
:1046C0005046FEF7B4FAC0F10100C2B24021504694
:1046D000FEF7B8FA02F03AF83221384602F0B2FE9C
:1046E000E00212D5402100E00FE05046FEF79FFAAD
:1046F000C0F10100C2B240215046FEF7A3FA08F013
:1047000021FE7821384602F09DFEA00207D509F06F
:104710004DF94FF448714FF4001002F093FE60021F
:1047200007D508F053FF4FF4FA614FF4800002F010
:1047300089FEA00506D51F4805701F4996F842005E
:1047400001F04EFD600513D51C480178491ECAB220
:104750001B4901F8012B057086F842201648FBF72B
:1047600003FD17B00121BDE8F04F480202F06ABE18
:1047700017B0BDE8F08F00000018014021000020B4
:104780001513002023000020151200202000002017
:104790009D08002018000020151000201A0000209D
:1047A0001D0000201B000020150F00203C000020F1
:1047B00014060020240000201515002026000020EB
:1047C0001D0A0020034A516821F440410143516011
:1047D0007047000000100240054A002903D05169CB
:1047E0000143516170475169814351617047000035
:1047F00000100240054A002903D0D1690143D1616C
:104800007047D1698143D1617047000000100240B8
:10481000054A002903D011690143116170471169EC
:10482000814311617047000000100240054A0029D1
:1048300003D091690143916170479169814391610E
:104840007047000000100240054A002903D0D168DB
:104850000143D1607047D1688143D1607047000047
:10486000001002400248416A41F080714162704785
:104870000010024010B500F037F84FF480342046A5
:1048800000F0D2F800F020F916494870012822D132
:10489000002000F0BFF8002000F0F2F8A01100F0B6
:1048A000E5F80220FDF77AFD1020FDF751FD4FF4E9
:1048B000E011204600F0F4F8012000F0EBF8392078
:1048C00000F088F80028FAD0022000F0F3F800F099
:1048D00099F80828FBD1BDE810404FF44040FFF79D
:1048E00071BF00003E0000200C48016841F001014A
:1048F000016041680A4A114041600168094A11405B
:104900000160016821F480210160416821F4FE0109
:1049100041604FF41F0181607047000000100240A9
:104920000000FFF8FFFFF6FE10B5264A516801F0BF
:104930000C01254B002927D0042927D0082927D08E
:104940000360516801F0F0010909204B5C5C0168CB
:10495000E1404160546804F4E064240A1C5D21FADB
:1049600004F48460546804F46054E40A1B5DD94084
:10497000C160526802F44042920B144B1B1F9A5CB8
:10498000B1FBF2F1016110BD0360DAE70360D8E723
:10499000516801F47011536803F48033022404EB6E
:1049A000914133B153689B0307D5094B59430160CB
:1049B000C7E7074B59430160C3E7034B5943016005
:1049C000BFE700000010024000127A00040000203F
:1049D00000093D00034600205909094A01290AD06F
:1049E00002290AD0516A03F01F02012393400B42AF
:1049F00000D0012070471168F5E7116AF3E7000065
:104A0000001002400248406800F00C0070470000AF
:104A100000100240034A516821F0F0010143516047
:104A200070470000001002400C490A6822F48032EE
:104A30000A600A6822F480220A60B0F5803F07D03D
:104A4000B0F5802F03D1086840F4A02008607047BB
:104A5000086840F480300860704700000010024091
:104A6000014908607047000080044242034A5168CF
:104A700021F4E061014351607047000000100240E2
:104A8000034A516821F4605141EAC0005060704708
:104A900000100240014908667047000000004242D1
:104AA000034B5A6822F47C12084310435860704745
:104AB00000100240034A516821F003010143516094
:104AC000704700000010024018B5002000904FF41D
:104AD000A0643120FFF77EFF0099491C00910099E6
:104AE000A14201D00028F4D03120FFF773FF08B1B4
:104AF000012018BD002018BD10B5029C2070617007
:104B0000100AA070E270180A207163710621204615
:104B1000FEF79EF80349A1F86800A071000AE07151
:104B2000082010BD580000200A4A13785278032B41
:104B30000FD1012A07D0022A07D0032A07D0042A5E
:104B400007D1FCF735BEFDF77FB9FCF71DBEFCF7BA
:104B500037BE7047300100207FB50C460146204625
:104B6000FEF776F8002857D12078012854D16078D4
:104B7000032851D16079217940EA01204006040ED2
:104B8000102C49D8254841788DF8001001788DF80F
:104B90000110C1788DF8021081788DF803104179E9
:104BA0008DF8041001798DF80510C1798DF8061083
:104BB00081798DF80710417A8DF80810017A8DF807
:104BC0000910C17A8DF80A10817A8DF80B10417B9B
:104BD0008DF80C10017B8DF80D10C17B8DF80E1037
:104BE000807B8DF80F000E4D012028700320687027
:104BF000AC7022466946E81CFBF7B6FAE11C284671
:104C0000FEF726F82919C870000A087104B0601D63
:104C1000BDE8704003F004BE7FBD000002E4002048
:104C20001D0C0020F0B5022843D148780978214CAA
:104C300040EA0122A4F87820022084F8500004F110
:104C40008A05A97841B93221FDF7DCFBA4F8780088
:104C500094F8501001206854164E14F8500FD836AE
:104C6000A6F15407717F3954FD1C228D2B5C02F094
:104C70008DFC208514F850196A5C521CD2B26A541B
:104C80007B5C9A4201D300226A54317F01EB81019F
:104C90004900A4F85A10884201D9A4F87810B4F851
:104CA0007800081A03498031488003498873000A54
:104CB000C873F0BD5800002026E8002070B50546F6
:104CC0000E465D48A0F1D80403784278012B0FD03E
:104CD000022B7DD1012A6AD0022A7AD0032A79D008
:104CE000042A75D131462846BDE8704006F01CBD47
:104CF000012A0DD0022A20D0032A33D0042A67D1FA
:104D00003146284604F066FA94F83E00F0B344E0D9
:104D10003146284604F05EFA94F83E0018B9314650
:104D2000284605F03DFE94F83E00002850D131465B
:104D30002846BDE8704003F053BF3146284604F0D2
:104D400049FA94F83E0018B93146284604F0B4FBFD
:104D500094F83E0000286DD131462846BDE87040E9
:104D600003F03EBF3146284604F034FA94F83E0082
:104D700018B93146284604F03BFF94F83E0000285D
:104D800058D131462846BDE8704000E001E003F00C
:104D900027BF3146284604F02BFF94F83E00002838
:104DA00048D131462846BDE8704003F019BF31466E
:104DB000284606F033FB94F83E0018B931462846E1
:104DC00005F0EEFD94F83E00002833D1314602E0B4
:104DD00030E005E019E02846BDE8704003F000BF70
:104DE0003146284606F01AFB94F83E0018B93146C1
:104DF000284604F061FB94F83E0000281AD13146A1
:104E00002846BDE8704003F0EBBE3146284606F068
:104E100005FB94F83E0018B93146284604F0E8FE38
:104E200094F83E00002805D131462846BDE8704080
:104E300003F0D6BE70BD00003001002070B50C46F6
:104E400001462046FDF704FF002831D120782E4985
:104E5000405422782D4801211154217800F5C17069
:104E600000250D5478214FF4005002F0EBFA6178E0
:104E7000032902D006290BD01BE020782449401ECC
:104E800001EB0010A278E11CBDE87040FBF76CB9A3
:104E9000A07870B9E278032A0BD82078212808D3AB
:104EA000402806D819492138833101EB8000155478
:104EB00070BD1029FCD12078164A212807D3E1784B
:104EC000042904D30F2902D8117E012910D0E178DA
:104ED000A1F11003112B02D8137E022B0CD0223922
:104EE0000129E5D8107E0328E2D182F8335070BD45
:104EF00008497231455470BD517D401A0549C83189
:104F0000084400F8015C70BDA5E70020A3E500207F
:104F100002E00020580000202DE9FC5F0C4601460D
:104F20002046FDF795FE00287DD12078FB490191B0
:104F3000A1F69E7BA1F69E110027F94EF94D4FF088
:104F400014094FF4C06A4FF001080091EE286BD0AD
:104F500012DC40F6B83AEA2819D008DCDFF8C8932A
:104F6000ABF6E46A51287CD052287BD1FAE3EB28D7
:104F700079D0EC28F9D10BE1A0F1EF01052971D22C
:104F8000DFE811F051029E035D041105C30560784E
:104F9000062820D00328C7D1A0780128C4D1E07802
:104FA0008028C1D10220A070A87AE0702771052165
:104FB0002046FDF74DFEA5F862006071000AA07161
:104FC00020683060A088B080A079B071BDE8FC5F37
:104FD000072003F075BC20683060606870600820AE
:104FE00003F06EFCE078A17840EA0120A5F85600B5
:104FF0004FF4C07B58454DD20C21B0FBF1F2B0FB11
:10500000F1F3DFF828C302EB420201FB13030CEBC0
:10501000C202267902F81360B0FBF1F202EB420201
:105020000CEBC20201E061E092E1B0FBF1F301FBA5
:10503000130302EB430263795370AA7FEB7F9A421A
:1050400006D0B0FBF1F32B75B0FBF1F36B75EA778B
:10505000B0FBF1F22B7DD21AD2B22A74B0FBF1F37D
:1050600002E0FDE3FDE343E001FB13014900697445
:10507000AF4B02EB420C03EBCC0326795E54194490
:1050800066794E70A749933101F80290091D01F825
:105090000290AF7258451FD12079E8B185F80A8097
:1050A00085F8188085F819804FF4005002F0D8F97F
:1050B0004FF4003002F0D4F951464FF4803002F042
:1050C000C1F951464FF4801002F0BCF94FF4407220
:1050D00096499848FDF7B8F9B5F85600A0F58071E3
:1050E000813903D12079002800D0A877BDE8FC9F42
:1050F0006178914F062901D1A278A2B30329F5D195
:10510000A1780029F2D18D4E30706078707060798E
:105110004000B07060794200E07807EB4001F01C7D
:10512000FBF722F86079032101EB40013046FDF7DF
:105130008FFDA5F86200617906EB4101C8706179C5
:10514000000A06EB410108716079052505EB400274
:1051500031467348FBF708F8607905EB4000BDE87D
:10516000FC5F03F0ADBB20683060606870600820B1
:1051700003F0A6FBE178207907F81100E178607967
:1051800007EB41014870E1786D4A05205054ADE7C6
:105190006078062820D00328A8D1A0780428A5D1BB
:1051A000E0788028A2D10220A070A87AE070277150
:1051B00005212046FDF74CFDA5F862006071000A4C
:1051C000A07120683060A088B080A079B071BDE87F
:1051D000FC5F072003F074BB20683060606870607B
:1051E000082003F06DFBE078A17840EA0120A5F8E3
:1051F00056004FF4906290424CD21221B0FBF1F372
:10520000B0FBF1F6DFF83CB103EBC30301FB16067C
:105210000BEB830394F804C003F816C0B0FBF1F362
:10522000B0FBF1F603EBC30301FB16060BEB8303A4
:1052300003EB460366795E702B7F6E7FB34206D028
:10524000B0FBF1F62E75B0FBF1F66E756B77B0FB27
:10525000F1F32E7D9B1BDBB22B74B0FBF1F601FB4F
:10526000160149006974324E03EBC30B603606EB3E
:105270008B0694F804C006F801C0314494F805C0C8
:1052800081F801C02749C83101F80390083101F8BD
:105290000390AF721646B04233D1207988B385F8B7
:1052A0000A80022028766876000302F0D9F84FF4CD
:1052B000003002F0D5F851464FF4803002F0C2F8C9
:1052C00051464FF4801002F0BDF80020154B1D4AE6
:1052D000D83303EB500191F80CC0111881F800C9C4
:1052E00081F80179801CC0B22428F2D332461549D6
:1052F0001548FDF7A9F840F2A44214480199FDF7BA
:10530000A3F8B5F85600A0F5806181397FF43FAF6E
:10531000207900283FF43BAF2877E7E622310020D0
:105320009D0D0020580000201D0D0020D1350020CB
:105330001516002000E8070812E5002015140020CB
:10534000A00E0020A22C002000D8070800E00708CB
:10535000E078A17840EA012860784FF402691028CB
:105360001AD1C84518D2A2794FEA5801FE4800EB7D
:105370008100E11DFAF7F8FE06212046FDF768FCE2
:10538000A5F86200A071000AE071206830606068D2
:105390007060082003F094FAC845BED160780628F2
:1053A00019D12079B8B12068306060687060082039
:1053B00003F086FA5246EC49EC48FDF745F85246B0
:1053C0005946EB48FDF740F84FF48862E9480099E8
:1053D000FDF73AF82F736078062808D1207930B9A4
:1053E0002068306060687060082003F069FA6078B7
:1053F000032892D10220A070287BE070277105213C
:105400002046FDF725FCA5F862006071000AA07136
:1054100020683060A088B080A079B071BDE8FC5FE2
:10542000072003F04DBA6078062840D1E0781D28A7
:105430003DD82068306060687060082003F040FA52
:10544000E078DFF834A3DFF83083DFF830930AF137
:105450000C0A0F2802D1207912282CD004214846AA
:1054600002F0D8FA0121484602F0D4FA00220121C4
:10547000484602F03BFC00220421484602F036FC7C
:105480000021484602F0C9FAD8F8000020F0F000E8
:10549000C8F80000D8F8000040F08000C8F800000C
:1054A0000220CAF80000E178B54A207950546078AB
:1054B000062825D031E0D8F8000020F0F000C8F828
:1054C0000000D8F8000040F08000C8F80000CAF8DA
:1054D00000700421484602F09DFA0121484602F07E
:1054E00099FA01221146484602F000FC01220421EB
:1054F000484602F0FBFB0121484602F08EFAD2E753
:10550000E0787C2809D1207985F832002068306065
:1055100060687060082003F0D3F96078102867D1C4
:10552000E07804F10F014D282FD006DC1F2809D0A8
:105530002A2812D039284BD11BE05C2831D06C28A6
:1055400046D13AE0A0798E4A08389077A2798C4803
:10555000083A1F30FAF708FE3AE0A079884A08387E
:1055600082F83400A2798648083A3530FAF7FCFD13
:105570002EE0A079824A083882F85300A279804848
:10558000083A5430FAF7F0FD22E0A0797C4A083856
:1055900082F87C00A2797A48083A7D30FAF7E4FD77
:1055A00016E0A079764A083882F89B00A279744800
:1055B000083A9C30FAF7D8FD0AE0A079704A08381A
:1055C00082F8BC00A2796E48083ABD30FAF7CCFDEB
:1055D00006212046FDF73CFBA5F86200A071000AF9
:1055E000E0712068306060687060082003F068F93E
:1055F000E0781E287FF4CBAD6078062838D120797A
:10560000B0B32068306060687060082003F058F91B
:105610005B48DF3000F5997151F8022C40F8022CFC
:10562000D1F80220C0F80220CA88C2800A7A027229
:10563000D1F80920C0F80920D1F80D20C0F80D20BC
:10564000B1F81120A0F81120CA7CC2744A694261E5
:105650008A6982618A8B8283897F8177484995F83C
:10566000320081F8FE00FF224648FCF7EDFEEF72A3
:105670006078062808D1207930B9206830606068E9
:105680007060082003F01CF960780328B2D1022072
:10569000A070E87AE070277105212046FDF7D8FA5E
:1056A000A5F862006071000AA07120683060A088CF
:1056B000B080A079B071BDE8FC5F072003F000B9AD
:1056C000607806282CD120683060606870600820FF
:1056D00003F0F6F8E0780F2806D82B4922790A540F
:1056E00085F8339085F83490E078102818D1207927
:1056F000B0B185F80A800320287668764FF4005010
:1057000001F0AEFE4FF4003001F0AAFE64214FF428
:10571000803001F097FE96214FF4801001F092FE48
:10572000607803281BD1A078C8B9E078102816D17A
:105730000220A070A87AE070277105212046FDF7AD
:1057400087FAA5F862006071000AA07120683060D5
:10575000A088B080A079B071072003F0B1F860781C
:10576000042813E024E30000841B002000B807088D
:1057700000C0070800C8070800080140000C0040EE
:105780003001002000B00708E00300207FF47EAF66
:105790000021FF4E20783070607870706079400092
:1057A000B070E078472812D8282800D320210020A4
:1057B000F84B09E0421813F802C006EB400282F8E9
:1057C00003C01771401CC0B262798242F2D8E078FF
:1057D0004D2813D36E2800D320210020ED4B4033F9
:1057E00009E0421813F802C006EB400282F803C039
:1057F0001771401CC0B262798242F2D860790321ED
:1058000001EB4001E248FDF723FAA5F86200617957
:1058100006EB4101C8706179000A06EB410108718D
:105820006079052505EB4002D949DB48FAF79CFC75
:10583000607905EB4000BDE8FC5F03F041B85246DB
:10584000D649D748FCF7F4FD52465946D548FCF7EF
:10585000EFFD4FF48862D4480099FCF7E9FD01E0C0
:1058600012E255E3E078A17840EA012960792179D4
:1058700040EA012A607803285AD140F64900814560
:1058800056D2BAF1010F53D9DFF804B320788BF860
:10589000000060788BF80100607940008BF802000E
:1058A0006020B9FBF0F000EB4001BC484FEA4A022F
:1058B00000EB81110BF10300FAF756FC607903212C
:1058C00001EB40015846FDF7C3F9A5F86200617984
:1058D0000BEB4101C8706179000A0BEB41010871C3
:1058E000052000EB4A0A52465946AB48FAF73CFC01
:1058F0001FFA8AF002F0E4FF6020B9FBF0F0AB4938
:1059000001F8008085F84580002095F845300A5C54
:105910001A4085F84520401CC0B21628F5D395F8EA
:105920004500012804D11621A048FAF736FC6F7310
:10593000A9F500604C387FF42AAC607806280AD1BB
:10594000207940B12068306060687060082002F003
:10595000B7FF85F80D806078062808D1207930B926
:105960002068306060687060082002F0A9FF6078ED
:105970000328E0D10220A070687BE0702771052128
:105980002046FDF765F9A5F862006071000AA07174
:1059900020683060A088B080A079B071BDE8FC5F5D
:1059A000072002F08DBF81494FF490621631804884
:1059B000FCF73EFD40F2A4427E480199FCF738FD19
:1059C000E078A17840EA01296079217940EA012A4A
:1059D000607804285ED140F29C4081455AD2BAF1E9
:1059E000010F57D9DFF8A8B120788BF80000607854
:1059F0008BF80100607940008BF802006C20B9FB45
:105A0000F0F06A4900EBC00000EB4000163101EBFA
:105A1000C0014FEA4A020BF10300FAF7A5FB6079D7
:105A2000032101EB40015846FDF712F9A5F8620089
:105A300061790BEB4101C8706179000A0BEB410100
:105A40000871052000EB4A0A524659465248FAF7B7
:105A50008BFB1FFA8AF002F033FF6C20B9FBF0F0E9
:105A6000554A02F8008085F84680002095F84630B7
:105A7000115C194085F84610401CC0B20B28F5D3C4
:105A800095F84600012805D14B480760476007811B
:105A90008772AF73A9F580609D387FF43EAC607863
:105AA00006280AD1207940B12068306060687060B3
:105AB000082002F005FF85F80E806078062808D1DE
:105AC000207930B92068306060687060082002F08A
:105AD000F7FE60780328E0D10220A070A87BE07078
