:020000040800F2
:10000000E848002045010008294F0008D52F0008C6
:10001000274F0008390D0008B9A2000800000000B1
:10002000000000000000000000000000A98B000894
:10003000C915000800000000D5520008C99000084A
:100040005F0100085F0100085F0100085F01000810
:100050005F0100085F01000855160008D916000866
:100060005F0100085F010008051700085F01000834
:10007000B90F00085F010008291000085F0100089F
:100080005F010008811000085F0100085F0100089F
:100090005F0100085F0100085F01000861170008A8
:1000A0005F0100085F0100085F0100085F010008B0
:1000B000899300085F0100085F0100085F010008E4
:1000C0005F0100085F0100085F0100085F01000890
:1000D0005F010008059C0008819C0008FD9C000849
:1000E000751600085F0100085F0100085F01000845
:1000F0005F0100085F0100085F0100085F01000860
:100100005F0100085F010008F19400085F0100082A
:10011000FD990008259B00085F0100085F010008A9
:100120005F0100085F0100085F010008D9100008A6
:10013000DFF80CD000F01AFC00480047C1E80008C6
:10014000E84800200648804706480047FEE7FEE7EB
:10015000FEE7FEE7FEE7FEE7FEE7FEE7FEE7FEE777
:10016000CD9000083101000840EA01039B0703D04D
:1001700009E008C9121F08C0042AFAD203E011F8E6
:10018000013B00F8013B521EF9D27047D2B201E0A8
:1001900000F8012B491EFBD270470022F6E710B58C
:1001A00013460A4604461946FFF7F0FF204610BDE5
:1001B00030B505462A460B4612F8010B13F8014BE1
:1001C00008B1A042F8D01CB1002802D06D1CF1E7A4
:1001D000284630BD421C10F8011B0029FBD1801AB3
:1001E0007047F0B480EA0102D40F4200B2EB410F35
:1001F00002D20246084611464A0042D0C30DDDB283
:10020000C1F3C752AD1A202D35DAC1F3160141F4FE
:10021000000204B15242C5F1200602FA06F12A4159
:100220001044B3EBD05F23D0C4B1012DA0EBC35079
:1002300009DCF0BC4FF0004202EAC352DBB200F529
:10024000000000F020BA400000F1807000EBC350C5
:10025000A0F1807040EAD170490009E0490841EA04
:10026000C071A0EBC35000F50000400800EBC35084
:10027000F0BC00F0FFB96142012202EB4101001B1A
:10028000F6E7F0BC704781F00041AAE780F000403B
:10029000A7E780EA010210B502F00043400022D037
:1002A0004A001FD0010E01EB1261C0F35600C2F3E9
:1002B000560240F4000042F40002A0FB02200004B9
:1002C0007F39140400D0401C50EA124001D4400091
:1002D000491EC2B20C0604EBD010401C4008802A14
:1002E00002D003E0002010BD20F00100002900DA58
:1002F0000020184310BD30B480EA010202F000452E
:1003000030F0004221F0004013D090B1C30DD40D65
:10031000C2F31601C0F31600E41A41F4000140F4E0
:1003200000027D34914201D3641C00E04900002C9E
:1003300002DA30BC002070474FF4000000239142E5
:1003400001D3891A034340084FEA4101F7D151B163
:10035000914202D14FF0004105E002D24FF001017D
:1003600001E06FF0010103EBC450284430BC00F001
:1003700081B92DE9FE4F81EA030404F0004421F025
:10038000004100944FF0000B23F0004350EA0104B9
:100390005ED052EA03045BD0C3F30A54C1F30A559A
:1003A0002C44A4F2F3340194A0FB0254C1F31301D2
:1003B00041F48011C3F3130343F4801301FB02449F
:1003C00000FB034E840A970A44EA815447EA8357A4
:1003D000A4FB076802958D0A05FB07854FEA932C5D
:1003E00004FB0C542705029D4FEA065847EA1637CE
:1003F000B5EB08056EEB070C870E920E47EA8117E6
:1004000042EA8312A7FB0201B6EB0B0164EB000486
:100410002B0D43EA0C335E1844EB1C50DA46514670
:10042000E7FB0201C5F313044FEA0B3343EA14530D
:100430004FEA0432019C43EA0603A4F10C0402943F
:10044000009CCDE900B400F05BF903B0BDE8F08F8B
:1004500000200146F9E72DE9F04D81EA030404F09C
:10046000004B21F0004514464FF0000A23F00041F4
:1004700050EA050220D054EA01021DD0C5F30A5704
:100480000246C5F31303C1F31300C1F30A5640F447
:10049000801543F48013A7EB0608101BD64608F21C
:1004A000FD3873EB050002D308F1010801E0921852
:1004B0005B41B8F1000F03DA00200146BDE8F08D82
:1004C00000204FF48011064684460EE0171B73EBA4
:1004D000050705D3121B63EB050306434CEA010C29
:1004E00049084FEA300092185B4150EA0107EDD10C
:1004F00052EA030012D082EA040083EA05010843AD
:1005000005D0101BAB4106D20122002306E00022D9
:100510004FF0004302E06FF0010253101AEB0600A7
:100520004CEB085110EB0A0041EB0B01BDE8F04D1C
:1005300000F0D7B8C10F80EAE0700844CA079623DC
:10054000002100F0A0B896230022114600F09BB8CD
:100550000EB540F2334102910021CDE900110A4667
:100560000B4600F0CDF803B000BD00F0004220F0D3
:100570000040C10DC0F3160040F400007F2901DAED
:1005800000207047962903DCC1F19601C84001E0C4
:1005900096398840002AF4D04042704720F000404D
:1005A000C10DC0F3160040F400007F2901DA0020DD
:1005B0007047962903DCC1F19601C840704796390F
:1005C00088407047C1F30A5210B5C1F3130140F2DD
:1005D000FF3341F480119A4201DA002010BD40F24D
:1005E00033439A42A2F2334203DC524200F032F823
:1005F00010BD904010BD00F0004230F000400AD025
:10060000C10D01F56071C0F3160042EA0151C20844
:1006100040071143704700200146704701F0004336
:1006200030B421F0004150EA010206D00A0DA2F5D3
:100630006072C1F31301002A02DC30BC0020704755
:10064000440F44EAC104C100E01830BC00EBC250C2
:1006500000F010B8202A04DB203A21FA02F0002131
:10066000704721FA02F3D040C2F1200291400843C2
:10067000194670470029A8BF7047401C490008BFB1
:1006800020F00100704710B4B0FA80FC00FA0CF0C2
:1006900050EA010404BF10BC704749B1CCF12004FA
:1006A00021FA04F411FA0CF118BF01212143084387
:1006B000A3EB0C01CB1D4FEA00614FEA102042BFB3
:1006C000002010BC704700EBC35010440029A4BFA9
:1006D00010BC7047401C490008BF20F0010010BC4E
:1006E000704710B5141E73F1000408DA401C41F184
:1006F000000192185B411A4301D120F0010010BDA6
:100700002DE9F04D92469B4611B1B1FA81F202E01B
:10071000B0FA80F22032904600F03AF904460F46D3
:1007200040EA0A0041EA0B0153465A46084313D0F7
:10073000114653EA010019D0C8F140025046FFF7B4
:1007400089FF05460E4650465946424600F020F9BC
:10075000084305D0012004E020463946BDE8F08D6D
:100760000020054346EAE0762C4337430A986305A8
:10077000E40AA0EB08000022FD0A44EA47540A30CC
:1007800002D500200146E9E7010510196941DDE9BC
:10079000084500196941BDE8F04DA2E72DE9FE4F7B
:1007A000804681EA0300C00F0C46009021F0004112
:1007B00023F00045B8EB0200A94105D2404621468E
:1007C00090461C460B46024623F00040104347D09B
:1007D000270DC7F30A00C3F30A510290401A019093
:1007E00040286BDAC3F3130040F4801B0098924654
:1007F00020B10023D2EB030A63EB0B0B019859469F
:10080000C0F14002504600F0C3F806460D4650467F
:100810005946019A00F0CBF810EB08006141002422
:1008200087EA115284EAE7731A4340D0009A62B310
:10083000019A012A4FEA075215DC001B61EB020105
:100840004FF0004202EA0752CDE90042001C41F598
:10085000801132462B46FFF753FF03B0BDE8F08FFF
:1008600040462146F9E7001B61EB0201001C41F5FF
:10087000801300185B412018A2F5001747EB030115
:1008800040EAD570B6196D4111E06D084FEA3606A1
:1008900045EAC0754FEA0752001B61EB0201001CDC
:1008A00041F5801149084FEA3000001951413246A4
:1008B0002B4603B0BDE8F04FFFF713BF00980122AD
:1008C00040000023D0EB020263EBE0730098214666
:1008D0004FEAE074B8EB000061EB0401E9E783F054
:1008E00000435BE781F0004158E770B521F0004319
:1008F00003430CD0C1F30A550024D5EB040564EB87
:100900000403D617AD1AB34102DB0020014670BDC7
:10091000201841EB025170BD0EB5C10F80EAE070A6
:100920000844CA07002140F233438DE80E000A460E
:100930000B46FFF7E5FE03B000BD000030B5041E16
:1009400071F1000404DB4FF00044404264EB01010C
:10095000141E73F1000405DB1C464FF000435242A5
:1009600063EB0403994208BF904230BD064C074D2B
:1009700006E0E06840F0010394E80700984710346F
:10098000AC42F6D3FFF7D8FBE012010800130108D0
:10099000202A04DB203A00FA02F10020704791403F
:1009A000C2F1200320FA03F3194390407047202A34
:1009B00006DBCB17203A41FA02F043EAE07306E087
:1009C00041FA02F3D040C2F1200291400843194697
:1009D00070472DE9F04D00231A461B1A8A4103DBAC
:1009E00000200146BDE8F08DC1F30A52C1F31301A6
:1009F00041F480154FF0000BD10702D100186D4172
:100A0000521E0027044640F2FF11384601EB620AED
:100A10003E468046024600204FF48011FFF71AFE42
:100A2000C2197141BB1846EB0100B4EB030C75EB26
:100A3000000C04D3E41A65EB000517460E46241992
:100A400008F101006D4180463428E3DDF91946EBD9
:100A50000600091BA84103D24FF0FF32134601E004
:100A6000002213461BEB070046EB0A51BDE8F04D90
:100A7000FFF737BE70B58C1810F8015B15F007034F
:100A800001D110F8013B2A1106D110F8012B03E027
:100A900010F8016B01F8016B5B1EF9D12B0705D42F
:100AA0000023521E0DD401F8013BFAE710F8013B78
:100AB000CB1A921C03E013F8015B01F8015B521E94
:100AC000F9D5A142D8D3002070BD000070B590B018
:100AD0000121084605F050F80121480205F076F89A
:100AE000294E304600F04AFB2848059028480690D9
:100AF0000024079402250895099480210A91480052
:100B00000B9080000C9020200D9000020E900F940E
:100B100005A9304600F0D9FB009401208DF80400AF
:100B20008DF805004FF46020029003948DF810506A
:100B3000184C6946204600F057F8072301220B2184
:100B4000204600F077F8072302220C21204600F00F
:100B500071F80121204600F02BF80121204600F019
:100B60001BF8204600F0AEF8204600F035F80028CB
:100B7000FAD1204600F0B7F8204600F025F800280A
:100B8000FAD110B070BD0000080002404C240140B2
:100B90004000002000240140002904D0816841F079
:100BA000010181607047816821F001018160704717
:100BB000002904D0816841F48071816070478168A8
:100BC00021F480718160704701460020896811F02E
:100BD000040F00D00120704701460020896811F001
:100BE000080F00D001207047426822F4807222F47E
:100BF000702291F804C00B6842EA0C221A4342604A
:100C000082680B4B1A40D1F808C0CB6843EA0C034A
:100C100091F805C042EA4C021A438260C26A22F48B
:100C20007002097C491EC9B242EA0151C162704793
:100C3000FDF7F1FF30B4072509290CD9C468A1F1EB
:100C40000A0C0CEB4C0C05FA0CF5AC4303FA0CF354
:100C50002343C36009E0046901EB410C05FA0CF57C
:100C6000AC4303FA0CF3234303614FF01F0C072A34
:100C70000CD2436B521E02EB82020CFA02FC23EAF6
:100C80000C0391401943416330BC70470D2A0CD2CC
:100C9000036BD21F02EB82020CFA02FC23EA0C0364
:100CA00091401943016330BC7047C36A0D3A02EBAF
:100CB00082020CFA02FC23EA0C0391401943C16240
:100CC00030BC7047816841F008018160704700299D
:100CD00004D0816841F4A00181607047816821F4EB
:100CE000A00181607047816841F004018160704714
:100CF00070B505460C46284601F02AFC08B18480F0
:100D000070BD0C200DF0E8FD88B1056084800021E5
:100D1000C1808160074A116939B18A681AB189684E
:100D20008A68002AFBD1886070BD106170BD002008
:100D300070BD000044000020FEE700002DE9F047F0
:100D400081460024DFF8B8A0DAF8000020F00F0098
:100D5000CAF80000DAF8000040F00800CAF8000005
:100D60000025284FA04601266006040EC7F88C61B6
:100D70004FF4FA7000F031FC0121504602F034F8D3
:100D800008B144F00104C7F88C814FF4FA7000F008
:100D900024FC681CC5B2082DE6D3DAF8000020F068
:100DA0000F00CAF80000DAF8000040F00300CAF8AB
:100DB0000000154DB9F1000F02D0C5F8808101E0A7
:100DC000C5F880614FF4FA7000F007FCC7F88C6139
:100DD0004FF4FA7000F001FCC7F88C81C5F880610F
:100DE000DAF8000020F00F00CAF80000DAF800007E
:100DF00040F00800CAF800002046BDE8F087000077
:100E00000008014000002242000021422DE9F04785
:100E10000546DFF8BCA0DAF8000020F00F00CAF8A1
:100E20000000DAF8000040F00300CAF800000024D7
:100E3000284FDFF8A490A046012615F0800F02D0BD
:100E4000C7F8806101E0C7F880814FF4FA7000F0C4
:100E5000C4FBC9F88C614FF4FA7000F0BEFBC9F80E
:100E60008C816806050E4FF4FA7000F0B6FB601C2A
:100E7000C4B2082CE1D3C7F88061DAF8000020F092
:100E80000F00CAF80000DAF8000040F00800CAF8C5
:100E900000004FF4FA7000F0A0FBC9F88C614FF429
:100EA000FA7000F09AFB0121504601F09DFF08B155
:100EB000002400E001244FF4FA7000F08EFBC9F822
:100EC0008C814FF4FA7000F088FB2046BDE8F08773
:100ED0000008014000002142000022422DE9F041BB
:100EE000134C206820F00F002060206840F00300C1
:100EF0002060104D012028600F4E30604FF4FA70D2
:100F000000F06BFB00272F604FF4FA7000F065FBD8
:100F100037604FF4FA7000F060FB206820F00F009B
:100F20002060206840F008002060BDE8F0810000EB
:100F300000080140800121428C0122422DE9F0414C
:100F4000154C206820F00F002060206840F003005E
:100F50002060124E00253560114F4FF00108C7F890
:100F60008C814FF4FA7000F038FBC6F800804FF423
:100F7000FA7000F032FBC7F88C514FF4FA7000F0B1
:100F80002CFB206820F00F002060206840F0080053
:100F90002060BDE8F081000000080140800121428E
:100FA000000022420023002904D9C2545B1CDBB29A
:100FB0008B42FAD37047000010B5202000F068F98A
:100FC000002826D0134C4021204608F0E2FE0028DD
:100FD000F9D0102000F0B6F820880F4908880022C8
:100FE0008021204608F0CAFE00210C4800F0B8F825
:100FF0000B490022CA7101228A7140F22551204614
:1010000008F0A7FEBDE810404FF48061054801F0EC
:10101000F9BE10BD00480040044800401C000240DA
:10102000180000200014014010B54FF4005000F0EB
:101030002FF900281BD00E4C4021204608F0A9FEB5
:101040000028F9D04FF4805000F07CF82188204629
:10105000084909880022802108F090FE00210648F6
:1010600000F07EF80548002101710121C17010BD1A
:1010700000380140043801404400024018000020BC
:1010800010B54FF0007000F003F900281BD00E4C93
:101090004021204608F07DFE0028F9D04FF08070F6
:1010A00000F050F821882046084909880022802154
:1010B00008F064FE0021064800F052F805480021BF
:1010C00041700121017010BD004400400444004003
:1010D000800002401800002010B5134800F0D8F836
:1010E000002820D0114C4021204608F052FE002854
:1010F000F9D00F4800F026F8218820460D490988CC
:101100000022802108F03AFE00210B4800F028F868
:101110000A480021817201214172BDE81040490254
:10112000074801F06FBE10BD00000210004C0040E7
:1011300000000110044C0040580402401800002038
:10114000000C014010F0805F02D003490860704736
:101150000249486070470000040402400000024059
:10116000002904D0016841F0010101607047016865
:101170004FF6FE72114001607047000002684FF6A2
:10118000FE71114001600021016041608160C16019
:10119000304A3149904204D1486840F00F0048601D
:1011A00070472E4A904204D1486840F0F0004860F1
:1011B00070472B4A904204D1486840F47060486000
:1011C0007047284A904204D1486840F47040486013
:1011D0007047254A904204D1486840F47020486026
:1011E0007047224A904204D1486840F47000486039
:1011F00070471F4A904204D1486840F070604860D0
:1012000070471C4A111F904204D1086840F00F003B
:1012100008607047184A904204D1086840F0F00016
:1012200008607047154A904204D1086840F4706025
:1012300008607047124A904204D1086840F4704038
:10124000086070470F4A9042FBD1086840F4702054
:101250000860704708000240000002401C00024085
:101260003000024044000240580002406C0002403E
:1012700080000240080402401C0402403004024086
:101280004404024058040240406880B270470000A5
:10129000002210F0805F02D00449096801E004498F
:1012A0000968014200D00122104670470004024044
:1012B00000000240002A03D0026811430160704719
:1012C000026822EA01010160704710B402686FF3FE
:1012D0000E12D1F820C08B684C6943EA0C03D1F898
:1012E00010C04CEA040C43EA0C03D1F818C043EADE
:1012F0000C03D1F81CC043EA0C03D1F824C043EA24
:101300000C03D1F828C043EA0C031A430260CA68F0
:1013100042600A6882604968C16010BC7047000082
:101320002DE9F0438BB00121084604F025FCDFF8DD
:10133000A49000214846FFF713FF4846FFF71EFF21
:10134000254F009725480190102002904FF4807897
:10135000CDF80C800024049480250595069407940C
:1013600008944FF4405609960A9469464846FFF798
:10137000ACFF6801FFF7E6FE00214846FFF7F0FEEC
:10138000012202214846FFF795FFDFF85490002123
:101390004846FFF7E5FE4846FFF7F0FE0097114884
:1013A00001900294CDF80C8004940595069407945E
:1013B000089409960A9469464846FFF786FF680232
:1013C000FFF7C0FE01214846FFF7CAFE0BB0BDE89B
:1013D000F08300004400024004380140290C002042
:1013E00058000240A90700202DE9F0438BB00121ED
:1013F000084604F0C1FBDFF8A49000214846FFF73F
:10140000AFFE4846FFF7BAFE254F009725480190EA
:10141000102002904FF48078CDF80C8000240494C2
:10142000802505950694079408944FF44056099634
:101430000A9469464846FFF748FF6804FFF782FEB2
:1014400000214846FFF78CFE012202214846FFF7A3
:1014500031FFDFF8549000214846FFF781FE4846EF
:10146000FFF78CFE0097114801900294CDF80C8094
:101470000494059506940794089409960A9469467D
:101480004846FFF722FF6803FFF75CFE012148464C
:10149000FFF766FE0BB0BDE8F0830000800002405D
:1014A00004440040290B00206C000240A9060020E3
:1014B00010B58CB00121084604F05EFB154C0021EC
:1014C0002046FFF74DFE2046FFF758FE12480190D8
:1014D000124802901020039080220492002105916E
:1014E00006920791089109914FF440500A900B9190
:1014F00001A92046FFF7E9FE1020FFF723FE002197
:101500002046FFF72DFE012202212046FFF7D2FEE2
:101510000CB010BD1C00024004480040290D002002
:101520002DE9F0418CB0214F019721480290102005
:10153000039080250495002405940695079408944B
:10154000099446020A960B94DFF8688001A9404688
:10155000FFF7BBFE1848FFF7F5FD00214046FFF7F7
:10156000FFFD012202214046FFF7A4FE0197134828
:1015700002900394049505940695079408940994A1
:101580000A960B940E4C01A92046FFF79EFE0D48CB
:10159000FFF7D8FD01212046FFF7E2FD01220221DD
:1015A0002046FFF787FE0CB0BDE8F081044C0040F8
:1015B000290E0020580402400000011029090020D3
:1015C000300402400001001070474FF4FA514843C4
:1015D00000E0401E0028FCD1704700EB8000800036
:1015E00000E0401E0028FCD17047002801D00021F7
:1015F0000160704770B584B00446012000F0B2F875
:1016000006208DF8080001268DF8096000258DF868
:101610000A500CB1012100E000218DF80B1002A846
:1016200003F0FEFC012000F09DF80021022001F0F3
:101630002BFB00968DF804500C208DF805000CB1A2
:10164000012000E000208DF80600684600F0AAF8AE
:1016500004B070BD06480549007831F81020521CCE
:1016600021F81020012000F07DB80000C8E900201A
:10167000B6000020704730B583B00446022000F069
:1016800071F807208DF8080001208DF80900002569
:101690008DF80A500CB1012100E000218DF80B10EB
:1016A00002A803F0BDFC022000F05CF8012100203C
:1016B00001F0EAFA022000908DF804500C208DF819
:1016C00005000CB1012000E000208DF806006846FE
:1016D00000F068F803B030BD08480749007831F8D9
:1016E0001020521C21F810200548417D491C4175ED
:1016F000022000F037B8000042EA0020B6000020C7
:101700001800002010B54FF4802007F073FC134838
:1017100006F027FD114CE07810F0080F04D01421DA
:101720004FF4802007F058FCE07810F0100F05D03F
:1017300032214FF4002007F04FFC07E010F0200F9B
:1017400004D014214FF4802007F046FC034806F033
:1017500008FDBDE81040102000F004B8A0060020ED
:101760007047000001490860704700001404014000
:1017700000B583B01020FFF7F5FF0421022001F02F
:1017800083FA1020009000208DF804000C208DF8C2
:10179000050001208DF80600684600F003F803B04C
:1017A00000BD0000214A83790168002B34D0136802
:1017B00023EA01011160111D0A6803689A430A6057
:1017C000017901F1804101F582310A6803681A4309
:1017D0000A60174B19680268914319601A1D116855
:1017E000D0F800C021EA0C0111604179102908D01D
:1017F00001F1804101F582310A68006810430860F8
:1018000070471968D0F800C041EA0C0119601168EE
:101810000068084310607047007900F1804000F5CF
:101820008230026822EA0101016070470004014031
:10183000080401407047704741F270714FF4006036
:1018400007F0CABB41F288314FF4805007F0C4BBA7
:1018500041F270714FF4006007F0BEBB70477047F3
:1018600041F288314FF4805007F0B6BB2DE9F041CA
:10187000044688460B234BA2214640460DF062F8F1
:101880004B4D85F8570005F1E4004078042807D156
:101890000C2348A2214640460DF054F885F8570025
:1018A00095F8570000284BD04044D0F80110C5F8F7
:1018B000A710D0F81100C5F8AB0042480BF054FF58
:1018C000A5F8760040480BF04FFFA5F878000146D8
:1018D000B5F876003D4EA0F504520227B2F5007F20
:1018E00030D2D31702EB1372C2F30F12A5F87A208D
:1018F000C0F34200A5F87C00354B03EBC20319543A
:101900000344090A5970334B322103EB820303EB82
:1019100050031970304B03EB820202EB5000017050
:1019200080213046FEF739FC347022464146701C57
:10193000FEF71AFC9621780307F04EFB85F83E70FF
:10194000BDE8F081A0F50C52B2F5007FF8D3A0F508
:101950001452B2F5907FF3D21046C21700EB92708A
:10196000C0F38F00A5F87A001C4A02F8101002EBB1
:101970004002090A51701A4A05211154802102F6C9
:10198000CA20FEF70AFC347022464146701CFEF75E
:10199000EBFB96214FF4804007F01EFB85F83E706C
:1019A000BDE8F0817B226D6574686F64223A220085
:1019B000580000207B22636F6D6D616E64223A22B5
:1019C00000000000FF00002003010020F6190020A5
:1019D00012E4002026E60020A6E6002012E5002002
:1019E0002C0F002010B5274C94F82700002806D0B3
:1019F000BDE8104032214FF4804007F0EDBA94F872
:101A00002100042808D038B1BDE810404FF4FA7125
:101A10004FF4804007F0E0BA042184F8211094F8D4
:101A2000200048B1042811D00021052825D084F8D1
:101A3000201084F8211010BD84F82010BDE810405B
:101A40004FF496714FF4804007F0C6BA0C210E484F
:101A50000DF048F894F85A100C4809F04BFA0B496D
:101A60000B480DF0F5FD052084F82000BDE810407E
:101A70004FF49671102007F0AFBA84F8201084F864
:101A8000211010BD580000203B020020F40000206F
:101A9000F61100202DE9F04F83B0FE4E96F8270096
:101AA000002808D003B04FF4FA61BDE8F04F4FF4BE
:101AB000805007F091BA96F82100032809D040B170
:101AC00003B04FF4FA71BDE8F04F4FF4805007F0C7
:101AD00083BA032786F82170DFF8BCA396F824C0E8
:101AE000AAF1E400ED490025022290F820004FF011
:101AF00006094FF005084FF0040BA1F14103BCF1BA
:101B0000070F80F0A281DFE80CF0FD0411475CE5CF
:101B1000FC0086F8242086F820204FF496714FF4BC
:101B2000805007F059FA03B0BDE8F08F4FF4807190
:101B3000DB48FEF732FB01208DF808008DF80950D4
:101B4000D74B012202A94FF412600CF0ABFC9AF8BB
:101B50000120042A06D1D24B012202A94FF41260BF
:101B60000CF008FD0146CE480CF0BCFF96F85A1068
:101B7000CC4809F0BFF9CB49CB480DF069FD86F898
:101B8000247086F820704FF496714FF4805007F05F
:101B900023FA03B0BDE8F08F86F824B086F8205011
:101BA00086F8215086F8265041F288314FF4805053
:101BB00007F012FA03B0BDE8F08F04F1010C86F8CB
:101BC00026C096F8264001EB040C9CF820C0BCF11E
:101BD000000F08D103EB040C9CF820C0BCF1000FEF
:101BE00001D1202CE9D396F826C0BCF1200F5BD29E
:101BF00020B102280FD0032844D06BE086F82020C3
:101C000086F824B04FF496714FF4805007F0E4F951
:101C100003B0BDE8F08F4FF48071A148FEF7BDFA24
:101C2000A24D4FF4045805EBC40108EB04109C4B83
:101C300004220CF037FC9AF80120042A08D196F807
:101C40002600974B05EBC00108EB00100CF092FC4E
:101C5000014693480CF046FF96F85A10914809F057
:101C600049F9904990480DF0F3FC86F824B086F8C5
:101C700020704FF496714FF4805007F0ADF903B027
:101C8000BDE8F08F86F824B086F8205086F8215001
:101C9000601C86F8260041F288314FF4805007F02E
:101CA0009BF903B0BDE8F08F86F8248086F8228087
:101CB00086F8205086F8215086F8265096214FF459
:101CC000805007F089F903B0BDE8F08F04F1010CF2
:101CD00086F826C096F8264011F804C0BCF1000F23
:101CE00006D113F804C0BCF1000F01D1402CEDD98E
:101CF00096F82610402973D838B1022812D003284C
:101D000070D000E0A1E06A4990E086F8202086F8D3
:101D100024804FF496714FF4805007F05DF903B0C2
:101D2000BDE8F08F4FF480715D48FEF736FA5C48ED
:101D3000009096F82800DFF880918006030E5D4839
:101D40004FF4807B00EB841209EB04110BEB441081
:101D50000CF07CFC01469AF80100042811D150488F
:101D6000009096F8280053498006030E96F8260046
:101D700001EB801209EB00110BEB40100CF002FD9F
:101D8000014647480CF0AEFE96F85A10454809F057
:101D9000B1F8444944480DF05BFC96F8280070B156
:101DA00086F8285086F8248086F820704FF49671C3
:101DB0004FF4805007F010F903B0BDE8F08F012018
:101DC00086F8280086F8248086F8205086F821506E
:101DD0004FF49671000307F0FFF803B0BDE8F08FF1
:101DE00012E0FFE786F8248086F8205086F821501C
:101DF00086F82850601C86F826004FF496714FF440
:101E0000805007F0E9F8E8E786F8249086F820503B
:101E100086F8215086F8265041F288314FF48050E0
:101E200007F0DAF8D9E7631C86F8263096F82640E2
:101E30000B5D0BB9492CF6D396F82610492974D2BC
:101E400050B1022813D003285ED041F288314FF4FC
:101E5000805007F0C1F8C0E786F8202086F824906B
:101E60004FF496714FF4805007F0B6F8B5E74FF491
:101E700080710B48FEF791F9104D4FF4145805EBA3
:101E8000440108EB8400064B01220CF00BFB9AF88E
:101E9000012015E0580000203C010020E5E500206D
:101EA00076180020F1000020F611002012E4002036
:101EB0002C0F0020641C002002E0002012E500200E
:101EC000042A09D196F826001F4B05EB400108EBC8
:101ED000800001220CF04EFB01461B480CF002FE74
:101EE00096F85A10194809F005F8184918480DF0E5
:101EF000AFFB86F8229086F820704FF496714FF46D
:101F0000805007F069F868E786F8249086F820503A
:101F100086F82150601C86F8260041F288314FF483
:101F2000805007F059F858E7FFE7012086F82400B1
:101F300086F8205086F8215086F826509621000316
:101F400007F04AF849E7000076180020F100002069
:101F5000F61100200948002180F8201080F8211097
:101F6000012280F82420FF2280F8232080F8251009
:101F700041F288314FF4805007F02EB8580000200D
:101F800070B50D220D2826D9164B93F807C01C7A80
:101F90005D7A8B5CCC2B1FD18B1813F8036C6645D4
:101FA0001AD113F8026CA64216D113F8016CAE4296
:101FB00012D1881813F8051C10F8060C062202EB43
:101FC0000121084481B2A3F10A000CF073F906491B
:101FD000022081F83E0070BD521CD2B28242D8D39A
:101FE00070BD0000761800205800002010B5234C6A
:101FF00094F82700002806D0BDE8104032214FF4A5
:10200000804006F0E9BF94F82100022808D038B1DA
:10201000BDE810404FF4FA714FF4804006F0DCBF89
:10202000022084F8210094F8200048B1042811D03F
:10203000002105281DD084F8201084F8211010BD3F
:10204000042084F82000BDE810404FF4967100038E
:1020500006F0C2BF0AA10B480DF0FAFA052084F879
:102060002000BDE810404FF496714FF4804006F018
:10207000B3BF84F8201084F8211010BD5800002050
:1020800030323700761900202DE9F05FE64C94F8E5
:102090002700002807D0BDE8F05F4FF4FA614FF445
:1020A000805006F099BF94F82100032808D038B179
:1020B000BDE8F05F4FF4FA714FF4805006F08CBF2A
:1020C000032784F82170D84994F82400DFF860C30E
:1020D00000230426D54D91F820204FF006084FF03C
:1020E00005094FF0020B4FF0010EACF1410A072831
:1020F00080F04581DFE800F0FE04103F59C5D800AC
:1021000084F824B084F820B0BDE8F05F4FF49671F5
:102110004FF4805006F060BF1920287120202875E8
:1021200009206875AE75EB752B766B7685F81AE02D
:10213000EB76112105F10B0000F06EFE2877000A06
:102140006877DD20A877A87D1B30C1B284F85C10C9
:10215000B84808F0CFFEB749B4480DF079FA84F8D2
:10216000247084F82070BDE8F05F4FF496714FF44E
:10217000805006F031BF84F8246084F8203084F861
:102180002130252028712B75212068751020A87515
:10219000EB7584F82630BDE8F05F41F2883100022B
:1021A00006F01ABF481C84F8260094F826100CEBA1
:1021B000010090F8200030B90AEB010090F82000EF
:1021C00008B92029EED394F82600202840D222B165
:1021D000022A0ED0032A2AD053E084F820B084F8D3
:1021E0002460BDE8F05F4FF496714FF4805006F024
:1021F000F3BE2B7521206875102008F031FEA87DF4
:102200001B30C1B284F85C108A4808F073FE89491B
:1022100086480DF01DFA84F8246084F82070BDE82B
:10222000F05F4FF496714FF4805006F0D5BE84F8FD
:10223000246084F8203084F82130481C84F826007B
:10224000BDE8F05F41F288314FF4805006F0C4BE23
:1022500084F8249084F8203084F8213035202871C7
:102260002B7585F815E02020A875EB7584F82630CD
:10227000BDE8F05F9621C00106F0AEBE401C84F8B8
:10228000260094F826001CF8001021B91AF8001056
:1022900009B94028F2D994F82610402942D82AB129
:1022A000022A0FD0032A2CD0634855E084F820B0CE
:1022B00084F82490BDE8F05F4FF496714FF480509D
:1022C00006F08ABE2B7585F815E00BF0C5F9A87DE0
:1022D0001B30C1B284F85C10564808F00BFE55491B
:1022E00052480DF0B5F984F8249084F820704FF42A
:1022F000967100E043E0BDE8F05F4FF4805006F0D7
:102300006BBE84F8249084F8203084F82130401C7F
:1023100084F82600BDE8F05F41F288314FF4805028
:1023200006F05ABE84F8248084F8203084F82130E6
:10233000192028712B7525206875AE75EB7584F80A
:102340002630BDE8F05F41F288314FF4805006F04E
:1023500043BE491C84F8261094F8261010F801C0DA
:10236000BCF1000F01D14929F3D394F826C0BCF188
:10237000490F4AD25AB1022A15D0032A31D0BDE8FA
:10238000F05F41F288314FF4805006F025BE84F8AA
:1023900020B084F82480BDE8F05F4FF496714FF4CC
:1023A000805006F019BE2B7525206875042008F0B2
:1023B0001FFDA87D1B30C1B284F85C101D4808F0D9
:1023C00099FD1C4919480DF043F984F8248084F8DC
:1023D0002070BDE8F05F4FF496714FF4805006F026
:1023E000FBBD84F8248084F8203084F82130425CDE
:1023F0000AB1521E4254481C84F82600BDE8F05F22
:1024000096214FF4805006F0E7BD84F824E084F86C
:10241000203084F8213084F82630BDE8F05F962122
:102420004FF4805006F0D8BD5800002076180020E8
:10243000E5E50020F10000202C0F002030B5054616
:102440004FF4302000F074F8042812D1094C2069B0
:1024500040F0020020616561206940F04000206189
:102460004FF4302000F064F8216941F6FD7211400C
:10247000216130BD0020024004200949CA6812F0E1
:10248000010F01D001207047CA6812F0040F01D07B
:1024900002207047C96811F0100FFAD0032070476E
:1024A000002002400248016941F08001016170474B
:1024B0000020024004490A6822F010020A600A68FB
:1024C00010430860704700000020024070B50646C7
:1024D0000D464FF4005000F02BF804280ED1084CA4
:1024E000206940F00100206135804FF4005000F079
:1024F0001FF8216941F6FE721140216170BD000094
:1025000000200240034A116801F0380108431060BE
:10251000704700000020024003480249416003491F
:10252000416070472301674500200240AB89EFCD31
:1025300000B50346FFF7A0FF02E0FFF79DFF5B1E1B
:10254000012801D1002BF8D1002B00D1052000BDBE
:10255000014605480069002805D002688A4202D079
:1025600080680028F9D17047440000208446104656
:10257000002300290DD90CEBCC0202EB0C12DFF882
:1025800014C00CEB820C2CF813005B1CDBB28B42EA
:10259000F9D37047F61A002003460020002A06DD12
:1025A00013F801CB01F800C0401C9042F8DB7047E3
:1025B0002DE9F84380468946164604200090FFF72F
:1025C000ABFF47466FF30A07C8F30A00C0F5006087
:1025D000864201D8012506E0301A4105490D15D083
:1025E000022101EBD0250024002D07D907EBC420E0
:1025F000FFF724FF0090641CAC42F7D39DF8000065
:10260000042807D04FF0FF30BDE8F883012101EB2B
:10261000D025E8E7324649460948FDF7A5FD16F002
:10262000010F01D0701C00E0304682B204494046E0
:1026300000F008F8FFF736FF3046BDE8F8830000E9
:10264000DE3A0020F8B506460D46174604200090F5
:10265000002408E029883046FFF738FF0090A01CCE
:1026600084B2B61CAD1CBC4203D29DF80000042805
:10267000F0D03846F8BD70B584B0002001900290CB
:10268000039001F093FD502001F034FDAC2001F0E7
:1026900031FD01F0B3FD6420FEF797FF01F086FDE8
:1026A000512001F027FD012001F0C6FCADF8040027
:1026B0000446012001F0C0FCADF8060005460120EB
:1026C00001F0BAFCADF808000646012001F0B4FCA8
:1026D000ADF80A00002001F0AFFCADF80C0001F0ED
:1026E0008DFD04F06000402803D004B04FF6FF7069
:1026F00070BD46EA052004B080B270BD70B584B0EC
:10270000002001900290039006F088F8502006F017
:10271000E9F8AC2006F0E6F806F0B0F86420FEF721
:1027200054FF06F07BF8512006F0DCF8012005F09C
:10273000F7FFADF804000446012005F0F1FFADF805
:1027400006000546012005F0EBFFADF8080006463F
:10275000012005F0E5FFADF80A00002005F0E0FFDC
:10276000ADF80C0006F08AF804F06000402803D0B1
:1027700004B04FF6FF7070BD46EA052004B080B289
:1027800070BD70B584B00020019002900390FEF7F8
:10279000A5FB5020FEF73AFBAC20FEF737FBFEF717
:1027A000CDFB6420FEF711FFFEF798FB5120FEF7EA
:1027B0002DFB0120FEF7C2FAADF80400044601200B
:1027C000FEF7BCFAADF8060005460120FEF7B6FAA2
:1027D000ADF8080006460120FEF7B0FAADF80A0091
:1027E0000020FEF7ABFAADF80C00FEF7A7FB04F0F3
:1027F0006000402803D004B04FF6FF7070BD46EA79
:10280000052004B080B270BD30B583B000200090C8
:102810000190029001F0CAFC502001F06BFCAC204A
:1028200001F068FC01F0EAFC6420FEF7CEFE01F046
:10283000BDFC512001F05EFC012001F0FDFBADF874
:1028400000000446012001F0F7FBADF80200054648
:10285000012001F0F1FBADF80400002001F0ECFBD9
:10286000ADF8060001F0CAFC14F0C00F03D003B0AD
:102870004FF6FF7030BD45EA042003B080B230BD92
:10288000F0B583B0002000900190029005F0C6FFE3
:10289000502006F027F8AC2006F024F805F0EEFFF3
:1028A0006420FEF792FE05F0B9FF512006F01AF8F9
:1028B000012005F035FFADF800000446012005F0C9
:1028C0002FFFADF802000546012005F029FFADF805
:1028D00004000646002005F023FFADF80600074679
:1028E00005F0CCFF14F0C00F03D003B04FF6FF701B
:1028F000F0BD45EA042080B2034A47EA0621890870
:10290000118003B0F0BD0000E200002030B583B0BC
:102910000020009001900290FEF7E0FA5020FEF7B0
:1029200075FAAC20FEF772FAFEF708FB6420FEF79A
:102930004CFEFEF7D3FA5120FEF768FA0120FEF7AD
:10294000FDF9ADF8000004460120FEF7F7F9ADF8F7
:10295000020005460120FEF7F1F9ADF80400002061
:10296000FEF7ECF9ADF80600FEF7E8FA14F0C00F38
:1029700003D003B04FF6FF7030BD45EA042003B02A
:1029800080B230BD2DE9F84F01217D2003F01EF902
:102990000121082000F0EAF90121B54800F0E6F92C
:1029A0000120ADF8000010258DF8035003248DF8A8
:1029B00002406946AF4800F07BF90121AD4800F0C4
:1029C00021FA4FF04009ADF800908DF803508DF8D2
:1029D00002406946A74800F06BF90121A64800F0C3
:1029E00011FAA802ADF800008DF803508DF80240EE
:1029F0006946A24800F05CF9A902A04800F002FA7A
:102A00006802ADF800008DF803508DF80240694669
:102A10009A4800F04DF96902984800F0F3F9E8028D
:102A2000ADF800008DF803508DF8024069469348D8
:102A300000F03EF9E902914800F0E4F94FF4007B20
:102A4000ADF800B018278DF803708DF80240694684
:102A50008B4800F02DF94FF4806AADF800A00426F1
:102A60008DF803606946864800F022F92020ADF811
:102A700000008DF803708DF8024069467F4800F031
:102A800017F9ADF800908DF8036069467B4800F0B7
:102A90000FF9ADF800508DF803708DF802406946CB
:102AA000764800F005F91021744800F0ABF90820D1
:102AB000ADF800008DF803606946704800F0F8F842
:102AC0004FF08008ADF800808DF803708DF802405B
:102AD00069466A4800F0ECF88021684800F094F9F3
:102AE0002801ADF800008DF803708DF802406946AA
:102AF000624800F0DDF8ADF800B08DF8036069467B
:102B00005E4800F0D5F8ADF800A08DF803508DF8C0
:102B100002406946594800F0CBF8ADF800A08DF8A6
:102B200003708DF80240DFF85CA16946504600F062
:102B3000BFF8E801ADF800008DF803606946504623
:102B400000F0B6F8ADF800B08DF803508DF80240F3
:102B50006946494800F0ACF82802ADF800008DF84D
:102B600003708DF802406946504600F0A1F8ADF8B8
:102B700000608DF803606946404800F099F828012C
:102B8000ADF800008DF803508DF8024069463A48D0
:102B900000F08EF8ADF800908DF803508DF80240EB
:102BA0006946354800F084F84021334800F02AF99E
:102BB0007C20ADF8000048278DF8037069462D4849
:102BC00000F076F8ADF800508DF803508DF8024013
:102BD00069462B4800F06CF81021294800F014F9E0
:102BE000ADF800508DF803706946504600F060F86B
:102BF000ADF800808DF803508DF8024069461E48FC
:102C000000F056F80620ADF8000000208DF8030013
:102C10006946504600F04CF80820ADF800008DF8E9
:102C200003508DF802406946504600F041F80120FB
:102C3000ADF800008DF803608DF8024069465046FB
:102C400000F036F8ADF800408DF803608DF80240D2
:102C500069460B4800F02CF8ADF800808DF8035061
:102C60008DF802406946034800F022F8BDE8F88F6D
:102C70003000140000180140000C01400014014015
:102C800000080140001001408A07120F0F239340F3
:102C900021F0030101F1804101F58031D1F808C034
:102CA0002CEA03038B608B68904018438860704760
:102CB0002DE9F001002291F803C00CF00F031CF085
:102CC000100F03D091F802C04CEA030391F800C042
:102CD0004FF00F071CF0FF0F4FF001061ED00468E5
:102CE00006FA02FC0D8805EA0C05654512D195002F
:102CF00007FA05F824EA080403FA05F52C43CD7811
:102D0000282D02D0482D03D004E0C0F814C001E003
:102D1000C0F810C0521C082AE2D304600A88FF2AB7
:102D200020D94468002202F1080C06FA0CFC0D8838
:102D300005EA0C05654511D1950007FA05F824EA66
:102D4000080403FA05F52C43CD78282D01D1C0F8ED
:102D500014C0CD78482D01D1C0F810C0521C082AEB
:102D6000E1D34460BDE8F0017047000070B4DFF8C3
:102D700074C010F0004F02D0DCF81C2001E0DCF839
:102D80000420C0F303444FF4401333EA00054FEA34
:102D900050534FEA031386B206FA03F309D010F436
:102DA000801F0FD0032505FA04F4A24342F070629D
:102DB0000BE022F07062DCF8044024F07064CCF880
:102DC000044002E09A4342F0706201B11A4310F0ED
:102DD000004F03D0CCF81C2070BC7047CCF8042006
:102DE00070BC7047000001400246002092680A4211
:102DF00000D00120704702460020D2680A4200D06D
:102E0000012070474161704701617047002A01D07D
:102E1000016170474161704770B4184AFF2382F81E
:102E2000553082F85630002382F8543000291CD9DE
:102E3000DFF84CC0ACF5807410F8013B92F85550A7
:102E40006B40A2F870301CF8035092F85660754041
:102E500082F85550E35C82F8563092F854305B1C8F
:102E6000DBB282F854308B42E6D392F8550092F8E8
:102E7000561070BC40EA0120704700005800002046
:102E80006410010870B4B3B00024A4461D4E6D4612
:102E900036F810308B4200D20B46934200D91346CD
:102EA00025F81C300CF1010303F0FF0CBCF1640F9A
:102EB000EED3002101F1010C0CF0FF0064280DD2CB
:102EC00035F8112035F810309A4203D325F8113027
:102ED00025F81020401CC0B26428F1D30CF0FF018B
:102EE0006429E7D3282035F810100C44401CC0B2E8
:102EF0003C28F8D30448A0FB0410000933B080B28A
:102F000070BC704740000020CDCCCCCC70B5FDF734
:102F1000E5FF6220FDF77AFF5220FDF777FFFEF70D
:102F20000DF841F28830FEF758FBFDF7D7FF63201C
:102F3000FDF76CFF4FF4FA60FEF74FFB0120FDF741
:102F4000FDFE4FF4FA60FEF748FB0120FDF7F6FEA8
:102F500005464FF4FA60FEF740FB0020FDF7EEFE59
:102F60000446FDF7EBFF44EA052070BD70B50AF09A
:102F700003FD060B00F00F0100F4706041EA101031
:102F80000F2E1DD0FDF7E4FA04460D463046FDF73E
:102F9000DFFA02460B4600204FF080410BF07CFE2A
:102FA000094A0A4BFDF7E5F922462B46FDF7E1F900
:102FB0000022074BFDF74FFAFDF704FB80B270BD0E
:102FC0004FF6FF7070BD00000AD7A3703D0AA73FFF
:102FD00000002440FEE7000070B5154DE87B122884
:102FE00018D1A5F1E40191F84400401CC0B281F869
:102FF0004400052800D9FEE70E48018821F0200191
:1030000001800D4C012020604FF4FA60FEF7E5FAD4
:1030100000202060E87E0F2808D109490748097878
:103020000170BDE87040012007F0EAB970BD0000F2
:103030003C010020200C00408C012242290C002081
:10304000240F010810B5012002F0E0FE612002F01B
:1030500097FE0028FAD045F2555000F029F80320D9
:1030600000F01AF840F6B83000F01CF800F00CF848
:10307000BDE81040AFF3008002494CF6CC40086038
:10308000704700000030004002494AF6AA2008605C
:103090007047000000300040014948607047000060
:1030A0000030004001498860704700000030004057
:1030B0000149086070470000003000402DE9F04FE2
:1030C00089B0DFF818B44FF00109ABF1E40A9BF8BE
:1030D0001C109AF85300814201D28AF853909AF852
:1030E00053300025FE484FF6FF76827990F807C0EE
:1030F00042EA0C24FB4A92F85220FB4F012BD7F8EE
:103100001CC0CDF820C0D7F818807CD0022B00F06E
:10311000B981032B78D1002A00F00183012A73D1F1
:103120000346032993F8282093F829C042EA0C2289
:1031300093F826C093F827304CEA03243B46D3F893
:103140009CC0CDF80CC0D3F8A4C0D3F89880CDF8BB
:1031500008C0D3F8A090C0F0648318F0FF4F00F0CF
:10316000478319F0FF4F00F04383D7F8A81001916F
:1031700011F0FF4F00F03C831046FDF7E4F949469B
:10318000FDF7B9F80299FDF72CF8D849FDF781F859
:10319000FDF7EBF900902046FDF7D5F94146FDF724
:1031A000AAF80399FDF71DF8FDF7F8F984B2CC48A9
:1031B00090F82A1090F82B0041EA0020FDF7C3F99F
:1031C0000199FDF798F8D7F8AC10FDF70AF8FDF76C
:1031D000E5F983B2BDF900102246032000F0A4FCFB
:1031E0008AF852509AF85300401C8AF853009BF812
:1031F0001D0009B000EB4001C1EBC01006EAC001A0
:103200004FF0007001E004E085E0BDE8F04F05F00C
:10321000E3BE002A61D0012A7DD1B14B03291A7A7D
:103220005B7A42EA0322B04BD3F824C0CDF81CC02D
:10323000D3F8209070D318F0FF4F6ED019F0FF4FE5
:103240006BD0B96A069111F0FF4F66D01046FDF7BA
:103250007AF94946FDF74FF80799FCF7C2FFA349F1
:10326000FDF717F8FDF781F900902046FDF76BF99F
:103270004146FDF740F80899FCF7B3FFFDF78EF9DA
:1032800084B29748817AC07A41EA0020FDF75BF961
:103290000699FDF730F8F96AFCF7A3FFFDF77EF910
:1032A00083B2BDF900102246012000F03DFC8AF8EF
:1032B00052509AF85300401C8AF853009BF81D00A6
:1032C00009B000EB4001C1EBC01006EAC001BDE847
:1032D000F04F4FF0007005F07FBE3C6814F0FF4FD8
:1032E00054D0BD6815F0FF4F50D03E6916F0FF4F27
:1032F0004CD08046007998F8051040EA0120FDF78F
:1033000022F93146FCF7F7FF7969FCF76AFF774944
:10331000FCF7BFFF02E037E15EE044E0FDF725F98E
:10332000009098F8020098F8031040EA0120FDF799
:103330000AF92946FCF7DFFFF968FCF752FFFDF7B1
:103340002DF985B298F8000098F8011040EA0120A4
:10335000FDF7F9F82146FCF7CEFF7968FCF741FF4D
:103360006349FCF796FFFDF719F983B2BDF9001028
:103370002A46012000F0B4FA8AF8529009B0FA21E6
:10338000BDE8F04F4FF0007005F026BE012000F0C0
:10339000F3FC8AF8529009B0FA21BDE8F04F4FF0E3
:1033A000007005F019BE012000F094FD8AF852501B
:1033B0009AF85300401C8AF853009BF81D0009B08E
:1033C00000EB4001C1EBC01006EAC001BDE8F04FC0
:1033D0004FF0007005F000BE18F0FF4F39D019F023
:1033E000FF4F36D01046FDF7AEF84946FCF783FF95
:1033F0000799FCF7F6FE3D49FCF74BFFFDF7B5F8E2
:1034000000902046FDF79FF84146FCF774FF0899AD
:10341000FCF7E7FEFDF7C2F882B2BDF90010002309
:10342000012000F081FB8AF852509AF85300401CAA
:103430008AF853009BF81D0009B000EB4001C1EB76
:10344000C01006EAC001BDE8F04F4FF0007005F073
:10345000C3BD012000F03EFD8AF852509AF8530097
:10346000401C8AF853009BF81D0009B000EB400196
:10347000C1EBC01006EAC001BDE8F04F4FF000708C
:1034800005F0AABD002A75D0012A7DD1DFF850C011
:10349000DFF8549003299CF818209CF819C0D9F83B
:1034A000583042EA0C22D9F864C0CDF814C0D9F8DB
:1034B00060906AD313F0FF4F68D019F0FF4F65D0CA
:1034C000B96E049111F0FF4F60D01046FDF73BF844
:1034D0004946FCF710FF05990CE000003C01002074
:1034E00002E0002058000020641C00200000204161
:1034F0000000C842FCF775FEF649FCF7CAFEFDF76E
:1035000034F800902046FDF71EF84146FCF7F3FE24
:103510000899FCF766FEFDF741F884B2EE48817E1B
:10352000C07E41EA0020FDF70EF80499FCF7E3FEA7
:10353000F96EFCF756FEFDF731F883B2BDF90010C5
:103540002246022000F0F0FA8AF852509AF853000E
:10355000401C8AF853009BF81D0009B000EB4001A5
:10356000C1EBC01006EAC001BDE8F04F4FF000709B
:1035700005F032BD3C6C14F0FF4F54D0BD6C15F01B
:10358000FF4F50D03E6D02E0A1E172E058E016F02E
:10359000FF4F48D08046007D98F8151040EA012082
:1035A000FCF7D1FF3146FCF7A6FE796DFCF719FE5A
:1035B000C849FCF76EFEFCF7D8FF009098F812009F
:1035C00098F8131040EA0120FCF7BDFF2946FCF7EC
:1035D00092FEF96CFCF705FEFCF7E0FF85B298F867
:1035E000100098F8111040EA0120FCF7ACFF2146CA
:1035F000FCF781FE796CFCF7F4FDB849FCF749FE55
:10360000FCF7CCFF83B2BDF900102A46022000F07F
:1036100067F98AF8529009B0FA21BDE8F04F4FF0EF
:10362000007005F0D9BC022000F0A6FB8AF8529089
:1036300009B0FA21BDE8F04F4FF0007005F0CCBCA6
:10364000022000F047FC8AF852509AF85300401CC0
:103650008AF853009BF81D0009B000EB4001C1EB54
:10366000C01006EAC001BDE8F04F4FF0007005F051
:10367000B3BC13F0FF4F39D019F0FF4F36D01046CE
:10368000FCF761FF4946FCF736FE0599FCF7A9FDFA
:103690009049FCF7FEFDFCF768FF00902046FCF720
:1036A00052FF4146FCF727FE0899FCF79AFDFCF70C
:1036B00075FF82B2BDF900100023022000F034FA39
:1036C0008AF852509AF85300401C8AF853009BF82D
:1036D0001D0009B000EB4001C1EBC01006EAC001BB
:1036E000BDE8F04F4FF0007005F076BC022000F00E
:1036F000F1FB8AF852509AF85300401C8AF85300A4
:103700009BF81D0009B000EB4001C1EBC01006EAB8
:10371000C001BDE8F04F4FF0007005F05DBCD7F878
:10372000804014F0FF4F56D0D7F8885015F0FF4F67
:1037300051D0D7F8906016F0FF4F4CD0804690F8EB
:10374000240098F8251040EA0120FCF7FCFE3146E1
:10375000FCF7D1FDD7F89410FCF743FD5D49FCF769
:1037600098FDFCF702FF009098F8220098F82310CB
:1037700040EA0120FCF7E7FE2946FCF7BCFDD7F83C
:103780008C10FCF72EFDFCF709FF85B298F820009D
:1037900098F8211040EA0120FCF7D5FE2146FCF7FD
:1037A000AAFDD7F88410FCF71CFD4C49FCF771FD0D
:1037B000FCF7F4FE83B2BDF900102A46032000F0A6
:1037C0008FF88AF8529009B0FA21BDE8F04F4FF017
:1037D000007005F001BC032000F0CEFA8AF8529088
:1037E00009B0FA21BDE8F04F4FF0007005F0F4BBCE
:1037F000032000F06FFB8AF852509AF85300401CE7
:103800008AF853009BF81D0009B000EB4001C1EBA2
:10381000C01006EAC001BDE8F04F4FF0007005F09F
:10382000DBBB18F0FF4F39D019F0FF4F36D01046F0
:10383000FCF789FE4946FCF75EFD0299FCF7D1FCD6
:103840002449FCF726FDFCF790FE00902046FCF78B
:103850007AFE4146FCF74FFD0399FCF7C2FCFCF7EA
:103860009DFE82B2BDF900100023032000F05CF938
:103870008AF852509AF85300401C8AF853009BF87B
:103880001D0009B000EB4001C1EBC01006EAC00109
:10389000BDE8F04F4FF0007005F09EBB032000F034
:1038A00019FB8AF852509AF85300401C8AF85300CA
:1038B0009BF81D0009B000EB4001C1EBC01006EA07
:1038C000C001BDE8F04F4FF0007005F085BB09B0B6
:1038D000BDE8F08F0000204102E000200000C84257
:1038E0002DE9FF4FA7B006464FF017097E2101AC26
:1038F00007A8FCF752FC8A4D01AF05F532700FC8DE
:103900000FC7D5F8DC12D5F8D80206910590DFF87C
:1039100014A206F1300000269AF81C10C7B24FF02E
:103920002308012909D08DF81B608DF81C708DF8D3
:103930001D604FF01B098DF81E8004EB0900D5F8BF
:1039400040120160D5F84412416009F10800C1B28B
:10395000481CC0B266544FF03A09411C01F0FF0BFD
:1039600004F8009004EB0B01BDF9A00006F076FE10
:103970005844C0B29AF81C1001290CD0411CC9B29D
:103980002654481CC0B26754411CC9B22654481C76
:10399000C0B204F801802118D5F849220A60D5F890
:1039A0004D224A600830C1B2481CC0B26654411C66
:1039B00001F0FF0B04F8009004EB0B01299806F0CE
:1039C000DDFD5844C0B29AF81C1001290CD0411CEE
:1039D000C9B22654481CC0B26754411CC9B226540F
:1039E000481CC0B204F801802118D5F801200A60F3
:1039F000B5F805208A80801DC0B2411CC9B226548A
:103A0000481CC5B204F8019061192A9806F084FF99
:103A10002844C0B2411CC9B2265420204A1CD2B24C
:103A20006054511CC9B2A6544A1CD2B26054511CF5
:103A3000C9B2A6544A1CD2B26054511CC9B2A65491
:103A40004A1CD2B26054511CC9B2A6544A1CD2B20C
:103A50006054511CC9B2A6544A1CD2B26054511CC5
:103A6000C9B2A6544A1CD2B26054511CC9B2A65461
:103A70004A1CD2B26054511CC9B2A6544A1CD2B2DC
:103A80006054511CC9B2A6544A1CD2B26054511C95
:103A9000C9B2A6544A1CD2B26054511CC9B2A65431
:103AA0004A1CD2B26054511CC9B2A6544A1CD2B2AC
:103AB0006054511CC9B2A6544A1CD2B26054511C65
:103AC000C9B2A6544A1CD2B26054511CC9B2A65401
:103AD0004A1CD5B26054A5F117008DF81900000AF0
:103AE0008DF81A00A5F10F008DF81100000A8DF86D
:103AF0001200294601A809F021FF691CC9B26055CE
:103B0000020A481CC0B26254A5212154401CC3B211
:103B1000002201A9052006F0D1FB2BB0BDE8F08FF3
:103B2000240F01083C0100202DE9FF4FA7B00646F5
:103B30004FF0170A7E2101AC07A8FCF72EFB8C4D35
:103B400001AF05F538700FC80FC7D5F8F412D5F8D6
:103B5000F00206910590DFF81C9206F13000002774
:103B600099F81C10C6B24FF02308012909D08DF82E
:103B70001B708DF81C608DF81D704FF01B0A8DF8BE
:103B80001E8004EB0A00D5F852120160D5F85612D7
:103B900041600AF10800C1B2481CC0B267544FF03E
:103BA0003A0A411C01F0FF0B04F800A004EB0B01E2
:103BB000BDF9A00006F0DEFF5844C0B299F81C1011
:103BC00001290CD0411CC9B22754481CC0B266540C
:103BD000411CC9B22754481CC0B204F80180211806
:103BE000D5F85B220A60D5F85F224A600830C1B27E
:103BF000481CC0B26754411C01F0FF0B04F800A040
:103C000004EB0B01299806F045FF5844C0B299F81F
:103C10001C10032926D3411CC9B22754481CC0B22A
:103C20006654411CCAB22754501CC1B204F8028029
:103C30006018D5F864220260D5F868224260B5F8B1
:103C40006C22028101F10A00C1B2481CC0B2675463
:103C5000411CCDB204F800A061192A9806F09CFD21
:103C60002844C0B2411CC9B2275420204A1CD2B2F9
:103C70006054511CC9B2A7544A1CD2B26054511CA2
:103C8000C9B2A7544A1CD2B26054511CC9B2A7543D
:103C90004A1CD2B26054511CC9B2A7544A1CD2B2B9
:103CA0006054511CC9B2A7544A1CD2B26054511C72
:103CB000C9B2A7544A1CD2B26054511CC9B2A7540D
:103CC0004A1CD2B26054511CC9B2A7544A1CD2B289
:103CD0006054511CC9B2A7544A1CD2B26054511C42
:103CE000C9B2A7544A1CD2B26054511CC9B2A754DD
:103CF0004A1CD2B26054511CC9B2A7544A1CD2B259
:103D00006054511CC9B2A7544A1CD2B26054511C11
:103D1000C9B2A7544A1CD2B26054511CC9B2A754AC
:103D20004A1CD5B26054A5F117008DF81900000A9D
:103D30008DF81A00A5F10F008DF81100000A8DF81A
:103D40001200294601A809F0F9FD691CC9B26055A5
:103D5000020A481CC0B26254A5212154401CC3B2BF
:103D6000002201A9052006F0A9FA2BB0BDE8F08FCA
:103D7000240F01083C01002070B5A6B006461725A7
:103D80007E216C4606A8FCF708FA4C4901F5447000
:103D900090E80D108DE80D10D1F82003D1F8241310
:103DA0000591049046480022007F01280BD08DF831
:103DB000172006F130008DF818008DF81920232007
:103DC0001B258DF81A003FA160190B6803604B6832
:103DD00043608968816005F10C00C0B2411CCBB220
:103DE00022542020591CC9B2E0544B1CDBB262544F
:103DF000591CC9B2E0544B1CDBB26254591CC9B205
:103E0000E0544B1CDBB26254591CC9B2E0544B1C49
:103E1000DBB26254591CC9B2E0544B1CDBB2625491
:103E2000591CC9B2E0544B1CDBB26254591CC9B2D4
:103E3000E0544B1CDBB26254591CC9B2E0544B1C19
:103E4000DBB26254591CC9B2E0544B1CDBB2625461
:103E5000591CC9B2E0544B1CDBB26254591CC9B2A4
:103E6000E0544B1CDBB26254591CC9B2E054481CEC
:103E7000C5B26254A5F117008DF81500000A8DF83F
:103E80001600A5F10F008DF80D00000A8DF80E0048
:103E90002946684609F052FD691CC9B26055020AFC
:103EA000481CC0B26254A5212154401CC3B2002258
:103EB0006946052006F002FA26B070BD240F0108FD
:103EC0003C010020B2CECAFDC9E8B6A8B4EDCEF3DD
:103ED0000000000070B5A6B0064617257E216C468E
:103EE00006A8FCF75AF94E4901F53E7090E80D100E
:103EF0008DE80D10D1F80803D1F80C13059104904A
:103F000048480021007F01280BD08DF8171006F1DA
:103F100030008DF818008DF8191023201B258DF81E
:103F20001A0041A2601913680360536843609268E5
:103F3000826005F10C00C0B2421CD2B22154202094
:103F4000531CDBB2A0545A1CD2B2E154531CDBB256
:103F5000A0545A1CD2B2E154531CDBB2A0545A1CD8
:103F6000D2B2E154531CDBB2A0545A1CD2B2E15479
:103F7000531CDBB2A0545A1CD2B2E154531CDBB226
:103F8000A0545A1CD2B2E154531CDBB2A0545A1CA8
:103F9000D2B2E154531CDBB2A0545A1C02F0FF0C05
:103FA000E1540CF10102D2B204F80C00531CDBB254
:103FB000A1545A1CD2B2E054531C03F0FF0CA1547C
:103FC0000CF10102D3B204F80C005A1CD2B2E15435
:103FD000511CCDB2A054A5F117008DF81500000AB0
:103FE0008DF81600A5F10F008DF80D00000A8DF870
:103FF0000E002946684609F0A1FC691CC9B260554B
:10400000020A481CC0B26254A5212154401CC3B20C
:1040100000226946052006F051F926B070BD000067
:10402000240F01083C010020B2CECAFDC9E8B6A8A1
:10403000B4EDCEF3000000002DE9F04782460024E5
:10404000DFF8A890D9F8000020F00F00C9F80000B0
:10405000D9F8000040F00800C9F800000025244EFF
:10406000A04601276006040EC6F88C710520FDF7F6
:10407000B4FAD6F8000108B144F00104C6F88C8106
:104080000520FDF7AAFA681CC5B2082DEAD3D9F8B5
:10409000000020F00F00C9F80000D9F8000040F03F
:1040A0000300C9F80000BAF1000F02D0C6F8808101
:1040B00001E0C6F880710520FDF78FFAC6F88C7113
:1040C0000520FDF78AFAC6F88C81C6F88071D9F808
:1040D000000020F00F00C9F80000D9F8000040F0FF
:1040E0000800C9F800002046BDE8F0870010014034
:1040F000000022422DE9F0470546DFF8A890D9F8E4
:10410000000020F00F00C9F80000D9F8000040F0CE
:104110000300C9F800000024234EA046012715F033
:10412000800F02D0C6F8807101E0C6F880810520BA
:10413000FDF753FAC6F88C710520FDF74EFAC6F864
:104140008C816806050E0520FDF747FA601CC4B295
:10415000082CE4D3C6F88071D9F8000020F00F00D5
:10416000C9F80000D9F8000040F00800C9F80000C4
:104170000520FDF732FAC6F88C710520FDF72DFAFF
:10418000D6F8000108B1002400E001240520FDF765
:1041900024FAC6F88C810520FDF71FFA2046BDE8F9
:1041A000F0870000001001400000224270B5114C61
:1041B000206820F00F002060206840F0030020609D
:1041C0000D4D01202860E8600520FDF706FA002665
:1041D0002E600520FDF701FAEE600520FDF7FDF9E0
:1041E000206820F00F002060206840F00800206068
:1041F00070BD000000100140800122422DE9F04115
:10420000114C206820F00F002060206840F003006F
:1042100020600E4D00262E600127EF600520FDF77F
:10422000DCF92F600520FDF7D8F9EE600520FDF7D9
:10423000D4F9206820F00F002060206840F00800CA
:104240002060BDE8F08100000010014080012242A2
:1042500070B44FF0000C0023002A11D9CC18CD5CAB
:10426000667845EA0625A678E478360446EA0464CA
:104270002C4340F82C400CF1010C1B1D9342EDD354
:1042800070BC704730B400239C46002A16D911F840
:10429000234000F80C4031F82340250A00EB0C04C1
:1042A000657051F823502D0CA57051F823502D0E38
:1042B000E5705B1C0CF1040C9445E8D330BC7047EE
:1042C00070B582B005460E462888C0F3C500382870
:1042D00002D2C0F1380401E0C0F178040822294676
:1042E0006846FFF7CFFF22460849284600F0FEFB4C
:1042F00008226946284600F0F9FB102205F1080162
:104300003046FFF7BFFF02B070BD0000D4050020AB
:10431000002101604160044981600449C160044991
:1043200001610449416170470123456789ABCDEFC5
:10433000FEDCBA98765432102DE9F041C0B0044644
:10434000D4F800806568A668E76840226846FFF7F1
:104350007FFF05EA060027EA05010843FE490844F5
:104360000099414408444FEA7060421902EA05008E
:1043700026EA02010843F9490844019939440844EE
:104380004FEA3050811801EA020025EA0103184380
:10439000F34B1844029B334418444FEAF03008446E
:1043A00000EA010322EA000C43EA0C03DFF8B4C37D
:1043B0006344DDF80CC0AC4463444FEAB3230344C8
:1043C00003EA000C21EA03054CEA050CE64DAC4477
:1043D000049D2A4462444FEA72621A4402EA030CC2
:1043E00020EA02054CEA050CE04DAC44059D294449
:1043F00061444FEA3151114401EA020C23EA0105FC
:104400004CEA050CDA4DAC44069D284460444FEA62
:10441000F030084400EA010C22EA00054CEA050CE1
:10442000D44DAC44079D2B4463444FEAB32303446B
:1044300003EA000C21EA03054CEA050CCE4DAC441E
:10444000089D2A4462444FEA72621A4402EA030C4D
:1044500020EA02054CEA050CC84DAC44099D2944EC
:1044600061444FEA3151114401EA020C23EA01058B
:104470004CEA050C0A9DACF5244CACF14F0C2844D9
:1044800060444FEAF030084400EA010C22EA0005DB
:104490004CEA050CBA4DAC440B9D2B4463444FEAE7
:1044A000B323034403EA000C21EA03054CEA050C9C
:1044B000B44DAC440C9D2A4462444FEA72621A44E3
:1044C00002EA030C20EA02054CEA050CAE4DAC44AE
:1044D0000D9D294461444FEA3151114401EA020C17
:1044E00023EA01054CEA050CA84DAC440E9D284476
:1044F00060444FEAF030084400EA010C22EA00056B
:104500004CEA050CA24DAC440F9D2B4463444FEA8A
:10451000B323034403EA010C20EA01054CEA050C2D
:104520009C4DAC44019D2A4462444FEAF2621A4415
:1045300002EA000C23EA00054CEA050C964DAC4457
:10454000069D294461444FEAF15101EB020C0CEA4B
:10455000030122EA03052943904D29440B9D284479
:1045600008444FEAB040604400EA02012CEA020528
:1045700029438B4D2944009D2B4419444FEA313186
:10458000014401EA0C0320EA0C052B43854D2B4422
:10459000059D2A441A444FEAF2620A4402EA0003E3
:1045A00021EA00052B43804D2B440A9DAC44634413
:1045B0004FEAF35303EB020C0CEA010322EA010574
:1045C0002B437A4D2B440F9D284418444FEAB040AA
:1045D000604400EA02032CEA02052B43744D2B448D
:1045E000049D294419444FEA31310B1803EA0C01A8
:1045F00020EA0C0529436F4D2944099D2A441144A2
:104600004FEAF161194401EA000223EA00052A4356
:10461000694D2A440E9DAC4462444FEAF2520A446A
:1046200002EA030C21EA03054CEA050C634DAC4495
:10463000039D284460444FEAB04000EB020C0CEAB2
:10464000010022EA010528435D4D2844089D2B44C2
:1046500018444FEA3030604400EA02032CEA0205B5
:104660002B43584D2B440D9D294419444FEAF161C9
:10467000014401EA0C0320EA0C052B43524D2B4464
:10468000029D2A441A444FEAF2520A4402EA000305
:1046900021EA00052B434D4D2B44079DAC44634458
:1046A0004FEAB343134403EA010C22EA01054CEA42
:1046B000050C474DAC440C9D284460444FEA303013
:1046C00000EB030C0598434D08448CEA030151406C
:1046D000294408444FEA3070604408993E4D114423
:1046E00080EA0C025A402A4411444FEA71510D18D5
:1046F0000B9985EA00021944384B82EA0C021A44ED
:1047000011444FEA314129440E9A81EA050362447B
:10471000DFF8CCC0434063441A444FEA72220A4493
:10472000019BDFF8C0C0184482EA01036B40634478
:1047300018444FEA30701044049B80EA020C2B446A
:10474000294D8CEA010CAC4463444FEA735303EBEC
:10475000000C079B194449E078A46AD756B7C7E80C
:10476000DB702024EECEBDC1AF0F7CF52AC6874793
:10477000134630A8019546FDD8988069AFF7448B61
:10478000BED75C892211906B937198FD8E4379A6F8
:104790002108B44962251EF640B340C0515A5E2636
:1047A000AAC7B6E95D102FD65314440281E6A1D8FA
:1047B000C8FBD3E7E6CDE121D60737C3870DD5F493
:1047C000ED145A4505E9E3A9F8A3EFFCD9026F6798
:1047D0008A4C2A8D4239FAFF81F6718722619D6DDC
:1047E0000C38E5FD44EABEA4A9CFDE4B8CEA0003F9
:1047F000A44D53402B4419444FEA314161440A9B74
:10480000A14D1A4481EA0C0343402B441A444FEA59
:1048100072220A440D9B9D4D184482EA010383EAEB
:104820000C032B4418444FEA307083180098984DBD
:10483000604483EA020C8CEA010CAC4460444FEA09
:10484000705000EB030C0398924D08448CEA03016E
:104850005140294408444FEA304000EB0C010698CF
:104860008D4D104481EA0C025A402A4410444FEA0C
:1048700070200844099A894D1A4480EA010383EAAA
:104880000C032B441A444FEA327202440C9B844DB1
:10489000634482EA000C8CEA010CAC4463444FEAA6
:1048A00073531344DDF83CC07E4D614483EA020C2F
:1048B0008CEA000CAC4461444FEA31411944DDF804
:1048C00008C0794D604481EA030C8CEA020CAC44C8
:1048D00060444FEA70200844DDF800C0734D624424
:1048E00060EA030C8CEA010CAC4462444FEAB26209
:1048F0000244DDF81CC06E4D634462EA010C8CEA90
:10490000000CAC4463444FEAB35303EB020C0E9B20
:10491000684D19446CEA000353402B4419444FEA94
:1049200071416144059B644D184461EA020383EAC6
:104930000C032B4418444FEAF02043180C985F4DA9
:10494000104463EA0C024A402A4410444FEAB06023
:104950001844039A5A4D624460EA010C8CEA030C35
:10496000AC4462444FEAB25202EB000C0A9A554D35
:1049700011446CEA030242402A4411444FEA714157
:104980006144019A504D1A4461EA000383EA0C0322
:104990002B441A444FEAF2220A44089B4B4D184418
:1049A00062EA0C034B402B4418444FEAB0601044B9
:1049B0000F9B474D634460EA010C8CEA020CAC4447
:1049C00063444FEAB3530344DDF818C0414D6144DA
:1049D00063EA020C8CEA000CAC4461444FEA71417A
:1049E0001944DDF834C03C4D624461EA000C8CEAA5
:1049F000030CAC4462444FEAF2220A44DDF810C0D2
:104A0000364D604462EA030C8CEA010CAC4460440D
:104A10004FEAB0601044DDF82CC0314D634460EAC9
:104A2000010C8CEA020CAC4463444FEAB3530344D8
:104A3000DDF808C02B4D614463EA020C8CEA000CDF
:104A4000AC4461444FEA71411944DDF824C0264D5D
:104A5000624461EA000C8CEA030CAC4462444FEA05
:104A6000F2220A44D4F800C0604420606068104418
:104A70006060A0680844A060E0681844E06040B04E
:104A8000BDE8F081604BBBF670BCBFBEC67E9B2804
:104A9000FA27A1EA8530EFD4051D880439D0D4D98E
:104AA000E599DBE6F87CA21F6556ACC4442229F4E4
:104AB00097FF2A43A72394AB39A093FCC3595B65A6
:104AC00092CC0C8F7DF4EFFFD15D84854F7EA86F73
:104AD000E0E62CFE144301A3A111084E827E53F799
:104AE00035F23ABDBBD2D72A91D386EB2DE9F041FE
:104AF00005460F46164600242968C1F3C500C0F1DB
:104B0000400801EBC6012960B1EBC60F02D269680B
:104B1000491C6960696801EB5671696046451BD3A1
:104B20002844183042463946FBF71EFB05F11801B0
:104B300005F10800FFF700FC444604F14000B042D4
:104B400009D8391905F10800FFF7F6FB403404F1E4
:104B50004000B042F5D90020321B39192844BDE885
:104B6000F0411830FBF700BB84460020CA1701EB68
:104B7000526323F07F02891ACAB2D911002901DDDC
:104B800042F08002034600F101000CF80320EDDC46
:104B900070470000401C802801DA401C7047B0F5C7
:104BA000804F01DA801C70470349884201DAC01C3B
:104BB0007047001D70470000FFFF1F002DE9F04106
:104BC00084B005460F4614460395002602960196CA
:104BD000204600F099F88046FFF7DCFFB84203DD7D
:104BE000B01E04B0BDE8F0818DF80860029820F096
:104BF000F000103002909DF8081003A80CF058F94E
:104C000041460398FFF7B0FF039908440390207AC8
:104C1000042813D038A103A80CF036F9032103A807
:104C20000CF046F98DF80460A17E019861F3410013
:104C30000190E17E59B140F004000AE030A103A8E0
:104C40000CF022F9042103A80CF032F9EAE720F075
:104C50000400019010F0040F08D094F83D1061F3A7
:104C6000C40094F83C1061F345100190206C08B921
:104C7000A06C18B1019840F080000190E06C08B978
:104C8000606D18B1019840F0400001909DF804104B
:104C900003A80CF00DF9218B03A80CF00FF903A861
:104CA00063692269E1680CF019F9E07E58B103A844
:104CB000E36AA26A616A0CF011F903A8A36B626B44
:104CC000216B0CF00BF9019E16F0800F05D003A8A4
:104CD000A36C626C216C0CF001F916F0400F05D04A
:104CE00003A8636D226DE16C0CF0F8F80398401B8B
:104CF00004B0BDE8F08100004D51497364700000BC
:104D00004D5154540000000070B504460025207A2F
:104D1000032802D0042802D002E00C2500E00A2576
:104D200062692169E06800F0F1F82844851CE07EA2
:104D300068B1E26AA16A606A00F0E8F80646A26B10
:104D4000616B206B00F0E2F830442844051D206CB4
:104D500008B9A16C29B1A26C616C00F0D7F82844A5
:104D6000851CE06C08B9616D29B1626D216D00F0A0
:104D7000CDF82844851C284670BD2DE9F04F83B03E
:104D80000646DDF834A00C9F129C884691461D46CD
:104D900002960020019000942846109B0F9A0E99CD
:104DA00000F036F88346FFF7F5FE404504DD6FF06E
:104DB000010003B0BDE8F08F302069F3C30065F354
:104DC000420067F3000001909DF8041002A80CF067
:104DD0006FF859460298FFF7C7FE029908440290FF
:104DE00002A8109B0F9A0E990CF078F8002D03DDA5
:104DF000514602A80CF062F8224611990298FBF77E
:104E0000B3F9029820440290801B03B0BDE8F08FF4
:104E10007FB50546089C039A0299019800F076F840
:104E20002044801C002D00DD801C04B070BD2DE9E5
:104E3000FF4F83B08046129F119E109D8A46934675
:104E4000CDF808804FF00009CDF8049000243146D9
:104E5000284600F042F80090FFF79CFE504503DD25
:104E6000A01E07B0BDE8F08F8DF80490019820F0E7
:104E7000F00080306BF3C30020F00600801C01902E
:104E80009DF8041002A80CF013F800990298FFF79F
:104E90006BFE02990844029002A806990CF00EF8E5
:104EA000002D14DD04EB440006EB800C02A8DCF8B6
:104EB0000830DCF80420DCF800100CF00FF817F8CC
:104EC000241002A80BF0F4FF641CAC42EADB029849
:104ED000A0EB080007B0BDE8F08F2DE9F0410646D1
:104EE0000F4602250024002E0DDD04EB440007EBE5
:104EF00080039A685968186800F008F82844C51CAF
:104F0000641CB442F1DB2846BDE8F08117B4009878
:104F1000002804D0009803B010BCFBF75BB90198DF
:104F200003B010BC7047FEE7704738B54FF4A0607F
:104F300000F0B2F825208DF8000001248DF8014022
:104F40008DF802408DF80340684600F069F826208D
:104F50008DF800008DF801408DF802408DF8034077
:104F6000684600F05DF827208DF800008DF80140BC
:104F70008DF802408DF80340684600F051F8342067
:104F80008DF8000002258DF801508DF802408DF853
:104F90000340684600F044F835208DF800008DF895
:104FA00001408DF802408DF80340684600F038F863
:104FB0000A208DF8000003208DF801008DF80240D2
:104FC0008DF80340684600F02BF811208DF80000A2
:104FD0008DF801408DF802508DF80340684600F0CE
:104FE0001FF81C208DF800008DF801408DF802405C
:104FF0008DF80340684600F013F832208DF8000069
:1050000000208DF801008DF802008DF803406846FD
:1050100000F006F80021E00600F048F838BD000076
:1050200010B44FF00F0CC27801240178002A25D06B
:10503000184A126802F4E062C2F5E062120AC2F194
:1050400004032CFA02F290F801C00CFA03F390F872
:1050500002C00CEA02021A43120101F1E02181F8B8
:105060000024007800F01F0104FA01F140098000DB
:1050700000F1E020C0F8001110BC704701F01F00E3
:1050800004FA00F04909890001F1E021C1F880012A
:1050900010BC70470CED00E0034940F0FD7040F09B
:1050A00080600860704700000CED00E021F07F0197
:1050B00021F06041084301490860704708ED00E0B5
:1050C00034480178407806295DD2DFE801F0030E0C
:1050D000243A505618B93049002081F825004FF481
:1050E0007A714FF4006003F077BF01280BD00228DB
:1050F0000BD003280BD004280BD04FF47A714FF457
:10510000006003F069BF07F075BC07F073BC07F0DF
:1051100071BC07F06FBC01280BD002280BD003280C
:105120000BD004280BD04FF47A714FF4006003F0D9
:1051300053BF08F0F7BD08F0F5BD08F0F3BD08F067
:10514000E3BD01280BD002280BD003280BD0042884
:105150000BD04FF47A714FF4006003F03DBFFCF7C1
:10516000F9BEFCF769BBFCF767BBFCF771BB4FF4FA
:105170007A714FF4006003F02FBF4FF47A714FF44F
:10518000006003F029BF4FF47A714FF4006003F020
:1051900023BF00003C010020580000202DE9F0430F
:1051A00083B000200190029003F038FB002003F050
:1051B00099FBAA2003F096FB002003F093FB8020CC
:1051C00003F090FB03F05AFB1E20FCF7FEF903F0FE
:1051D00025FB012003F086FB012003F0A1FA01204A
:1051E00003F09EFA0446012003F09AFA05460120D6
:1051F00003F096FA0646012003F092FA07460120D2
:1052000003F08EFA8046002003F08AFA814603F00C
:1052100035FB200400EB05203044C0F30F20390497
:1052200001EB0821034A4944090A118003B0BDE893
:10523000F0830000E20000202DE9F04383B000205D
:1052400001900290FEF7B2FF0020FEF753FFAA2064
:10525000FEF750FF0020FEF74DFF8020FEF74AFFCB
:10526000FEF7CCFF1E20FCF7B0F9FEF79FFF0120F0
:10527000FEF740FF0120FEF7DFFE0120FEF7DCFE17
:1052800004460120FEF7D8FE05460120FEF7D4FEB5
:1052900006460120FEF7D0FE07460120FEF7CCFEB1
:1052A00080460020FEF7C8FE8146FEF7A7FF2004D7
:1052B00000EB05203044C0F30F20390401EB082136
:1052C000034A4944090A118003B0BDE8F083000095
:1052D0005C040020704700002DE9F04F97B00446B1
:1052E00014F0010F4FF00008FE4D4FF0010600F0E2
:1052F00088827B2000F044FD00287DD00021DFF86B
:10530000E893D5F8A8C3D5F8AC73D5F8A433D5F88D
:10531000B02309EB01100360C0F804C08760C260CD
:10532000481CC1B21F29F4D9202105F56D7999E8EF
:10533000004EED4800EB0110C0F80090C0F804A04A
:10534000C0F808B0C0F80CE0481CC1B23F29F0D941
:10535000E648C0F80230C0F806C0C0F80A70C0F8CD
:105360000E204FF480711230FAF717FF2021E04829
:10537000FAF713FF4121DF48FAF70FFF4121DE481A
:10538000FAF70BFF8021DD48FAF707FF8021DC48A0
:10539000FAF703FF4021DB48FAF7FFFE4021DA4825
:1053A000FAF7FBFE9221D948FAF7F7FED848C0F881
:1053B0002680C0F82A80C0F82E80C0F832804FF4D2
:1053C0009671D448FAF7E9FE7A21D348FAF7E5FE58
:1053D0007A21D248FAF7E1FE7A21D148FAF7DDFEC8
:1053E000C821D048FAF7D9FEB421CF48FAF7D5FE44
:1053F000002042F2DE6100E01FE0CC4A22F81010EB
:10540000401CC0B26428F9D30020C64A42F2DF51E2
:1054100042F82010401CC0B2C828F9D30A2240210B
:10542000C348FAF7B3FE03224021C248FAF7AEFEA2
:10543000C14880F8008080F8018000F0E3FB0AF0AA
:1054400011FE08F069FF95F8320038B102F09EFEB7
:1054500040F6B8314FF4003003F0BEFDB74F4FF4C3
:1054600000713846FDF7CEFCB9153846FDF7CAFC89
:10547000B34FA149F87A81F84000032085F8230052
:1054800085F820808021AF48FDF7BEFCAE48C0F80B
:105490008C817878042856D16846FEF739FFC5F824
:1054A000C483C5F8C883C5F8CC83C5F8D083C5F8D4
:1054B000D483C5F8D883C5F8DC83C5F8E083C5F884
:1054C000E483C5F8E883C5F8EC83C5F8F083C5F834
:1054D000F483C5F8F883C5F8FC83C5F8008497F811
:1054E0009B2007F19C0107F53870FAF73DFE97F80D
:1054F0009B0007F53871084497F8BC2007F1BD01FF
:10550000FAF732FE07F53870FAF764FE024607F53F
:1055100038716846FFF7EAFA8C496846FEF7D0FE14
:105520004FF00009DFF824A20AF1100B0BEB490140
:105530001AF8090005F0CCFC09F1010000F0FF09A0
:10554000B9F10F0FF2D940F6B8314FF4005003F023
:1055500043FD40F6B8314FF4006003F03DFDF87EA6
:10556000242805D141F288314FF0007003F034FD5A
:10557000F87A002800F03D81387BDFF8D4B1811F34
:10558000012905D90A2803D0212801D01C2818D1C7
:1055900070490A6822F00F020A600A6842F00802A5
:1055A0000A60CE60072801D021280AD16A48066027
:1055B000DBF8000040F00100CBF800000120FCF710
:1055C00019F8F87B062808D0072806D00A2804D046
:1055D0000C2802D0002111BB01E00121FBE71728B4
:1055E0001DD021281BD00021DFF87091DFF870A1B9
:1055F00011B3D9F8001021F0F001C9F80010D9F862
:10560000001041F08001C9F800100221CAF8001012
:10561000072806D0172804D0212802D00CE0012149
:10562000E2E74D480160DBF8000040F00200CBF8F3
:1056300000000120FCF71FF8387E811F012903D9E3
:105640000A2801D021281AD1D9F8001021F00F0121
:10565000C9F80010D9F8001041F00801C9F800108D
:10566000CAF80060072801D0212808D10221480784
:1056700003F0B8FF02210122480704F0FEF8397B4D
:10568000072908D0F87B072805D0387E072802D0E4
:10569000002040B901E00120FBE7F87B172802D089
:1056A0000020E8B901E00120FBE721295AD0F87B6E
:1056B000212857D0387E212854D0002060B1012104
:1056C000880703F08FFF01221146900704F0D5F8F8
:1056D0000121880703F089FFF87B122844D068E095
:1056E00040E000005800002002E0002000E400201C
:1056F000D60F0020E5E50020A4E5002026E60020E6
:10570000A6E60020A6E70020E6E7002012E500203C
:1057100000E80020F61A00204EE90020C8E9002029
:1057200042EA0020BCEA002036E80020EAE8002037
:1057300026E7002066E7002000E00020000C014082
:105740003C0100200018014000002242B139002035
:105750000004014000100140140401400008014011
:105760000C0801400120A9E7D9F8000020F0F00062
:10577000C9F80000D9F8000040F08000C9F8000026
:10578000CAF80080DF4F0421384603F02BFF0121C7
:10579000384603F027FF01221146384604F06DF821
:1057A00001220421384604F068F80121384603F04C
:1057B0001CFF0AF0E9FA40F6C4114FF4001003F0A0
:1057C0000BFC4FF448614FF0807003F005FC40F68D
:1057D0005A214FF0806003F0FFFB40F628214FF480
:1057E000800003F0F9FB41F288314FF4000003F030
:1057F000F3FB85F801804FF6E8514FF4004003F0C9
:10580000EBFBC14F01213846FDF7F5FAC0F101006D
:10581000C2B201213846FDF7F9FA14F0800F06D024
:10582000BA480670BB48BA49007800F087FD14F00A
:10583000807F05D095F84800012801D102F0E0FAF8
:1058400014F0007F01D0FDF739FC14F0200F04D0D4
:10585000B14995F8410000F0DDFC14F0400F10D084
:10586000AE490878401EC2B2AD4802700E7085F88D
:105870004120411CA848FAF777FC0321202003F0BF
:10588000ABFB14F4004F01D007F04EFF14F4005F9F
:1058900001D003F0DDF914F0806F05D095F84800D1
:1058A000012801D102F032F914F0006F05D095F80B
:1058B0004800012801D102F061FA14F4803F01D0C0
:1058C0000AF006F814F4006F1FD095F82500401C6C
:1058D000C0B285F8250046280BD986F31388914875
:1058E0000168914A01F4E06111430160BFF3408F08
:1058F000FEE785F83B804FF4804003F07BFB4FF4DC
:10590000805003F077FBFFF7DBFB14F4805F0ED0D1
:1059100095F83C000A2800D3FEE78449097802295B
:1059200003D811B1401C85F83C0009F005FF14F0C4
:10593000080F0FD085F83C807D48067085F83E80C2
:105940007D487C49007800F0A5FB95F83E00B8B191
:1059500085F83F8014F4000F07D0FDF73DFB40F6BB
:10596000B8314FF4000003F037FB14F0020F28D0D9
:10597000DFF8B891714F99F80000032809D010E0C2
:1059800095F83F00401CC0B285F83F001428E1D9CB
:10599000FEE76B48067085F840806A49387800F069
:1059A00099FA99F81B000F2803D16649387800F05E
:1059B00021FB99F81B001F2803D16249387800F0B9
:1059C000A1FA14F4804F01D00AF0E2FB14F0100F9A
:1059D00001D008F0F5FC95F83200E8B35A4F14F402
:1059E000802F18D0002239785848FBF7DBFA0021C5
:1059F00041F20D2002F0F2FD012141F20E2002F0F1
:105A0000EDFD03200090002201900823114695F837
:105A1000290002F004FE14F4002F06D04B4802F0D7
:105A2000C1FB3870494902F08FFA14F4003F12D0DC
:105A3000474F40213846FDF7DEF9C0F10100C2B200
:105A400040213846FDF7E2F902F01CFC32214FF408
:105A5000802003F0C1FA00E015E014F4801F12D09A
:105A60003B4F40213846FDF7C6F9C0F10100C2B2F4
:105A700040213846FDF7CAF90AF044F878214FF47E
:105A8000802003F0A9FA14F4001F0BD095F8480009
:105A9000012801D00AF0B8FB4FF448714FF4001010
:105AA00003F09AFA14F4800F07D00AF07DF94FF44E
:105AB000FA614FF4800003F08FFA14F4007F06D0EF
:105AC00024480670244995F8420001F011FE14F4B0
:105AD000806F13D021490878401EC2B2204802705E
