:020000040800F2
:10000000E048002045010008AD3F0008D52F00085A
:10001000AB3F0008390D0008C19000080000000047
:10002000000000000000000000000000E17900086E
:10003000C91500080000000059430008017F0008AE
:100040005F0100085F0100085F0100085F01000810
:100050005F0100085F01000855160008D916000866
:100060005F0100085F010008051700085F01000834
:10007000B90F00085F010008291000085F0100089F
:100080005F010008811000085F0100085F0100089F
:100090005F0100085F0100085F01000861170008A8
:1000A0005F0100085F0100085F0100085F010008B0
:1000B000C18100085F0100085F0100085F010008BE
:1000C0005F0100085F0100085F0100085F01000890
:1000D0005F0100080D8A0008898A0008058B000866
:1000E000751600085F0100085F0100085F01000845
:1000F0005F0100085F0100085F0100085F01000860
:100100005F0100085F010008198300085F01000813
:10011000258800082D8900085F0100085F0100089C
:100120005F0100085F0100085F010008D9100008A6
:10013000DFF80CD000F01AFC004800474DCF000853
:10014000E04800200648804706480047FEE7FEE7F3
:10015000FEE7FEE7FEE7FEE7FEE7FEE7FEE7FEE777
:10016000057F00083101000840EA01039B0703D026
:1001700009E008C9121F08C0042AFAD203E011F8E6
:10018000013B00F8013B521EF9D27047D2B201E0A8
:1001900000F8012B491EFBD270470022F6E710B58C
:1001A00013460A4604461946FFF7F0FF204610BDE5
:1001B00030B505462A460B4612F8010B13F8014BE1
:1001C00008B1A042F8D01CB1002802D06D1CF1E7A4
:1001D000284630BD421C10F8011B0029FBD1801AB3
:1001E0007047F0B480EA0102D40F4200B2EB410F35
:1001F00002D20246084611464A0042D0C30DDDB283
:10020000C1F3C752AD1A202D35DAC1F3160141F4FE
:10021000000204B15242C5F1200602FA06F12A4159
:100220001044B3EBD05F23D0C4B1012DA0EBC35079
:1002300009DCF0BC4FF0004202EAC352DBB200F529
:10024000000000F020BA400000F1807000EBC350C5
:10025000A0F1807040EAD170490009E0490841EA04
:10026000C071A0EBC35000F50000400800EBC35084
:10027000F0BC00F0FFB96142012202EB4101001B1A
:10028000F6E7F0BC704781F00041AAE780F000403B
:10029000A7E780EA010210B502F00043400022D037
:1002A0004A001FD0010E01EB1261C0F35600C2F3E9
:1002B000560240F4000042F40002A0FB02200004B9
:1002C0007F39140400D0401C50EA124001D4400091
:1002D000491EC2B20C0604EBD010401C4008802A14
:1002E00002D003E0002010BD20F00100002900DA58
:1002F0000020184310BD30B480EA010202F000452E
:1003000030F0004221F0004013D090B1C30DD40D65
:10031000C2F31601C0F31600E41A41F4000140F4E0
:1003200000027D34914201D3641C00E04900002C9E
:1003300002DA30BC002070474FF4000000239142E5
:1003400001D3891A034340084FEA4101F7D151B163
:10035000914202D14FF0004105E002D24FF001017D
:1003600001E06FF0010103EBC450284430BC00F001
:1003700081B92DE9FE4F81EA030404F0004421F025
:10038000004100944FF0000B23F0004350EA0104B9
:100390005ED052EA03045BD0C3F30A54C1F30A559A
:1003A0002C44A4F2F3340194A0FB0254C1F31301D2
:1003B00041F48011C3F3130343F4801301FB02449F
:1003C00000FB034E840A970A44EA815447EA8357A4
:1003D000A4FB076802958D0A05FB07854FEA932C5D
:1003E00004FB0C542705029D4FEA065847EA1637CE
:1003F000B5EB08056EEB070C870E920E47EA8117E6
:1004000042EA8312A7FB0201B6EB0B0164EB000486
:100410002B0D43EA0C335E1844EB1C50DA46514670
:10042000E7FB0201C5F313044FEA0B3343EA14530D
:100430004FEA0432019C43EA0603A4F10C0402943F
:10044000009CCDE900B400F05BF903B0BDE8F08F8B
:1004500000200146F9E72DE9F04D81EA030404F09C
:10046000004B21F0004514464FF0000A23F00041F4
:1004700050EA050220D054EA01021DD0C5F30A5704
:100480000246C5F31303C1F31300C1F30A5640F447
:10049000801543F48013A7EB0608101BD64608F21C
:1004A000FD3873EB050002D308F1010801E0921852
:1004B0005B41B8F1000F03DA00200146BDE8F08D82
:1004C00000204FF48011064684460EE0171B73EBA4
:1004D000050705D3121B63EB050306434CEA010C29
:1004E00049084FEA300092185B4150EA0107EDD10C
:1004F00052EA030012D082EA040083EA05010843AD
:1005000005D0101BAB4106D20122002306E00022D9
:100510004FF0004302E06FF0010253101AEB0600A7
:100520004CEB085110EB0A0041EB0B01BDE8F04D1C
:1005300000F0D7B8C10F80EAE0700844CA079623DC
:10054000002100F0A0B896230022114600F09BB8CD
:100550000EB540F2334102910021CDE900110A4667
:100560000B4600F0CDF803B000BD00F0004220F0D3
:100570000040C10DC0F3160040F400007F2901DAED
:1005800000207047962903DCC1F19601C84001E0C4
:1005900096398840002AF4D04042704720F000404D
:1005A000C10DC0F3160040F400007F2901DA0020DD
:1005B0007047962903DCC1F19601C840704796390F
:1005C00088407047C1F30A5210B5C1F3130140F2DD
:1005D000FF3341F480119A4201DA002010BD40F24D
:1005E00033439A42A2F2334203DC524200F032F823
:1005F00010BD904010BD00F0004230F000400AD025
:10060000C10D01F56071C0F3160042EA0151C20844
:1006100040071143704700200146704701F0004336
:1006200030B421F0004150EA010206D00A0DA2F5D3
:100630006072C1F31301002A02DC30BC0020704755
:10064000440F44EAC104C100E01830BC00EBC250C2
:1006500000F010B8202A04DB203A21FA02F0002131
:10066000704721FA02F3D040C2F1200291400843C2
:10067000194670470029A8BF7047401C490008BFB1
:1006800020F00100704710B4B0FA80FC00FA0CF0C2
:1006900050EA010404BF10BC704749B1CCF12004FA
:1006A00021FA04F411FA0CF118BF01212143084387
:1006B000A3EB0C01CB1D4FEA00614FEA102042BFB3
:1006C000002010BC704700EBC35010440029A4BFA9
:1006D00010BC7047401C490008BF20F0010010BC4E
:1006E000704710B5141E73F1000408DA401C41F184
:1006F000000192185B411A4301D120F0010010BDA6
:100700002DE9F04D92469B4611B1B1FA81F202E01B
:10071000B0FA80F22032904600F03AF904460F46D3
:1007200040EA0A0041EA0B0153465A46084313D0F7
:10073000114653EA010019D0C8F140025046FFF7B4
:1007400089FF05460E4650465946424600F020F9BC
:10075000084305D0012004E020463946BDE8F08D6D
:100760000020054346EAE0762C4337430A986305A8
:10077000E40AA0EB08000022FD0A44EA47540A30CC
:1007800002D500200146E9E7010510196941DDE9BC
:10079000084500196941BDE8F04DA2E72DE9FE4F7B
:1007A000804681EA0300C00F0C46009021F0004112
:1007B00023F00045B8EB0200A94105D2404621468E
:1007C00090461C460B46024623F00040104347D09B
:1007D000270DC7F30A00C3F30A510290401A019093
:1007E00040286BDAC3F3130040F4801B0098924654
:1007F00020B10023D2EB030A63EB0B0B019859469F
:10080000C0F14002504600F0C3F806460D4650467F
:100810005946019A00F0CBF810EB08006141002422
:1008200087EA115284EAE7731A4340D0009A62B310
:10083000019A012A4FEA075215DC001B61EB020105
:100840004FF0004202EA0752CDE90042001C41F598
:10085000801132462B46FFF753FF03B0BDE8F08FFF
:1008600040462146F9E7001B61EB0201001C41F5FF
:10087000801300185B412018A2F5001747EB030115
:1008800040EAD570B6196D4111E06D084FEA3606A1
:1008900045EAC0754FEA0752001B61EB0201001CDC
:1008A00041F5801149084FEA3000001951413246A4
:1008B0002B4603B0BDE8F04FFFF713BF00980122AD
:1008C00040000023D0EB020263EBE0730098214666
:1008D0004FEAE074B8EB000061EB0401E9E783F054
:1008E00000435BE781F0004158E770B521F0004319
:1008F00003430CD0C1F30A550024D5EB040564EB87
:100900000403D617AD1AB34102DB0020014670BDC7
:10091000201841EB025170BD0EB5C10F80EAE070A6
:100920000844CA07002140F233438DE80E000A460E
:100930000B46FFF7E5FE03B000BD000030B5041E16
:1009400071F1000404DB4FF00044404264EB01010C
:10095000141E73F1000405DB1C464FF000435242A5
:1009600063EB0403994208BF904230BD064C074D2B
:1009700006E0E06840F0010394E80700984710346F
:10098000AC42F6D3FFF7D8FBB0F80008D0F8000867
:10099000202A04DB203A00FA02F10020704791403F
:1009A000C2F1200320FA03F3194390407047202A34
:1009B00006DBCB17203A41FA02F043EAE07306E087
:1009C00041FA02F3D040C2F1200291400843194697
:1009D00070472DE9F04D00231A461B1A8A4103DBAC
:1009E00000200146BDE8F08DC1F30A52C1F31301A6
:1009F00041F480154FF0000BD10702D100186D4172
:100A0000521E0027044640F2FF11384601EB620AED
:100A10003E468046024600204FF48011FFF71AFE42
:100A2000C2197141BB1846EB0100B4EB030C75EB26
:100A3000000C04D3E41A65EB000517460E46241992
:100A400008F101006D4180463428E3DDF91946EBD9
:100A50000600091BA84103D24FF0FF32134601E004
:100A6000002213461BEB070046EB0A51BDE8F04D90
:100A7000FFF737BE70B58C1810F8015B15F007034F
:100A800001D110F8013B2A1106D110F8012B03E027
:100A900010F8016B01F8016B5B1EF9D12B0705D42F
:100AA0000023521E0DD401F8013BFAE710F8013B78
:100AB000CB1A921C03E013F8015B01F8015B521E94
:100AC000F9D5A142D8D3002070BD000070B590B018
:100AD0000121084604F072F80121480204F098F858
:100AE000294E304600F04AFB2848059028480690D9
:100AF0000024079402250895099480210A91480052
:100B00000B9080000C9020200D9000020E900F940E
:100B100005A9304600F0D9FB009401208DF80400AF
:100B20008DF805004FF46020029003948DF810506A
:100B3000184C6946204600F057F8072301220B2184
:100B4000204600F077F8072302220C21204600F00F
:100B500071F80121204600F02BF80121204600F019
:100B60001BF8204600F0AEF8204600F035F80028CB
:100B7000FAD1204600F0B7F8204600F025F800280A
:100B8000FAD110B070BD0000080002404C240140B2
:100B90004000002000240140002904D0816841F079
:100BA000010181607047816821F001018160704717
:100BB000002904D0816841F48071816070478168A8
:100BC00021F480718160704701460020896811F02E
:100BD000040F00D00120704701460020896811F001
:100BE000080F00D001207047426822F4807222F47E
:100BF000702291F804C00B6842EA0C221A4342604A
:100C000082680B4B1A40D1F808C0CB6843EA0C034A
:100C100091F805C042EA4C021A438260C26A22F48B
:100C20007002097C491EC9B242EA0151C162704793
:100C3000FDF7F1FF30B4072509290CD9C468A1F1EB
:100C40000A0C0CEB4C0C05FA0CF5AC4303FA0CF354
:100C50002343C36009E0046901EB410C05FA0CF57C
:100C6000AC4303FA0CF3234303614FF01F0C072A34
:100C70000CD2436B521E02EB82020CFA02FC23EAF6
:100C80000C0391401943416330BC70470D2A0CD2CC
:100C9000036BD21F02EB82020CFA02FC23EA0C0364
:100CA00091401943016330BC7047C36A0D3A02EBAF
:100CB00082020CFA02FC23EA0C0391401943C16240
:100CC00030BC7047816841F008018160704700299D
:100CD00004D0816841F4A00181607047816821F4EB
:100CE000A00181607047816841F004018160704714
:100CF00070B505460C46284601F02AFC08B18480F0
:100D000070BD0C200CF02EF988B1056084800021A4
:100D1000C1808160074A116939B18A681AB189684E
:100D20008A68002AFBD1886070BD106170BD002008
:100D300070BD000044000020FEE700002DE9F047F0
:100D400081460024DFF8B8A0DAF8000020F00F0098
:100D5000CAF80000DAF8000040F00800CAF8000005
:100D60000025284FA04601266006040EC7F88C61B6
:100D70004FF4FA7000F031FC0121504602F034F8D3
:100D800008B144F00104C7F88C814FF4FA7000F008
:100D900024FC681CC5B2082DE6D3DAF8000020F068
:100DA0000F00CAF80000DAF8000040F00300CAF8AB
:100DB0000000154DB9F1000F02D0C5F8808101E0A7
:100DC000C5F880614FF4FA7000F007FCC7F88C6139
:100DD0004FF4FA7000F001FCC7F88C81C5F880610F
:100DE000DAF8000020F00F00CAF80000DAF800007E
:100DF00040F00800CAF800002046BDE8F087000077
:100E00000008014000002242000021422DE9F04785
:100E10000546DFF8BCA0DAF8000020F00F00CAF8A1
:100E20000000DAF8000040F00300CAF800000024D7
:100E3000284FDFF8A490A046012615F0800F02D0BD
:100E4000C7F8806101E0C7F880814FF4FA7000F0C4
:100E5000C4FBC9F88C614FF4FA7000F0BEFBC9F80E
:100E60008C816806050E4FF4FA7000F0B6FB601C2A
:100E7000C4B2082CE1D3C7F88061DAF8000020F092
:100E80000F00CAF80000DAF8000040F00800CAF8C5
:100E900000004FF4FA7000F0A0FBC9F88C614FF429
:100EA000FA7000F09AFB0121504601F09DFF08B155
:100EB000002400E001244FF4FA7000F08EFBC9F822
:100EC0008C814FF4FA7000F088FB2046BDE8F08773
:100ED0000008014000002142000022422DE9F041BB
:100EE000134C206820F00F002060206840F00300C1
:100EF0002060104D012028600F4E30604FF4FA70D2
:100F000000F06BFB00272F604FF4FA7000F065FBD8
:100F100037604FF4FA7000F060FB206820F00F009B
:100F20002060206840F008002060BDE8F0810000EB
:100F300000080140800121428C0122422DE9F0414C
:100F4000154C206820F00F002060206840F003005E
:100F50002060124E00253560114F4FF00108C7F890
:100F60008C814FF4FA7000F038FBC6F800804FF423
:100F7000FA7000F032FBC7F88C514FF4FA7000F0B1
:100F80002CFB206820F00F002060206840F0080053
:100F90002060BDE8F081000000080140800121428E
:100FA000000022420023002904D9C2545B1CDBB29A
:100FB0008B42FAD37047000010B5202000F068F98A
:100FC000002826D0134C4021204607F0E6FD0028DB
:100FD000F9D0102000F0B6F820880F4908880022C8
:100FE0008021204607F0CEFD00210C4800F0B8F823
:100FF0000B490022CA7101228A7140F22551204614
:1010000007F0ABFDBDE810404FF48061054801F0EA
:10101000F9BE10BD00480040044800401C000240DA
:10102000180000200014014010B54FF4005000F0EB
:101030002FF900281BD00E4C4021204607F0ADFDB3
:101040000028F9D04FF4805000F07CF82188204629
:10105000084909880022802107F094FD00210648F4
:1010600000F07EF80548002101710121C17010BD1A
:1010700000380140043801404400024018000020BC
:1010800010B54FF0007000F003F900281BD00E4C93
:101090004021204607F081FD0028F9D04FF08070F4
:1010A00000F050F821882046084909880022802154
:1010B00007F068FD0021064800F052F805480021BD
:1010C00041700121017010BD004400400444004003
:1010D000800002401800002010B5134800F0D8F836
:1010E000002820D0114C4021204607F056FD002852
:1010F000F9D00F4800F026F8218820460D490988CC
:101100000022802107F03EFD00210B4800F028F866
:101110000A480021817201214172BDE81040490254
:10112000074801F06FBE10BD00000210004C0040E7
:1011300000000110044C0040580402401800002038
:10114000000C014010F0805F02D003490860704736
:101150000249486070470000040402400000024059
:10116000002904D0016841F0010101607047016865
:101170004FF6FE72114001607047000002684FF6A2
:10118000FE71114001600021016041608160C16019
:10119000304A3149904204D1486840F00F0048601D
:1011A00070472E4A904204D1486840F0F0004860F1
:1011B00070472B4A904204D1486840F47060486000
:1011C0007047284A904204D1486840F47040486013
:1011D0007047254A904204D1486840F47020486026
:1011E0007047224A904204D1486840F47000486039
:1011F00070471F4A904204D1486840F070604860D0
:1012000070471C4A111F904204D1086840F00F003B
:1012100008607047184A904204D1086840F0F00016
:1012200008607047154A904204D1086840F4706025
:1012300008607047124A904204D1086840F4704038
:10124000086070470F4A9042FBD1086840F4702054
:101250000860704708000240000002401C00024085
:101260003000024044000240580002406C0002403E
:1012700080000240080402401C0402403004024086
:101280004404024058040240406880B270470000A5
:10129000002210F0805F02D00449096801E004498F
:1012A0000968014200D00122104670470004024044
:1012B00000000240002A03D0026811430160704719
:1012C000026822EA01010160704710B402686FF3FE
:1012D0000E12D1F820C08B684C6943EA0C03D1F898
:1012E00010C04CEA040C43EA0C03D1F818C043EADE
:1012F0000C03D1F81CC043EA0C03D1F824C043EA24
:101300000C03D1F828C043EA0C031A430260CA68F0
:1013100042600A6882604968C16010BC7047000082
:101320002DE9F0438BB00121084603F047FCDFF8BC
:10133000A49000214846FFF713FF4846FFF71EFF21
:10134000254F009725480190102002904FF4807897
:10135000CDF80C800024049480250595069407940C
:1013600008944FF4405609960A9469464846FFF798
:10137000ACFF6801FFF7E6FE00214846FFF7F0FEEC
:10138000012202214846FFF795FFDFF85490002123
:101390004846FFF7E5FE4846FFF7F0FE0097114884
:1013A00001900294CDF80C8004940595069407945E
:1013B000089409960A9469464846FFF786FF680232
:1013C000FFF7C0FE01214846FFF7CAFE0BB0BDE89B
:1013D000F083000044000240043801402D0C00203E
:1013E00058000240AD0700202DE9F0438BB00121E9
:1013F000084603F0E3FBDFF8A49000214846FFF71E
:10140000AFFE4846FFF7BAFE254F009725480190EA
:10141000102002904FF48078CDF80C8000240494C2
:10142000802505950694079408944FF44056099634
:101430000A9469464846FFF748FF6804FFF782FEB2
:1014400000214846FFF78CFE012202214846FFF7A3
:1014500031FFDFF8549000214846FFF781FE4846EF
:10146000FFF78CFE0097114801900294CDF80C8094
:101470000494059506940794089409960A9469467D
:101480004846FFF722FF6803FFF75CFE012148464C
:10149000FFF766FE0BB0BDE8F0830000800002405D
:1014A000044400402D0B00206C000240AD060020DB
:1014B00010B58CB00121084603F080FB154C0021CB
:1014C0002046FFF74DFE2046FFF758FE12480190D8
:1014D000124802901020039080220492002105916E
:1014E00006920791089109914FF440500A900B9190
:1014F00001A92046FFF7E9FE1020FFF723FE002197
:101500002046FFF72DFE012202212046FFF7D2FEE2
:101510000CB010BD1C000240044800402D0D0020FE
:101520002DE9F0418CB0214F019721480290102005
:10153000039080250495002405940695079408944B
:10154000099446020A960B94DFF8688001A9404688
:10155000FFF7BBFE1848FFF7F5FD00214046FFF7F7
:10156000FFFD012202214046FFF7A4FE0197134828
:1015700002900394049505940695079408940994A1
:101580000A960B940E4C01A92046FFF79EFE0D48CB
:10159000FFF7D8FD01212046FFF7E2FD01220221DD
:1015A0002046FFF787FE0CB0BDE8F081044C0040F8
:1015B0002D0E002058040240000001102D090020CB
:1015C000300402400001001070474FF4FA514843C4
:1015D00000E0401E0028FCD1704700EB8000800036
:1015E00000E0401E0028FCD17047002801D00021F7
:1015F0000160704770B584B00446012000F0B2F875
:1016000006208DF8080001268DF8096000258DF868
:101610000A500CB1012100E000218DF80B1002A846
:1016200002F040FD012000F09DF80021022001F0B1
:101630002BFB00968DF804500C208DF805000CB1A2
:10164000012000E000208DF80600684600F0AAF8AE
:1016500004B070BD06480549007831F81020521CCE
:1016600021F81020012000F07DB80000C8E900201A
:10167000B1000020704730B583B00446022000F06E
:1016800071F807208DF8080001208DF80900002569
:101690008DF80A500CB1012100E000218DF80B10EB
:1016A00002A802F0FFFC022000F05CF801210020FB
:1016B00001F0EAFA022000908DF804500C208DF819
:1016C00005000CB1012000E000208DF806006846FE
:1016D00000F068F803B030BD08480749007831F8D9
:1016E0001020521C21F810200548417D491C4175ED
:1016F000022000F037B8000042EA0020B1000020CC
:101700001800002010B54FF4802006F08FFB13481E
:1017100005F043FC114CE07810F0080F04D01421C0
:101720004FF4802006F074FBE07810F0100F05D025
:1017300032214FF4002006F06BFB07E010F0200F81
:1017400004D014214FF4802006F062FB034805F01A
:1017500024FCBDE81040102000F004B8A4060020CE
:101760007047000001490860704700001404014000
:1017700000B583B01020FFF7F5FF0421022001F02F
:1017800083FA1020009000208DF804000C208DF8C2
:10179000050001208DF80600684600F003F803B04C
:1017A00000BD0000214A83790168002B34D0136802
:1017B00023EA01011160111D0A6803689A430A6057
:1017C000017901F1804101F582310A6803681A4309
:1017D0000A60174B19680268914319601A1D116855
:1017E000D0F800C021EA0C0111604179102908D01D
:1017F00001F1804101F582310A68006810430860F8
:1018000070471968D0F800C041EA0C0119601168EE
:101810000068084310607047007900F1804000F5CF
:101820008230026822EA0101016070470004014031
:10183000080401407047704741F270714FF4006036
:1018400006F0E6BA41F288314FF4805006F0E0BA73
:1018500041F270714FF4006006F0DABA70477047D9
:1018600041F288314FF4805006F0D2BA2DE9F041B0
:10187000044688460B234BA2214640460BF0A8FBAA
:101880004B4D85F8520005F1E8004078042807D157
:101890000C2348A2214640460BF09AFB85F85200E3
:1018A00095F8520000284BD04044D0F80110C5F8FC
:1018B000A310D0F81100C5F8A70042480AF0B8FA02
:1018C000A5F8720040480AF0B3FAA5F87400014682
:1018D000B5F872003D4EA0F504520227B2F5007F24
:1018E00030D2D31702EB1372C2F30F12A5F8762091
:1018F000C0F34200A5F87800354B03EBC20319543E
:101900000344090A5970334B322103EB820303EB82
:1019100050031970304B03EB820202EB5000017050
:1019200080213046FEF739FC347022464146701C57
:10193000FEF71AFC9621780306F06AFA85F83E70E5
:10194000BDE8F081A0F50C52B2F5007FF8D3A0F508
:101950001452B2F5907FF3D21046C21700EB92708A
:10196000C0F38F00A5F876001C4A02F8101002EBB5
:101970004002090A51701A4A05211154802102F6C9
:10198000BA20FEF70AFC347022464146701CFEF76E
:10199000EBFB96214FF4804006F03AFA85F83E7052
:1019A000BDE8F0817B226D6574686F64223A220085
:1019B000580000207B22636F6D6D616E64223A22B5
:1019C00000000000FB000020FF000020EA190020BA
:1019D00012E4002026E60020A6E6002012E5002002
:1019E000300F002010B5274C94F82700002806D0AF
:1019F000BDE8104032214FF4804006F009BA94F857
:101A00002100042808D038B1BDE810404FF4FA7125
:101A10004FF4804006F0FCB9042184F8211094F8BA
:101A2000200048B1042811D00021052825D084F8D1
:101A3000201084F8211010BD84F82010BDE810405B
:101A40004FF496714FF4804006F0E2B90C210E4835
:101A50000BF08EFB94F855100C4807F0B5FD0B49C0
:101A60000B480CF03BF9052084F82000BDE810403D
:101A70004FF49671102006F0CBB984F8201084F84A
:101A8000211010BD580000203F020020F00000206F
:101A9000EA1100202DE9F04F83B0FE4E96F82700A2
:101AA000002808D003B04FF4FA61BDE8F04F4FF4BE
:101AB000805006F0ADB996F82100032809D040B156
:101AC00003B04FF4FA71BDE8F04F4FF4805006F0C8
:101AD0009FB9032786F82170DFF8BCA396F824C0CD
:101AE000AAF1E800ED490025022290F820004FF00D
:101AF00006094FF005084FF0040BA1F14103BCF1BA
:101B0000070F80F0A281DFE80CF0FD0411475CE5CF
:101B1000FC0086F8242086F820204FF496714FF4BC
:101B2000805006F075F903B0BDE8F08F4FF4807176
:101B3000DB48FEF732FB01208DF808008DF80950D4
:101B4000D74B012202A94FF412600AF0F1FF9AF874
:101B50000120042A06D1D24B012202A94FF41260BF
:101B60000BF04EF80146CE480BF002FB96F85510EC
:101B7000CC4807F029FDCB49CB480CF0AFF886F8EC
:101B8000247086F820704FF496714FF4805006F060
:101B90003FF903B0BDE8F08F86F824B086F82050F6
:101BA00086F8215086F8265041F288314FF4805053
:101BB00006F02EF903B0BDE8F08F04F1010C86F8B1
:101BC00026C096F8264001EB040C9CF820C0BCF11E
:101BD000000F08D103EB040C9CF820C0BCF1000FEF
:101BE00001D1202CE9D396F826C0BCF1200F5BD29E
:101BF00020B102280FD0032844D06BE086F82020C3
:101C000086F824B04FF496714FF4805006F000F936
:101C100003B0BDE8F08F4FF48071A148FEF7BDFA24
:101C2000A24D4FF4045805EBC40108EB04109C4B83
:101C300004220AF07DFF9AF80120042A08D196F8C0
:101C40002600974B05EBC00108EB00100AF0D8FF07
:101C5000014693480BF08CFA96F85510914807F01E
:101C6000B3FC904990480CF039F886F824B086F817
:101C700020704FF496714FF4805006F0C9F803B00D
:101C8000BDE8F08F86F824B086F8205086F8215001
:101C9000601C86F8260041F288314FF4805006F02F
:101CA000B7F803B0BDE8F08F86F8248086F822806C
:101CB00086F8205086F8215086F8265096214FF459
:101CC000805006F0A5F803B0BDE8F08F04F1010CD8
:101CD00086F826C096F8264011F804C0BCF1000F23
:101CE00006D113F804C0BCF1000F01D1402CEDD98E
:101CF00096F82610402973D838B1022812D003284C
:101D000070D000E0A1E06A4990E086F8202086F8D3
:101D100024804FF496714FF4805006F079F803B0A8
:101D2000BDE8F08F4FF480715D48FEF736FA5C48ED
:101D3000009096F82800DFF880918006030E5D4839
:101D40004FF4807B00EB841209EB04110BEB441081
:101D50000AF0C2FF01469AF80100042811D1504848
:101D6000009096F8280053498006030E96F8260046
:101D700001EB801209EB00110BEB40100BF048F85F
:101D8000014647480BF0F4F996F85510454807F01E
:101D90001BFC444944480BF0A1FF96F8280070B1A1
:101DA00086F8285086F8248086F820704FF49671C3
:101DB0004FF4805006F02CF803B0BDE8F08F0120FE
:101DC00086F8280086F8248086F8205086F821506E
:101DD0004FF49671000306F01BF803B0BDE8F08FD6
:101DE00012E0FFE786F8248086F8205086F821501C
:101DF00086F82850601C86F826004FF496714FF440
:101E0000805006F005F8E8E786F8249086F8205020
:101E100086F8215086F8265041F288314FF48050E0
:101E200005F0F6FFD9E7631C86F8263096F82640C1
:101E30000B5D0BB9492CF6D396F82610492974D2BC
:101E400050B1022813D003285ED041F288314FF4FC
:101E5000805005F0DDFFC0E786F8202086F824904A
:101E60004FF496714FF4805005F0D2FFB5E74FF470
:101E700080710B48FEF791F9104D4FF4145805EBA3
:101E8000440108EB8400064B01220AF051FE9AF847
:101E9000012015E05800002040010020E5E5002069
:101EA0006A180020ED000020EA11002012E4002052
:101EB000300F0020581C002002E0002012E5002016
:101EC000042A09D196F826001F4B05EB400108EBC8
:101ED000800001220AF094FE01461B480BF048F9ED
:101EE00096F85510194807F06FFB184918480BF081
:101EF000F5FE86F8229086F820704FF496714FF424
:101F0000805005F085FF68E786F8249086F8205019
:101F100086F82150601C86F8260041F288314FF483
:101F2000805005F075FF58E7FFE7012086F8240090
:101F300086F8205086F8215086F826509621000316
:101F400005F066FF49E700006A180020ED00002058
:101F5000EA1100200948002180F8201080F82110A3
:101F6000012280F82420FF2280F8232080F8251009
:101F700041F288314FF4805005F04ABF58000020EC
:101F800070B50D220D2826D9164B93F807C01C7A80
:101F90005D7A8B5CCC2B1FD18B1813F8036C6645D4
:101FA0001AD113F8026CA64216D113F8016CAE4296
:101FB00012D1881813F8051C10F8060C062202EB43
:101FC0000121084481B2A3F10A000AF0B9FC0649D4
:101FD000022081F83E0070BD521CD2B28242D8D39A
:101FE00070BD00006A1800205800002010B5234C76
:101FF00094F82700002806D0BDE8104032214FF4A5
:10200000804005F005BF94F82100022808D038B1BF
:10201000BDE810404FF4FA714FF4804005F0F8BE6F
:10202000022084F8210094F8200048B1042811D03F
:10203000002105281DD084F8201084F8211010BD3F
:10204000042084F82000BDE810404FF4967100038E
:1020500005F0DEBE0AA10B480BF040FE052084F817
:102060002000BDE810404FF496714FF4804005F019
:10207000CFBE84F8201084F8211010BD5800002035
:10208000303237006A1900202DE9F05FE64C94F8F1
:102090002700002807D0BDE8F05F4FF4FA614FF445
:1020A000805005F0B5BE94F82100032808D038B15F
:1020B000BDE8F05F4FF4FA714FF4805005F0A8BE10
:1020C000032784F82170D84994F82400DFF860C30E
:1020D00000230426D54D91F820204FF006084FF03C
:1020E00005094FF0020B4FF0010EACF1410A072831
:1020F00080F04581DFE800F0FE04103F59C5D800AC
:1021000084F824B084F820B0BDE8F05F4FF49671F5
:102110004FF4805005F07CBE1920287120202875CE
:1021200009206875AE75EB752B766B7685F81AE02D
:10213000EB76112105F10B0000F06EFE2877000A06
:102140006877DD20A877A87D1B30C1B284F85710CE
:10215000B84807F039FAB749B4480BF0BFFD84F826
:10216000247084F82070BDE8F05F4FF496714FF44E
:10217000805005F04DBE84F8246084F8203084F847
:102180002130252028712B75212068751020A87515
:10219000EB7584F82630BDE8F05F41F2883100022B
:1021A00005F036BE481C84F8260094F826100CEB87
:1021B000010090F8200030B90AEB010090F82000EF
:1021C00008B92029EED394F82600202840D222B165
:1021D000022A0ED0032A2AD053E084F820B084F8D3
:1021E0002460BDE8F05F4FF496714FF4805005F025
:1021F0000FBE2B7521206875102007F09BF9A87D74
:102200001B30C1B284F857108A4807F0DDF98949BC
:1022100086480BF063FD84F8246084F82070BDE8E4
:10222000F05F4FF496714FF4805005F0F1BD84F8E3
:10223000246084F8203084F82130481C84F826007B
:10224000BDE8F05F41F288314FF4805005F0E0BD09
:1022500084F8249084F8203084F8213035202871C7
:102260002B7585F815E02020A875EB7584F82630CD
:10227000BDE8F05F9621C00105F0CABD401C84F89E
:10228000260094F826001CF8001021B91AF8001056
:1022900009B94028F2D994F82610402942D82AB129
:1022A000022A0FD0032A2CD0634855E084F820B0CE
:1022B00084F82490BDE8F05F4FF496714FF480509D
:1022C00005F0A6BD2B7585F815E009F029FDA87D60
:1022D0001B30C1B284F85710564807F075F95549BC
:1022E00052480BF0FBFC84F8249084F820704FF4E3
:1022F000967100E043E0BDE8F05F4FF4805005F0D8
:1023000087BD84F8249084F8203084F82130401C64
:1023100084F82600BDE8F05F41F288314FF4805028
:1023200005F076BD84F8248084F8203084F82130CC
:10233000192028712B7525206875AE75EB7584F80A
:102340002630BDE8F05F41F288314FF4805005F04F
:102350005FBD491C84F8261094F8261010F801C0BF
:10236000BCF1000F01D14929F3D394F826C0BCF188
:10237000490F4AD25AB1022A15D0032A31D0BDE8FA
:10238000F05F41F288314FF4805005F041BD84F890
:1023900020B084F82480BDE8F05F4FF496714FF4CC
:1023A000805005F035BD2B7525206875042007F099
:1023B00089F8A87D1B30C1B284F857101D4807F07A
:1023C00003F91C4919480BF089FC84F8248084F82F
:1023D0002070BDE8F05F4FF496714FF4805005F027
:1023E00017BD84F8248084F8203084F82130425CC2
:1023F0000AB1521E4254481C84F82600BDE8F05F22
:1024000096214FF4805005F003BD84F824E084F851
:10241000203084F8213084F82630BDE8F05F962122
:102420004FF4805005F0F4BC580000206A180020DA
:10243000E5E50020ED000020300F002030B5054616
:102440004FF4302000F074F8042812D1094C2069B0
:1024500040F0020020616561206940F04000206189
:102460004FF4302000F064F8216941F6FD7211400C
:10247000216130BD0020024004200949CA6812F0E1
:10248000010F01D001207047CA6812F0040F01D07B
:1024900002207047C96811F0100FFAD0032070476E
:1024A000002002400248016941F08001016170474B
:1024B0000020024004490A6822F010020A600A68FB
:1024C00010430860704700000020024070B50646C7
:1024D0000D464FF4005000F02BF804280ED1084CA4
:1024E000206940F00100206135804FF4005000F079
:1024F0001FF8216941F6FE721140216170BD000094
:1025000000200240034A116801F0380108431060BE
:10251000704700000020024003480249416003491F
:10252000416070472301674500200240AB89EFCD31
:1025300000B50346FFF7A0FF02E0FFF79DFF5B1E1B
:10254000012801D1002BF8D1002B00D1052000BDBE
:10255000014605480069002805D002688A4202D079
:1025600080680028F9D17047440000208446104656
:10257000002300290DD90CEBCC0202EB0C12DFF882
:1025800014C00CEB820C2CF813005B1CDBB28B42EA
:10259000F9D37047EA1A002003460020002A06DD1E
:1025A00013F801CB01F800C0401C9042F8DB7047E3
:1025B0002DE9F84380468946164604200090FFF72F
:1025C000ABFF47466FF30A07C8F30A00C0F5006087
:1025D000864201D8012506E0301A4105490D15D083
:1025E000022101EBD0250024002D07D907EBC420E0
:1025F000FFF724FF0090641CAC42F7D39DF8000065
:10260000042807D04FF0FF30BDE8F883012101EB2B
:10261000D025E8E7324649460948FDF7A5FD16F002
:10262000010F01D0701C00E0304682B204494046E0
:1026300000F008F8FFF736FF3046BDE8F8830000E9
:10264000D03A0020F8B506460D4617460420009003
:10265000002408E029883046FFF738FF0090A01CCE
:1026600084B2B61CAD1CBC4203D29DF80000042805
:10267000F0D03846F8BD70B584B0002001900290CB
:10268000039000F0D5FD502000F076FDAC2000F066
:1026900073FD00F0F5FD6420FEF797FF00F0C8FD24
:1026A000512000F069FD012000F008FDADF80400A4
:1026B0000446012000F002FDADF8060005460120A9
:1026C00000F0FCFCADF808000646012000F0F6FC26
:1026D000ADF80A00002000F0F1FCADF80C0000F0AD
:1026E000CFFD04F06000402803D004B04FF6FF7027
:1026F00070BD46EA052004B080B270BD70B584B0EC
:10270000002001900290039004F0A4FF502005F0F7
:1027100005F8AC2005F002F804F0CCFF6420FEF7C9
:1027200054FF04F097FF512004F0F8FF012004F05B
:1027300013FFADF804000446012004F00DFFADF8CE
:1027400006000546012004F007FFADF80800064624
:10275000012004F001FFADF80A00002004F0FCFEA7
:10276000ADF80C0004F0A6FF04F06000402803D090
:1027700004B04FF6FF7070BD46EA052004B080B289
:1027800070BD70B584B00020019002900390FEF7F8
:10279000A5FB5020FEF73AFBAC20FEF737FBFEF717
:1027A000CDFB6420FEF711FFFEF798FB5120FEF7EA
:1027B0002DFB0120FEF7C2FAADF80400044601200B
:1027C000FEF7BCFAADF8060005460120FEF7B6FAA2
:1027D000ADF8080006460120FEF7B0FAADF80A0091
:1027E0000020FEF7ABFAADF80C00FEF7A7FB04F0F3
:1027F0006000402803D004B04FF6FF7070BD46EA79
:10280000052004B080B270BD30B583B000200090C8
:102810000190029000F00CFD502000F0ADFCAC20C7
:1028200000F0AAFC00F02CFD6420FEF7CEFE00F0C4
:10283000FFFC512000F0A0FC012000F03FFCADF8AF
:1028400000000446012000F039FCADF80200054606
:10285000012000F033FCADF80400002000F02EFC55
:10286000ADF8060000F00CFD14F0C00F03D003B06B
:102870004FF6FF7030BD45EA042003B080B230BD92
:10288000F0B583B0002000900190029004F0E2FEC9
:10289000502004F043FFAC2004F040FF04F00AFF96
:1028A0006420FEF792FE04F0D5FE512004F036FFBE
:1028B000012004F051FEADF800000446012004F0B0
:1028C0004BFEADF802000546012004F045FEADF8D0
:1028D00004000646002004F03FFEADF8060007465F
:1028E00004F0E8FE14F0C00F03D003B04FF6FF7001
:1028F000F0BD45EA042080B2034A47EA0621890870
:10290000118003B0F0BD0000DE00002030B583B0C0
:102910000020009001900290FEF7E0FA5020FEF7B0
:1029200075FAAC20FEF772FAFEF708FB6420FEF79A
:102930004CFEFEF7D3FA5120FEF768FA0120FEF7AD
:10294000FDF9ADF8000004460120FEF7F7F9ADF8F7
:10295000020005460120FEF7F1F9ADF80400002061
:10296000FEF7ECF9ADF80600FEF7E8FA14F0C00F38
:1029700003D003B04FF6FF7030BD45EA042003B02A
:1029800080B230BD2DE9F84F01217D2002F040F9E1
:102990000121082000F0EAF90121B54800F0E6F92C
:1029A0000120ADF8000010258DF8035003248DF8A8
:1029B00002406946AF4800F07BF90121AD4800F0C4
:1029C00021FA4FF04009ADF800908DF803508DF8D2
:1029D00002406946A74800F06BF90121A64800F0C3
:1029E00011FAA802ADF800008DF803508DF80240EE
:1029F0006946A24800F05CF9A902A04800F002FA7A
:102A00006802ADF800008DF803508DF80240694669
:102A10009A4800F04DF96902984800F0F3F9E8028D
:102A2000ADF800008DF803508DF8024069469348D8
:102A300000F03EF9E902914800F0E4F94FF4007B20
:102A4000ADF800B018278DF803708DF80240694684
:102A50008B4800F02DF94FF4806AADF800A00426F1
:102A60008DF803606946864800F022F92020ADF811
:102A700000008DF803708DF8024069467F4800F031
:102A800017F9ADF800908DF8036069467B4800F0B7
:102A90000FF9ADF800508DF803708DF802406946CB
:102AA000764800F005F91021744800F0ABF90820D1
:102AB000ADF800008DF803606946704800F0F8F842
:102AC0004FF08008ADF800808DF803708DF802405B
:102AD00069466A4800F0ECF88021684800F094F9F3
:102AE0002801ADF800008DF803708DF802406946AA
:102AF000624800F0DDF8ADF800B08DF8036069467B
:102B00005E4800F0D5F8ADF800A08DF803508DF8C0
:102B100002406946594800F0CBF8ADF800A08DF8A6
:102B200003708DF80240DFF85CA16946504600F062
:102B3000BFF8E801ADF800008DF803606946504623
:102B400000F0B6F8ADF800B08DF803508DF80240F3
:102B50006946494800F0ACF82802ADF800008DF84D
:102B600003708DF802406946504600F0A1F8ADF8B8
:102B700000608DF803606946404800F099F828012C
:102B8000ADF800008DF803508DF8024069463A48D0
:102B900000F08EF8ADF800908DF803508DF80240EB
:102BA0006946354800F084F84021334800F02AF99E
:102BB0007C20ADF8000048278DF8037069462D4849
:102BC00000F076F8ADF800508DF803508DF8024013
:102BD00069462B4800F06CF81021294800F014F9E0
:102BE000ADF800508DF803706946504600F060F86B
:102BF000ADF800808DF803508DF8024069461E48FC
:102C000000F056F80620ADF8000000208DF8030013
:102C10006946504600F04CF80820ADF800008DF8E9
:102C200003508DF802406946504600F041F80120FB
:102C3000ADF800008DF803608DF8024069465046FB
:102C400000F036F8ADF800408DF803608DF80240D2
:102C500069460B4800F02CF8ADF800808DF8035061
:102C60008DF802406946034800F022F8BDE8F88F6D
:102C70003000140000180140000C01400014014015
:102C800000080140001001408A07120F0F239340F3
:102C900021F0030101F1804101F58031D1F808C034
:102CA0002CEA03038B608B68904018438860704760
:102CB0002DE9F001002291F803C00CF00F031CF085
:102CC000100F03D091F802C04CEA030391F800C042
:102CD0004FF00F071CF0FF0F4FF001061ED00468E5
:102CE00006FA02FC0D8805EA0C05654512D195002F
:102CF00007FA05F824EA080403FA05F52C43CD7811
:102D0000282D02D0482D03D004E0C0F814C001E003
:102D1000C0F810C0521C082AE2D304600A88FF2AB7
:102D200020D94468002202F1080C06FA0CFC0D8838
:102D300005EA0C05654511D1950007FA05F824EA66
:102D4000080403FA05F52C43CD78282D01D1C0F8ED
:102D500014C0CD78482D01D1C0F810C0521C082AEB
:102D6000E1D34460BDE8F0017047000070B4DFF8C3
:102D700074C010F0004F02D0DCF81C2001E0DCF839
:102D80000420C0F303444FF4401333EA00054FEA34
:102D900050534FEA031386B206FA03F309D010F436
:102DA000801F0FD0032505FA04F4A24342F070629D
:102DB0000BE022F07062DCF8044024F07064CCF880
:102DC000044002E09A4342F0706201B11A4310F0ED
:102DD000004F03D0CCF81C2070BC7047CCF8042006
:102DE00070BC7047000001400246002092680A4211
:102DF00000D00120704702460020D2680A4200D06D
:102E0000012070474161704701617047002A01D07D
:102E1000016170474161704770B4184AFF2382F81E
:102E2000503082F85130002382F84F3000291CD9ED
:102E3000DFF84CC0ACF5807410F8013B92F85050AC
:102E40006B40A2F86C301CF8035092F8516075404A
:102E500082F85050E35C82F8513092F84F305B1C9E
:102E6000DBB282F84F308B42E6D392F8500092F8F2
:102E7000511070BC40EA012070470000580000204B
:102E8000C1F6000870B4B3B00024A4461D4E6D46D0
:102E900036F810308B4200D20B46934200D91346CD
:102EA00025F81C300CF1010303F0FF0CBCF1640F9A
:102EB000EED3002101F1010C0CF0FF0064280DD2CB
:102EC00035F8112035F810309A4203D325F8113027
:102ED00025F81020401CC0B26428F1D30CF0FF018B
:102EE0006429E7D3282035F810100C44401CC0B2E8
:102EF0003C28F8D30448A0FB0410000933B080B28A
:102F000070BC704740000020CDCCCCCC70B5FDF734
:102F1000E5FF6220FDF77AFF5220FDF777FFFEF70D
:102F20000DF841F28830FEF758FBFDF7D7FF63201C
:102F3000FDF76CFF4FF4FA60FEF74FFB0120FDF741
:102F4000FDFE4FF4FA60FEF748FB0120FDF7F6FEA8
:102F500005464FF4FA60FEF740FB0020FDF7EEFE59
:102F60000446FDF7EBFF44EA052070BD70B509F09B
:102F700049F8060B00F00F0100F4706041EA1010F0
:102F80000F2E1DD0FDF7E4FA04460D463046FDF73E
:102F9000DFFA02460B4600204FF080410AF0C2F9EA
:102FA000094A0A4BFDF7E5F922462B46FDF7E1F900
:102FB0000022074BFDF74FFAFDF704FB80B270BD0E
:102FC0004FF6FF7070BD00000AD7A3703D0AA73FFF
:102FD00000002440FEE7000070B5154DE87B122884
:102FE00018D1A5F1E80191F84400401CC0B281F865
:102FF0004400052800D9FEE70E48018821F0200191
:1030000001800D4C012020604FF4FA60FEF7E5FAD4
:1030100000202060E87E0F2808D109490748097878
:103020000170BDE87040012006F0EEB870BD0000F0
:1030300040010020200C00408C0122422D0C002079
:1030400090F5000810B5012001F002FF612001F0A9
:10305000B9FE0028FAD045F2555000F029F80320B7
:1030600000F01AF840F6B83000F01CF800F00CF848
:10307000BDE81040AFF3008002494CF6CC40086038
:10308000704700000030004002494AF6AA2008605C
:103090007047000000300040014948607047000060
:1030A0000030004001498860704700000030004057
:1030B0000149086070470000003000402DE9F047EA
:1030C00082460024DFF8A890D9F8000020F00F0015
:1030D000C9F80000D9F8000040F00800C9F8000065
:1030E0000025244EA04601276006040EC6F88C7108
:1030F0000520FEF772FAD6F8000108B144F0010489
:10310000C6F88C810520FEF768FA681CC5B2082D48
:10311000EAD3D9F8000020F00F00C9F80000D9F870
:10312000000040F00300C9F80000BAF1000F02D01F
:10313000C6F8808101E0C6F880710520FEF74DFADF
:10314000C6F88C710520FEF748FAC6F88C81C6F8DF
:103150008071D9F8000020F00F00C9F80000D9F8FC
:10316000000040F00800C9F800002046BDE8F087E4
:1031700000100140000022422DE9F0470546DFF82B
:10318000A890D9F8000020F00F00C9F80000D9F885
:10319000000040F00300C9F800000024234EA046C0
:1031A000012715F0800F02D0C6F8807101E0C6F843
:1031B00080810520FEF711FAC6F88C710520FEF714
:1031C0000CFAC6F88C816806050E0520FEF705FA94
:1031D000601CC4B2082CE4D3C6F88071D9F8000092
:1031E00020F00F00C9F80000D9F8000040F00800F6
:1031F000C9F800000520FEF7F0F9C6F88C7105202B
:10320000FEF7EBF9D6F8000108B1002400E0012434
:103210000520FEF7E2F9C6F88C810520FEF7DDF9FE
:103220002046BDE8F0870000001001400000224267
:1032300070B5114C206820F00F002060206840F02D
:10324000030020600D4D01202860E8600520FEF796
:10325000C4F900262E600520FEF7BFF9EE600520B8
:10326000FEF7BBF9206820F00F002060206840F0D6
:103270000800206070BD0000001001408001224263
:103280002DE9F041114C206820F00F0020602068EB
:1032900040F0030020600E4D00262E600127EF60F5
:1032A0000520FEF79AF92F600520FEF796F9EE60EB
:1032B0000520FEF792F9206820F00F0020602068BA
:1032C00040F008002060BDE8F081000000100140DF
:1032D0008001224270B44FF0000C0023002A11D963
:1032E000CC18CD5C667845EA0625A678E4783604E5
:1032F00046EA04642C4340F82C400CF1010C1B1DE1
:103300009342EDD370BC704730B400239C46002A32
:1033100016D911F8234000F80C4031F82340250A53
:1033200000EB0C04657051F823502D0CA57051F87A
:1033300023502D0EE5705B1C0CF1040C9445E8D372
:1033400030BC704770B582B005460E462888C0F381
:10335000C500382802D2C0F1380401E0C0F1780479
:10336000082229466846FFF7CFFF2246084928462B
:1033700000F0FEFB08226946284600F0F9FB102207
:1033800005F108013046FFF7BFFF02B070BD000035
:10339000D805002000210160416004498160044992
:1033A000C1600449016104494161704701234567D7
:1033B00089ABCDEFFEDCBA98765432102DE9F0419E
:1033C000C0B00446D4F800806568A668E76840226B
:1033D0006846FFF77FFF05EA060027EA0501084374
:1033E000FE4908440099414408444FEA706042197C
:1033F00002EA050026EA02010843F9490844019956
:10340000394408444FEA3050811801EA020025EAA5
:1034100001031843F34B1844029B334418444FEA0A
:10342000F030084400EA010322EA000C43EA0C03EE
:10343000DFF8B4C36344DDF80CC0AC4463444FEA26
:10344000B323034403EA000C21EA03054CEA050C0C
:10345000E64DAC44049D2A4462444FEA72621A4429
:1034600002EA030C20EA02054CEA050CE04DAC44EC
:10347000059D294461444FEA3151114401EA020C8F
:1034800023EA01054CEA050CDA4DAC44069D2844BC
:1034900060444FEAF030084400EA010C22EA0005DB
:1034A0004CEA050CD44DAC44079D2B4463444FEAD1
:1034B000B323034403EA000C21EA03054CEA050C9C
:1034C000CE4DAC44089D2A4462444FEA72621A44CD
:1034D00002EA030C20EA02054CEA050CC84DAC4494
:1034E000099D294461444FEA3151114401EA020C1B
:1034F00023EA01054CEA050C0A9DACF5244CACF11D
:103500004F0C284460444FEAF030084400EA010CB4
:1035100022EA00054CEA050CBA4DAC440B9D2B4445
:1035200063444FEAB323034403EA000C21EA030592
:103530004CEA050CB44DAC440C9D2A4462444FEA5D
:1035400072621A4402EA030C20EA02054CEA050CF6
:10355000AE4DAC440D9D294461444FEA31511144B4
:1035600001EA020C23EA01054CEA050CA84DAC4423
:103570000E9D284460444FEAF030084400EA010CF4
:1035800022EA00054CEA050CA24DAC440F9D2B44E9
:1035900063444FEAB323034403EA010C20EA010524
:1035A0004CEA050C9C4DAC44019D2A4462444FEA10
:1035B000F2621A4402EA000C23EA00054CEA050C08
:1035C000964DAC44069D294461444FEAF15101EB0C
:1035D000020C0CEA030122EA03052943904D294419
:1035E0000B9D284408444FEAB040604400EA0201C1
:1035F0002CEA020529438B4D2944009D2B44194494
:103600004FEA3131014401EA0C0320EA0C052B4357
:10361000854D2B44059D2A441A444FEAF2620A4420
:1036200002EA000321EA00052B43804D2B440A9D4A
:10363000AC4463444FEAF35303EB020C0CEA01037E
:1036400022EA01052B437A4D2B440F9D2844184450
:103650004FEAB040604400EA02032CEA02052B4323
:10366000744D2B44049D294419444FEA31310B1801
:1036700003EA0C0120EA0C0529436F4D2944099DFA
:103680002A4411444FEAF161194401EA000223EA95
:1036900000052A43694D2A440E9DAC4462444FEA1A
:1036A000F2520A4402EA030C21EA03054CEA050C33
:1036B000634DAC44039D284460444FEAB04000EBA6
:1036C000020C0CEA010022EA010528435D4D284462
:1036D000089D2B4418444FEA3030604400EA02034E
:1036E0002CEA02052B43584D2B440D9D29441944C7
:1036F0004FEAF161014401EA0C0320EA0C052B4377
:10370000524D2B44029D2A441A444FEAF2520A4475
:1037100002EA000321EA00052B434D4D2B44079D8F
:10372000AC4463444FEAB343134403EA010C22EA76
:1037300001054CEA050C474DAC440C9D28446044FF
:103740004FEA303000EB030C0598434D08448CEAF7
:1037500003015140294408444FEA307060440899FD
:103760003E4D114480EA0C025A402A4411444FEA6B
:1037700071510D180B9985EA00021944384B82EA01
:103780000C021A4411444FEA314129440E9A81EA4D
:1037900005036244DFF8CCC0434063441A444FEA57
:1037A00072220A44019BDFF8C0C0184482EA010378
:1037B0006B40634418444FEA30701044049B80EA25
:1037C000020C2B44294D8CEA010CAC4463444FEAB3
:1037D000735303EB000C079B194449E078A46AD7A4
:1037E00056B7C7E8DB702024EECEBDC1AF0F7CF525
:1037F0002AC68747134630A8019546FDD8988069A8
:10380000AFF7448BBED75C892211906B937198FD02
:103810008E4379A62108B44962251EF640B340C004
:10382000515A5E26AAC7B6E95D102FD6531444023A
:1038300081E6A1D8C8FBD3E7E6CDE121D60737C39F
:10384000870DD5F4ED145A4505E9E3A9F8A3EFFC7B
:10385000D9026F678A4C2A8D4239FAFF81F6718747
:1038600022619D6D0C38E5FD44EABEA4A9CFDE4B74
:103870008CEA0003A44D53402B4419444FEA3141D4
:1038800061440A9BA14D1A4481EA0C0343402B4436
:103890001A444FEA72220A440D9B9D4D184482EA55
:1038A000010383EA0C032B4418444FEA3070831859
:1038B0000098984D604483EA020C8CEA010CAC44F9
:1038C00060444FEA705000EB030C0398924D08449B
:1038D0008CEA03015140294408444FEA304000EB90
:1038E0000C0106988D4D104481EA0C025A402A447E
:1038F00010444FEA70200844099A894D1A4480EA1E
:10390000010383EA0C032B441A444FEA3272024447
:103910000C9B844D634482EA000C8CEA010CAC449D
:1039200063444FEA73531344DDF83CC07E4D614459
:1039300083EA020C8CEA000CAC4461444FEA31414A
:103940001944DDF808C0794D604481EA030C8CEA23
:10395000020CAC4460444FEA70200844DDF800C01B
:10396000734D624460EA030C8CEA010CAC4462447F
:103970004FEAB2620244DDF81CC06E4D634462EA55
:10398000010C8CEA000CAC4463444FEAB35303EBE4
:10399000020C0E9B684D19446CEA000353402B4403
:1039A00019444FEA71416144059B644D184461EA32
:1039B000020383EA0C032B4418444FEAF020431817
:1039C0000C985F4D104463EA0C024A402A441044AC
:1039D0004FEAB0601844039A5A4D624460EA010C01
:1039E0008CEA030CAC4462444FEAB25202EB000C86
:1039F0000A9A554D11446CEA030242402A4411448C
:103A00004FEA71416144019A504D1A4461EA000342
:103A100083EA0C032B441A444FEAF2220A44089B1F
:103A20004B4D184462EA0C034B402B4418444FEAB8
:103A3000B06010440F9B474D634460EA010C8CEA70
:103A4000020CAC4463444FEAB3530344DDF818C09E
:103A5000414D614463EA020C8CEA000CAC446144C1
:103A60004FEA71411944DDF834C03C4D624461EACB
:103A7000000C8CEA030CAC4462444FEAF2220A4484
:103A8000DDF810C0364D604462EA030C8CEA010C8C
:103A9000AC4460444FEAB0601044DDF82CC0314DB6
:103AA000634460EA010C8CEA020CAC4463444FEAC4
:103AB000B3530344DDF808C02B4D614463EA020CA4
:103AC0008CEA000CAC4461444FEA71411944DDF8C2
:103AD00024C0264D624461EA000C8CEA030CAC441D
:103AE00062444FEAF2220A44D4F800C060442060E5
:103AF000606810446060A0680844A060E0681844F2
:103B0000E06040B0BDE8F081604BBBF670BCBFBE6A
:103B1000C67E9B28FA27A1EA8530EFD4051D8804CC
:103B200039D0D4D9E599DBE6F87CA21F6556ACC440
:103B3000442229F497FF2A43A72394AB39A093FC8E
:103B4000C3595B6592CC0C8F7DF4EFFFD15D84850A
:103B50004F7EA86FE0E62CFE144301A3A111084E8E
:103B6000827E53F735F23ABDBBD2D72A91D386EB8A
:103B70002DE9F04105460F46164600242968C1F399
:103B8000C500C0F1400801EBC6012960B1EBC60FCA
:103B900002D26968491C6960696801EB5671696005
:103BA00046451BD32844183042463946FCF7DCFA18
:103BB00005F1180105F10800FFF700FC444604F187
:103BC0004000B04209D8391905F10800FFF7F6FBAB
:103BD000403404F14000B042F5D90020321B3919BD
:103BE0002844BDE8F0411830FCF7BEBA84460020F6
:103BF000CA1701EB526323F07F02891ACAB2D911A6
:103C0000002901DD42F08002034600F101000CF8BA
:103C10000320EDDC70470000401C802801DA401CC6
:103C20007047B0F5804F01DA801C70470349884225
:103C300001DAC01C7047001D70470000FFFF1F0025
:103C40002DE9F04184B005460F4614460395002641
:103C500002960196204600F099F88046FFF7DCFFB7
:103C6000B84203DDB01E04B0BDE8F0818DF80860F5
:103C7000029820F0F000103002909DF8081003A880
:103C80000BF04CFC41460398FFF7B0FF0399084442
:103C90000390207A042813D038A103A80BF02AFC43
:103CA000032103A80BF03AFC8DF80460A17E019873
:103CB00061F341000190E17E59B140F004000AE057
:103CC00030A103A80BF016FC042103A80BF026FC7E
:103CD000EAE720F00400019010F0040F08D094F8F7
:103CE0003D1061F3C40094F83C1061F3451001905D
:103CF000206C08B9A06C18B1019840F080000190C8
:103D0000E06C08B9606D18B1019840F04000019076
:103D10009DF8041003A80BF001FC218B03A80BF005
:103D200003FC03A863692269E1680BF00DFCE07EE7
:103D300058B103A8E36AA26A616A0BF005FC03A804
:103D4000A36B626B216B0BF0FFFB019E16F0800FE3
:103D500005D003A8A36C626C216C0BF0F5FB16F088
:103D6000400F05D003A8636D226DE16C0BF0ECFBF6
:103D70000398401B04B0BDE8F08100004D51497329
:103D8000647000004D5154540000000070B50446AA
:103D90000025207A032802D0042802D002E00C2556
:103DA00000E00A2562692169E06800F0F1F8284422
:103DB000851CE07E68B1E26AA16A606A00F0E8F8FA
:103DC0000646A26B616B206B00F0E2F83044284499
:103DD000051D206C08B9A16C29B1A26C616C00F0C2
:103DE000D7F82844851CE06C08B9616D29B1626D73
:103DF000216D00F0CDF82844851C284670BD2DE9C2
:103E0000F04F83B00646DDF834A00C9F129C884624
:103E100091461D4602960020019000942846109B72
:103E20000F9A0E9900F036F88346FFF7F5FE4045ED
:103E300004DD6FF0010003B0BDE8F08F302069F3BE
:103E4000C30065F3420067F3000001909DF8041081
:103E500002A80BF063FB59460298FFF7C7FE0299D0
:103E60000844029002A8109B0F9A0E990BF06CFB6D
:103E7000002D03DD514602A80BF056FB2246119996
:103E80000298FCF771F9029820440290801B03B05D
:103E9000BDE8F08F7FB50546089C039A029901980A
:103EA00000F076F82044801C002D00DD801C04B05A
:103EB00070BD2DE9FF4F83B08046129F119E109D6B
:103EC0008A469346CDF808804FF00009CDF804905B
:103ED00000243146284600F042F80090FFF79CFE8F
:103EE000504503DDA01E07B0BDE8F08F8DF80490AB
:103EF000019820F0F00080306BF3C30020F0060042
:103F0000801C01909DF8041002A80BF007FB00999B
:103F10000298FFF76BFE02990844029002A80699E6
:103F20000BF002FB002D14DD04EB440006EB800CCB
:103F300002A8DCF80830DCF80420DCF800100BF0F4
:103F400003FB17F8241002A80BF0E8FA641CAC423B
:103F5000EADB0298A0EB080007B0BDE8F08F2DE97E
:103F6000F04106460F4602250024002E0DDD04EB2D
:103F7000440007EB80039A685968186800F008F855
:103F80002844C51C641CB442F1DB2846BDE8F0811E
:103F900017B40098002804D0009803B010BCFCF7B8
:103FA00019B9019803B010BC7047FEE7704738B5E7
:103FB0004FF4A06000F0B2F825208DF80000012435
:103FC0008DF801408DF802408DF80340684600F0FE
:103FD00069F826208DF800008DF801408DF8024028
:103FE0008DF80340684600F05DF827208DF800004A
:103FF0008DF801408DF802408DF80340684600F0CE
:1040000051F834208DF8000002258DF801508DF80C
:1040100002408DF80340684600F044F835208DF8E2
:1040200000008DF801408DF802408DF8034068468D
:1040300000F038F80A208DF8000003208DF8010008
:104040008DF802408DF80340684600F02BF81120EF
:104050008DF800008DF801408DF802508DF8034076
:10406000684600F01FF81C208DF800008DF8014014
:104070008DF802408DF80340684600F013F83220B6
:104080008DF8000000208DF801008DF802008DF8F9
:104090000340684600F006F80021E00600F048F80A
:1040A00038BD000010B44FF00F0CC2780124017825
:1040B000002A25D0184A126802F4E062C2F5E062D4
:1040C000120AC2F104032CFA02F290F801C00CFAB1
:1040D00003F390F802C00CEA02021A43120101F144
:1040E000E02181F80024007800F01F0104FA01F1BA
:1040F0004009800000F1E020C0F8001110BC7047BA
:1041000001F01F0004FA00F04909890001F1E021E3
:10411000C1F8800110BC70470CED00E0034940F08D
:10412000FD7040F080600860704700000CED00E01A
:1041300021F07F0121F06041084301490860704788
:1041400008ED00E034480178407806295DD2DFE8C8
:1041500001F0030E243A505618B93049002081F876
:1041600025004FF47A714FF4006003F051BE01282E
:104170000BD002280BD003280BD004280BD04FF40F
:104180007A714FF4006003F043BE06F09DBF06F065
:104190009BBF06F099BF06F097BF01280BD00228FD
:1041A0000BD003280BD004280BD04FF47A714FF4B6
:1041B000006003F02DBE08F0FBB808F0F9B808F075
:1041C000F7B808F0E7B801280BD002280BD0032875
:1041D0000BD004280BD04FF47A714FF4006003F039
:1041E00017BEFDF7B7BEFDF727BBFDF725BBFDF7F3
:1041F0002FBB4FF47A714FF4006003F009BE4FF407
:104200007A714FF4006003F003BE4FF47A714FF4FB
:10421000006003F0FDBD00004001002058000020B8
:104220002DE9F04383B000200190029003F012FAD0
:10423000002003F073FAAA2003F070FA002003F0C4
:104240006DFA802003F06AFA03F034FA1E20FDF7BD
:10425000BCF903F0FFF9012003F060FA012003F03C
:104260007BF9012003F078F90446012003F074F98A
:104270000546012003F070F90646012003F06CF9B1
:104280000746012003F068F98046002003F064F936
:10429000814603F00FFA200400EB05203044C0F300
:1042A0000F20390401EB0821034A4944090A11800F
:1042B00003B0BDE8F0830000DE0000202DE9F043EC
:1042C00083B0002001900290FEF7B2FF0020FEF7BD
:1042D00053FFAA20FEF750FF0020FEF74DFF80207D
:1042E000FEF74AFFFEF7CCFF1E20FDF76EF9FEF742
:1042F0009FFF0120FEF740FF0120FEF7DFFE0120B7
:10430000FEF7DCFE04460120FEF7D8FE054601203C
:10431000FEF7D4FE06460120FEF7D0FE0746012038
:10432000FEF7CCFE80460020FEF7C8FE8146FEF771
:10433000A7FF200400EB05203044C0F30F20390410
:1043400001EB0821034A4944090A118003B0BDE882
:10435000F083000060040020704700002DE9F04F5A
:1043600097B00446FB4D14F0010F4FF000084FF0DA
:10437000010600F072827B2000F024FD00287DD031
:104380000021DFF8D493D5F8B0C3D5F8B473D5F8CD
:10439000AC33D5F8A82309EB011002604360C0F8E4
:1043A00008C0C760481CC1B21F29F4D9202105F5F7
:1043B0006E7999E8004EE84800EB0110C0F80090D3
:1043C000C0F804A0C0F808B0C0F80CE0481CC1B2A6
:1043D0003F29F0D9E148C0F80220C0F80630C0F803
:1043E0000AC0C0F80E704FF480711230FBF7D5FE92
:1043F0002021DB48FBF7D1FE4121DA48FBF7CDFE57
:104400004121D948FBF7C9FE8021D848FBF7C5FEFA
:104410008021D748FBF7C1FE4021D648FBF7BDFEFF
:104420004021D548FBF7B9FE9221D448FBF7B5FEF1
:10443000D348C0F82680C0F82A80C0F82E80C0F883
:1044400032804FF49671CF48FBF7A7FE7A21CE4811
:10445000FBF7A3FE7A21CD48FBF79FFE7A21CC48DB
:10446000FBF79BFEC821CB48FBF797FEB421CA4857
:10447000FBF793FE002042F2DE6100E01FE0C74A36
:1044800022F81010401CC0B26428F9D30020C149A2
:1044900042F2DF5241F82020401CC0B2C828F9D3B4
:1044A0000A224021BE48FBF771FE03224021BD488D
:1044B000FBF76CFEBC4880F8008080F8018000F0BB
:1044C000C3FB0AF005F908F06DFA95F8320038B12F
:1044D00002F078FD40F6B8314FF4003003F098FC5C
:1044E000B24F4FF400713846FEF78CFCB9153846D0
:1044F000FEF788FCAE4F9C49F87A81F84000032013
:1045000085F8230085F820808021AA48FEF77CFCEE
:10451000A948C0F88C817878042856D16846FEF7FF
:1045200039FFC5F8C883C5F8CC83C5F8D083C5F872
:10453000D483C5F8D883C5F8DC83C5F8E083C5F813
:10454000E483C5F8E883C5F8EC83C5F8F083C5F8C3
:10455000F483C5F8F883C5F8FC83C5F80084C5F872
:10456000048497F89B2007F19C0107F53870FBF74E
:10457000FBFD97F89B0007F53871084497F8BC20BD
:1045800007F1BD01FBF7F0FD07F53870FBF722FEE0
:10459000024607F538716846FFF7EAFA8749684628
:1045A000FEF7D0FE4FF00009DFF810A20AF1100B61
:1045B0000BEB49011AF8090004F0F4FF09F10100BE
:1045C00000F0FF09B9F10F0FF2D940F6B8314FF4FE
:1045D000005003F01DFC40F6B8314FF4006003F0CA
:1045E00017FC4FF448614FF0807003F011FC40F667
:1045F00042614FF0806003F00BFCF87A002800F075
:104600002481387BDFF8B8B1811F012903D90A283A
:1046100001D01C2816D16B490A6822F00F020A60EB
:104620000A6842F008020A60CE6007280AD166488C
:104630000660DBF8000040F00100CBF8000001202C
:10464000FCF7D8FFF87B062808D0072806D00A28F0
:1046500004D00C2802D00021F1B901E00121FBE7D0
:10466000172819D00021DFF86491DFF864A101B3A5
:10467000D9F8001021F0F001C9F80010D9F80010A5
:1046800041F08001C9F800100221CAF80010072883
:1046900004D0172802D00CE00121E4E74A48016069
:1046A000DBF8000040F00200CBF800000120FCF72E
:1046B000E2FF387E811F012901D90A2818D1D9F8D3
:1046C000001021F00F01C9F80010D9F8001041F0D6
:1046D0000801C9F80010CAF80060072808D10221B3
:1046E000480703F093FE02210122480703F0D9FF97
:1046F000397B072908D0F87B072805D0387E0728A2
:1047000002D0002040B901E00120FBE7F87B172828
:1047100002D00020E8B901E00120FBE7212959D0AF
:10472000F87B212856D0387E212853D0002060B154
:104730000121880703F06AFE01221146900703F069
:10474000B0FF0121880703F064FEF87B122843D0F4
:1047500067E03FE05800002002E0002000E4002075
:10476000CA0F0020E5E50020A4E5002026E6002091
:10477000A6E60020A6E70020E6E7002012E50020DC
:1047800000E80020EA1A00204EE90020C8E90020D5
:1047900042EA0020BCEA002036E80020EAE80020D7
:1047A00026E7002066E7002000E00020000C014022
:1047B000400100200018014000002242A5390020DD
:1047C00000040140001001401404014000080140B1
:1047D0000C0801400120AAE7D9F8000020F0F00001
:1047E000C9F80000D9F8000040F08000C9F80000C6
:1047F000CAF80080D44F0421384603F007FE012197
:10480000384603F003FE01221146384603F049FF03
:1048100001220421384603F044FF0121384603F009
:10482000F8FD09F0F7FD40F6C4114FF4001003F055
:10483000EFFA40F628214FF4800003F0E9FA41F244
:1048400088314FF4000003F0E3FA85F801804FF659
:10485000E8514FF4004003F0DBFABC4F0121384629
:10486000FEF7C9FAC0F10100C2B201213846FEF7D5
:10487000CDFA14F0800F06D0B5480670B648B54999
:10488000007800F07DFD14F0807F05D095F8480099
:10489000012801D102F0D0F914F0200F04D0AF4963
:1048A00095F8410000F0D8FC14F0400F10D0AC484F
:1048B0000178491ECAB2AB490A70067085F84120DA
:1048C000491CA648FBF750FC0321202003F0A0FA66
:1048D00014F4004F01D007F08BFA14F4005F01D0FC
:1048E00003F0D2F814F0806F05D095F84800012845
:1048F00001D102F075F814F0006F05D095F848006A
:10490000012801D102F056F914F4803F01D009F0DA
:1049100025FB14F4006F1FD095F82500401CC0B291
:1049200085F8250046280BD986F313888E48016840
:104930008E4A01F4E06111430160BFF3408FFEE74E
:1049400085F83B804FF4804003F070FA4FF48050BC
:1049500003F06CFAFFF7F6FB14F4805F0ED095F8C5
:104960003C000A2800D3FEE781490978022903D8D0
:1049700011B1401C85F83C0009F024FA14F0080F2E
:104980000FD085F83C807B48067085F83E807B48D8
:104990007949007800F0A0FB95F83E00B8B185F8A1
:1049A0003F8014F4000F07D0FEF716FB40F6B83135
:1049B0004FF4000003F02CFA14F0020F28D0DFF8B7
:1049C000B0916F4F99F80000032809D010E095F8D6
:1049D0003F00401CC0B285F83F001428E1D9FEE733
:1049E0006848067085F840806749387800F094FA86
:1049F00099F81B000F2803D16349387800F01CFB9D
:104A000099F81B001F2803D15F49387800F09CFA01
:104A100014F4804F01D009F0F1FE14F0100F01D012
:104A200008F014F895F83200E8B3584F14F4802FCA
:104A300018D0002239785648FCF7B4FA002141F228
:104A40000D2002F0E7FC012141F20E2002F0E2FC11
:104A500003200090002201900823114695F82900B8
:104A600002F0F9FC14F4002F06D0494802F0B6FA1F
:104A70003870474902F084F914F4003F12D0454FD2
:104A800040213846FEF7B7F9C0F10100C2B240211B
:104A90003846FEF7BBF902F011FB32214FF48020BB
:104AA00003F0B6F900E015E014F4801F12D0394F7E
:104AB00040213846FEF79FF9C0F10100C2B2402103
:104AC0003846FEF7A3F909F063FB78214FF4802004
:104AD00003F09EF914F4001F07D009F0CBFE4FF449
:104AE00048714FF4001003F093F914F4800F07D0CD
:104AF00009F0A0FC4FF4FA614FF4800003F088F94C
:104B000014F4007F06D024480670244995F842002A
:104B100001F0CAFD14F4806F13D021480178491EBA
:104B2000CAB220490A70067085F84220491C1B4809
:104B3000FBF71AFB17B00121BDE8F04F480203F064
:104B400067B917B0BDE8F08F000C004000180140B5
:104B500021000020EA13002023000020EA12002098
:104B600020000020AD0800200CED00E00400FA0554
:104B70004001002018000020EA1000201A00002048
:104B80001D0000201B000020EA0F00203C00002038
:104B900024060020000C014024000020EA1500201B
:104BA000260000202D0A0020034A516821F44041CC
:104BB000084350607047000000100240054A002979
:104BC00003D05169084350617047516921EA0000E0
:104BD0005061704700100240054A002903D0D16996
:104BE0000843D0617047D16921EA0000D061704765
:104BF00000100240054A002903D0116908431061E2
:104C00007047116921EA00001061704700100240EE
:104C1000054A002903D09169084390617047916962
:104C200021EA00009061704700100240054A002907
:104C300003D0D1680843D0607047D16821EA0000F2
:104C4000D0607047001002400248416A41F0807114
:104C5000416270470010024010B500F037F84FF481
:104C6000803000F0D9F800F027F917494870012882
:104C700024D1002000F0C6F8002000F0F9F84FF42D
:104C8000806000F0EBF80220FDF73CFC1020FDF7FF
:104C900011FC4FF4E0114FF4803000F0F9F80120DE
:104CA00000F0F0F8392000F08DF80028FAD002204A
:104CB00000F0F8F800F09EF80828FBD1BDE810409D
:104CC0004FF44040FFF770BF3E0000200D480168E0
:104CD00041F00101016041680B4A114041600168E7
:104CE00021F4102121F080710160016821F48021FC
:104CF0000160416821F4FE0141604FF41F018160B1
:104D000070470000001002400000FFF8294A516877
:104D100001F00C01284B00292CD004292CD00829A3
:104D20002CD00360516801F0F0010909DFF88CC054
:104D30001CF80110036823FA01F14160536803F481
:104D4000E0631B0A1CF8033021FA03F38360536805
:104D500003F46053DB0A1CF80330D940C160526889
:104D600002F44042920BACF104039A5CB1FBF2F105
:104D7000016170470360D5E70360D3E7516801F430
:104D80007011536803F480334FF0020C0CEB914127
:104D90003BB1536813F4003F07D0094B59430160FE
:104DA000C0E7074B59430160BCE7034B594301601F
:104DB000B8E700000010024000127A000400002052
:104DC00000093D0000224109094B01290CD00229AC
:104DD0000CD0596A00F01F00012303FA00F00842CA
:104DE00000D00122104670471968F3E7196AF1E70D
:104DF000001002400248406800F00C0070470000BC
:104E000000100240034A516821F0F001084350604D
:104E100070470000001002400C490A6822F48032FA
:104E20000A600A6822F480220A60B0F5803F07D049
:104E3000B0F5802F03D1086840F4A02008607047C7
:104E4000086840F48030086070470000001002409D
:104E5000014908607047000080044242034A5168DB
:104E600021F4E061084350607047000000100240E8
:104E7000034A516821F4605141EAC0005060704714
:104E800000100240014908667047000000004242DD
:104E9000034B5A6822F47C12084310435860704751
:104EA00000100240034A516821F00301084350609A
:104EB000704700000010024008B50020009031202B
:104EC000FFF780FF0099491C00910099B1F5A06F90
:104ED00001D00028F3D03120FFF774FF08B1012082
:104EE00008BD002008BD000010B5029C2070617054
:104EF000100AA070E270180A207163710621204622
:104F0000FDF78AFF0349A1F87000A071000AE07163
:104F1000082010BD580000200A4A13785278032B4D
:104F20000FD1012A07D0022A07D0032A07D0042A6A
:104F300007D1FCF793BCFDF723B8FCF77BBCFCF76B
:104F400095BC70474001002030B585B00C46014645
:104F50002046FDF761FF002867D12078012864D141
:104F60006078032861D16079217940EA0120400608
:104F7000040E102C59D82E4890F801148DF800100A
:104F800090F800148DF8011090F803148DF80210B9
:104F900090F802148DF8031090F805148DF80410A1
:104FA00090F804148DF8051090F807148DF8061089
:104FB00090F806148DF8071090F809148DF8081071
:104FC00090F808148DF8091090F80B148DF80A1059
:104FD00090F80A148DF80B1090F80D148DF80C1041
:104FE00090F80C148DF80D1090F80F148DF80E1029
:104FF00090F80E048DF80F000E4D0120287003204C
:105000006870AC7022466946E81CFBF7ADF8E11CFD
:105010002846FDF701FF2919C870000A087105B07C
:10502000601DBDE8304004F0EFB805B030BD0000B1
:1050300002E000202D0C0020F0B5022844D1487871
:105040000978224C40EA0122A4F88020022084F84A
:10505000560004F19205A97841B93221FDF786FA8C
:10506000A4F8800094F8561001206854184E94F863
:105070005600A6F15C07717F3954A6F15905B4F8C2
:1050800080202B5C02F066FFA4F8800094F8561094
:105090006A5C521CD2B26A547B5C9A4201D30022F1
:1050A0006A54317F01EB81014900A4F86010884205
:1050B00001D9A4F88010B4F88000081AA4F88A0076
:1050C00004498873000AC873F0BD0000580000202E
:1050D0004001002026E8002070B505460E465D48D8
:1050E000A0F1E80403784278012B0FD0022B7DD188
:1050F000012A6AD0022A7AD0032A79D0042A75D1EB
:1051000031462846BDE8704007F04AB9012A0DD063
:10511000022A20D0032A33D0042A67D131462846F8
:1051200004F096FD94F83E00F0B344E03146284682
:1051300004F08EFD94F83E0018B93146284606F07A
:1051400039FA94F83E00002850D131462846BDE88F
:10515000704004F053BA3146284604F079FD94F8C3
:105160003E0018B93146284604F0FCFE94F83E0093
:1051700000286DD131462846BDE8704004F03EBAA3
:105180003146284604F064FD94F83E0018B93146D3
:10519000284605F09FFA94F83E00002858D1314681
:1051A0002846BDE8704000E001E004F027BA31462F
:1051B000284605F08FFA94F83E00002848D1314681
:1051C0002846BDE8704004F019BA3146284606F07A
:1051D00041FF94F83E0018B93146284606F0EAF936
:1051E00094F83E00002833D1314602E030E005E07B
:1051F00019E02846BDE8704004F000BA3146284660
:1052000006F028FF94F83E0018B93146284604F00D
:10521000A9FE94F83E0000281AD131462846BDE880
:10522000704004F0EBB93146284606F013FF94F8BD
:105230003E0018B93146284605F04CFA94F83E0075
:10524000002805D131462846BDE8704004F0D6B9A3
:1052500070BD00004001002010B50C4601462046FC
:10526000FDF7DAFD002830D17A214FF4005002F02A
:10527000CFFD2078394940542178394A012088549B
:1052800020783849002242546078032802D006284A
:105290000BD01BE020783449401E01EB0010A278AF
:1052A000E11CBDE81040FAF75FBFA17871B9E3785F
:1052B000032B0BD82178212908D3402906D8A1F146
:1052C00021002A4901EB80001A5410BD1028FCD19E
:1052D0002178274B212907D3E078042804D30F280D
:1052E00002D8187E012818D0E078A0F1100CBCF18B
:1052F000110F04D893F818C0BCF1020F10D0A0F120
:10530000220CBCF1010F04D893F818C0BCF1030FB4
:105310000DD0184B25290DD014E017480A5410BDA4
:10532000587D081A1549084400F8012C10BD83F86F
:10533000332010BD282805D3442803D2283803F889
:10534000102010BD2629FCD12828FAD34428F8D2F1
:10535000283803EB4000427010BD0000A5E7002094
:10536000A3E5002025E7002002E0002026E600203B
:1053700058000020850F0020D200002028010020C6
:105380002DE9F04F85B00C4601462046FDF744FD5F
:10539000002840F0D6802078DFF804B44FF00209EE
:1053A0004FF0030A4FF001080027FE4EFE4DEE2895
:1053B00000F0DC8111DCEA281BD007DC512800F06A
:1053C000E086522840F0EE8700F05CBFEB287DD0ED
:1053D000EC2840F0E78700F00CB9A0F1EF010529B7
:1053E00080F0E087DFE811F05A02C3038A04420527
:1053F000FC056078062824D0032840F0A280A0781D
:10540000012840F09E80E078802840F09A8084F85F
:105410000290A87AE070277105212046FDF7FCFC78
:10542000A5F86A006071000AA07120683060A08849
:10543000B080A079B07105B00720BDE8F04F03F04F
:105440003DBF2068306060687060082003F036FF60
:10545000E078A17840EA0120A5F85C00B0F5C07FB3
:105460003ED24AF6AB214143C90CD04A01EB41037D
:1054700002EBC303CE4AA2FB00C2D208A2EB820217
:1054800000EB8202520094F804C003F802C01344F7
:1054900094F805C083F801C0AB7F95F81FC0634541
:1054A00002D029756975EB772B7DC91AC9B22974A9
:1054B000D2B26A74BF4B01EB410603EBC60394F80A
:1054C00004C003F802C094F805C000E03CE01A44B0
:1054D00082F801C0B84B14225A541B1D5A54AF72A3
:1054E000B0F5C07F21D12079F8B185F80A8085F820
:1054F000188085F819804FF4005002F097FC4FF4A3
:10550000003002F093FC40F6B8314FF4803002F0E6
:105510007FFC40F6B8314FF4801002F079FC4FF474
:105520004072A249A548FDF743F8B5F85C00A0F524
:105530008071813940F005802079002800F00180D9
:10554000A87705B0BDE8F08F61789D4F062901D19D
:10555000A278BAB30329F4D1A1780029F1D18BF84C
:10556000000060788BF80100607940008BF8020041
:1055700060794200E07807EB40010BF10300FAF795
:10558000F3FD60790AEB40018548FDF745FCA5F87D
:105590006A0061790BEB4101C8706179000A0BEB7D
:1055A000410108716079052505EB40027C497D4881
:1055B000FAF7DAFD607905B005EB4000BDE8F04F81
:1055C00003F07CBE2068306060687060082003F0E3
:1055D00075FEE178207907F81100E178607907EB32
:1055E00041014870E078774A0521115405B0BDE8C3
:1055F000F08F6078062821D00328F7D1A0780428FE
:10560000F4D1E0788028F1D184F80290A87AE07093
:10561000277105212046FDF7FFFBA5F86A006071A0
:10562000000AA07120683060A088B080A079B071B5
:1056300005B00720BDE8F04F03F040BE20683060A1
:1056400060687060082003F039FEE078A17840EAD5
:105650000120A5F85C00B0F5906F3DD24EF28F317D
:105660004143090D584A01EBC10302EB8303574A3A
:10567000A2FB00C29208524202EBC20200EB4202BD
:10568000520094F804C003F802C0134494F805C013
:1056900083F801C02B7F95F81DC0634502D02975A2
:1056A00069756B772B7DC91AC9B22974D2B26A7435
:1056B000474B01EBC10603EB860394F804C003F8E3
:1056C00002C01A4494F805C082F801C0414B14226C
:1056D0005A5408335A54AF72B0F5906F37D12079CD
:1056E000A8B385F80A8085F8189085F819904FF4CA
:1056F000005002F09BFB4FF4003002F097FB40F6A5
:10570000B8314FF4803002F083FB40F6B8314FF4EB
:10571000801002F07DFB00202F4A2B4E02EB50013F
:105720000B7B311881F8003981F80179801CC0B2F7
:105730002428F3D34FF4906223492848FCF738FF1C
:1057400040F2A44206F590612548FCF731FFB5F818
:105750005C00A0F5806181397FF448AF2079002892
:105760003FF444AF287705B0BDE8F08FE178A0782A
:1057700041EA00286078102840D1B8F5026F3DD288
:1057800018484FEA580100EB8100A279E11DFAF7B1
:10579000EBFC06212046FDF73FFBA5F86A0023E05D
:1057A000EA1400202D0E002058000020A53600200D
:1057B000ABAAAAAAEA160020F300002000E8070816
:1057C00012E50020300F0020762D0020398EE338BE
:1057D0004A170020280100204001002000D80708B7
:1057E00000E00708581C0020A071000AE071206842
:1057F000306060687060082003F060FDB8F5026FEB
:10580000B1D1607806281FD12079E8B120683060D6
:1058100060687060082003F051FD4FF4C062FE49DB
:10582000FE48FCF7C5FEDFF8F0834FF4C06208F5D0
:10583000C061FB48FCF7BCFE4FF4886208F540618C
:10584000F848FCF7B5FE2F736078062808D1207958
:1058500030B92068306060687060082003F02EFD69
:10586000607803287FF47FAF84F80290287BE07093
:10587000277105212046FDF7CFFAA5F86A0060716F
:10588000000AA07120683060A088B080A079B07153
:1058900005B00720BDE8F04F03F010BD6078062882
:1058A0003DD1E0781D283AD820683060606870608B
:1058B000082003F003FDE078DFF86C83DFF86CB3B9
:1058C000DFF86CA30F2802D1207912282BD00421F5
:1058D000504602F09BFD0121504602F097FD002248
:1058E0000121504602F0DDFE00220421504602F064
:1058F000D8FE0021504602F08CFDD8F8000020F0C0
:10590000F000C8F80000D8F8000040F08000C8F8A7
:105910000000CBF80090E278C64821798154607885
:10592000062825D031E0D8F8000020F0F000C8F8B3
:105930000000D8F8000040F08000C8F80000CBF864
:1059400000700421504602F061FD0121504602F032
:105950005DFD01221146504602F0A3FE0122042102
:10596000504602F09EFE0121504602F052FDD2E761
:10597000E0787C2809D1207985F8320020683060F1
:1059800060687060082003F099FC6078102877D177
:10599000E0784D2838D006DC1F2809D02A2815D0F9
:1059A00039285DD121E05C283DD06C2858D149E0F0
:1059B000A079A0F108019F488177A1791F30A1F15A
:1059C000080204F10F01FAF7CFFB49E0A079A0F13A
:1059D0000801984880F83410A1793530A1F1080207
:1059E00004F10F01FAF7C0FB3AE0A079A0F1080139
:1059F000904880F85310A1795430A1F1080204F1C5
:105A00000F01FAF7B1FB2BE0A079A0F1080189485A
:105A100080F87C10A1797D30A1F1080204F10F011A
:105A2000FAF7A2FB1CE0A079A0F10801814880F8F8
:105A30009B10A1799C30A1F1080204F10F01FAF743
:105A400093FB0DE0A079A0F108017A4880F8BC1022
:105A5000A179BD30A1F1080204F10F01FAF784FB2E
:105A600006212046FDF7D8F9A5F86A00A071000AC2
:105A7000E0712068306060687060082003F01EFCF0
:105A8000E0781E287FF46FAE6078062845D1207933
:105A9000F0B32068306060687060082003F00EFC8E
:105AA000D5F8F702C5F8C501D5F8FB02C5F8C9015C
:105AB000B5F8FF02A5F8CD0195F8010385F8CF01EF
:105AC000D5F80203C5F8D001D5F80603C5F8D4010E
:105AD000B5F80A03A5F8D80195F80C0385F8DA01A2
